:0200000460009A
:100000004643464200000156000000000103030081
:1000100000000000000000000000000000000000E0
:1000200000000000000000000000000000000000D0
:1000300000000000000000000000000000000000C0
:1000400000000000010408000000000000000000A3
:100050000000800000000000000000000000000020
:100060000000000000000000000000000000000090
:100070000000000000000000000000000000000080
:10008000EB04180A063204260000000000000000FD
:10009000050404240000000000000000000000002F
:1000A0000000000000000000000000000000000050
:1000B0000604000000000000000000000000000036
:1000C0000000000000000000000000000000000030
:1000D00020041808000000000000000000000000DC
:1000E0000000000000000000000000000000000010
:1000F0000000000000000000000000000000000000
:10010000D8041808000000000000000000000000F3
:100110000204180804200000000000000000000095
:1001200000000000000000000000000000000000CF
:10013000600400000000000000000000000000005B
:1001400000000000000000000000000000000000AF
:10015000000000000000000000000000000000009F
:10016000000000000000000000000000000000008F
:10017000000000000000000000000000000000007F
:10018000000000000000000000000000000000006F
:10019000000000000000000000000000000000005F
:1001A000000000000000000000000000000000004F
:1001B000000000000000000000000000000000003F
:1001C000000100000010000001000000000000001D
:1001D000000001000000000000000000000000001E
:1001E000000000000000000000000000000000000F
:1001F00000000000000000000000000000000000FF
:10020000FFFFFFFFFFFFFFFFFFFFFFFFFFFFFFFFFE
:10021000FFFFFFFFFFFFFFFFFFFFFFFFFFFFFFFFEE
:10100000D1002043F1150060000000000000000046
:10101000201000600010006000E802600000000086
:101020000000006000F4020000000000FFFFFFFF6E
:10103000FFFFFFFFFFFFFFFFFFFFFFFFFFFFFFFFC0
:10104000FFFFFFFFFFFFFFFFFFFFFFFFFFFFFFFFB0
:10105000FFFFFFFFFFFFFFFFFFFFFFFFFFFFFFFFA0
:10106000FFFFFFFFFFFFFFFFFFFFFFFFFFFFFFFF90
:10140000824205D051F8043B40F8043B8242F9D8AF
:10141000704700BF044A05494FF0000342F8043BFF
:101420009142FBD8704700BFC08E0020C01501203C
:1014300080B5BFF34F8F01F029F8544C544B08206E
:101440005449C3F85401544AC3F800115348C3F82F
:10145000F0405349FFF7D4FF524A53495348FFF72E
:10146000CFFF534CFFF7D6FF4FF470004FF0E02151
:101470000023504AC1F8880D44F823200133B02BD3
:10148000FAD14D4B80214D4A03F8011B9342FBD109
:101490004FF0E0254A4F4B4A4FF0FF31C5F8084D59
:1014A0000026D5F8243D43F4E023C5F8243DFB692C
:1014B00023F07F0343F04003FB617B6A23F07F034B
:1014C00043F040037B629166D1661167516700F07B
:1014D000E5FF3D4B63223D49A3633D4BE36303239B
:1014E0006A613C4AAE612B61C5F8202DD5F8FC2D10
:1014F000394B42F08072C5F8FC2D1A6842F00102A7
:101500001A605B680B6001F08DF9344801F034FB20
:10151000F96E334B334A41F44051F9661E60C3F80B
:101520000861C3F81861C3F82861C3F83861936B88
:10153000DB0708D442F615632B4951651365936B9D
:1015400043F001039363274A284C936843F0011347
:10155000936001F02DF801F0C9FA01F031FB01F0C0
:101560008FF900F095FF2368132BFCD901F020FAC6
:101570002368B3F5967FFBD300F08EFF00F08AFF5F
:1015800001F016FB01F0F4FA30BFFDE70C0D11136A
:1015900000800D401B101820D81F02000000000022
:1015A00068350060C08E00204455026000000020B5
:1015B000008C0020C17F010000E400E0A0E400E016
:1015C00000C00F4000C00A407569010038120120B8
:1015D0007969010000002020001000E00046C323CC
:1015E0000040084000400D400000C0563C12012061
:1015F000054B4FF42A01054A05485A641864054A08
:1016000099639546FFF714FF00C00A40FFABAAAAF2
:1016100007002000008005201BB9124B1B6F9B04A4
:101620001ED400F03F000F4B22F0604221F06041D9
:1016300040F489101867C3F88010C3F890201A6F1F
:1016400022F480521A671A6F002AFCDAD3F870115C
:10165000054A0A40C3F870211A6F22F480321A67D3
:10166000704700BF00800D40FF7F7FFF07EE901A9C
:10167000DFED196A10F4C01FB8EE677A07EE902A02
:1016800000F07F02F8EE677A87EE270A07EE902ACD
:10169000C0F3C142F8EEE77A30EE270A20EE260AC0
:1016A00008D1F5EE007A20EE270A012B0AD0032B91
:1016B0000DD07047012AF8D1F6EE007A012B20EE0A
:1016C000270AF4D1F6EE007A20EE270A7047F5EEED
:1016D000007A20EE270A7047001BB74BDFED5D7ADA
:1016E000B4EEE70A2DE9F043F1EE10FA83B00446B8
:1016F0000E4615460A980CDCDFED577AB4EEE70A81
:10170000F1EE10FA40F39480B1EE006A4122042712
:1017100003E0B0EE006A21220227DFED506A4FF0AD
:10172000880C1A704FF00008C6EE807A4C4A9FED84
:101730004D7A02F1010E02F11E01C7EE866A01E048
:101740001EF801CB4FEA1C130CF00F09AEEB020C94
:1017500013FB09F307EE903A0CF1FF33F8EEE77A4A
:1017600077EEE67AF0EEE77AF4EEC77AF1EE10FA69
:1017700002D5B0EE677A98468E45E1D112F808306E
:1017800020EE060ADFED386A4FEA1318037003F003
:101790000F039FED367A18FB03F807EE908AF8EEF8
:1017A000E77A60EE277A87EEA60AB4EEC70AF1EE72
:1017B00010FA3AD4DFED2E7AB4EE670AF1EE10FAA1
:1017C00037FE800A01A807FB08F801F005FADFEDF3
:1017D000297ADDED016A6FF0604220EE270A9FED65
:1017E000226AFCEEE66A07EE908ABCEEC07A16EE3C
:1017F000903AF8EEE77A2370F8EE475A2A6086EDC1
:10180000007AD5ED006A2378F8EE666A07EE103AA2
:1018100085EEA60AB8EE477A30EE070A20EE060AF1
:1018200080EE270A03B0BDE8F083B0EE470AC9E7AF
:101830009FED117AB2EE006AF3EE007AB4EEC70AB9
:10184000F1EE10FACBBF422244220827102736FEC1
:10185000276A62E7DAF81A4DDAF89A4C4775684E4B
:10186000EC2A00200000807F001BB74BFCA9D84168
:1018700002AB58420000004EDAF81A4C026838B544
:101880002E4B9A4215D02E4B1A6A9D6AC2F3C14262
:101890009C6AC5F34225012AC4F3426416D0022A89
:1018A00035D0D2B1631C274805FB0333B0FBF3F0FE
:1018B00038BDA3F530231A6B1D6BC2F3C1121C6B2C
:1018C000C5F30235012AC4F34224E8D1631C1E4843
:1018D00005FB0333B0FBF3F038BD1C4AD2F870317E
:1018E000106F990DC3F3C03301F002010B43D2F81E
:1018F0008010D2F89020FFF7B9FEFCEEC07A631C8E
:1019000017EE900A05FB0333B0FBF3F038BD0F4B25
:10191000D3F8A000D3F8B010D3F8C020D3F87031BA
:101920009B0FFFF7A3FEFCEEC07A631C17EE900A34
:1019300005FB0333B0FBF3F038BD00BF00C01A4015
:1019400000C00F4000389C1C80204B1E00800D40C2
:10195000094B0A6810B404689C4208BF9A420CBF45
:101960000120002005D09C4218BF9A4214BF0120DC
:1019700000205DF8044B704700C01A40022970B483
:1019800008D1274C4FF48835C4F8A8504FF40055BF
:10199000C4F8A450234C0568A54222D04568C90468
:1019A0005B06286801F4C0116E685202046803F0F7
:1019B000606302F4606224EA060404601A4C266A3A
:1019C00026F4C01C41EA0C012162A16A21F00E211B
:1019D0000B431A43A2626A680368134370BC036036
:1019E000704740685B021203046803F46063466852
:1019F00002F4E0422568C90125EA06050A4E01F411
:101A0000C0712560356B25F4FF452B4313430B4311
:101A10003363236842681343236070BC704700BF80
:101A200000800D4000C01A4000C00F4070B53F4C10
:101A30008822DFED3F7A0026611C9FED3E7AC7EEDB
:101A4000806A04F11E0C0D4601E015F8012B130904
:101A500002F00F0E2A1B13FB0EF307EE903A531EF3
:101A6000F8EEE77A77EEE67AF0EEE77AB4EEE77A28
:101A7000F1EE10FA02DDB0EE677A1E466545E4D15C
:101A8000DFED2D7A8822A65D002587EE806ADFEDE6
:101A9000296A01E011F8012B130902F00F0E0A1B4D
:101AA00013FB0EF307EE903A531EF8EEE77A77EE4B
:101AB000C67AF0EEE77AF4EEE76AF1EE10FA02DDAC
:101AC000F0EE676A1D466145E4D1F4EEC76A635DD6
:101AD000F1EE10FA14DB340906F00F0603219FED36
:101AE000147A621E731E14FB06F4DBB207EE904AF2
:101AF000D2B2FFF743FFF8EEE77A87EE270A70BD10
:101B00001C0903F00F0501219FED0B7A621E6B1E6D
:101B100014FB05F4DBB207EE904AD2B2FFF72EFFBA
:101B2000F8EEE77A87EE270A70BD00BFEC2A0020A6
:101B3000C0E1E44D0000807F0459F24D30B587B01C
:101B40000DF10F040DF10E0305AA04A9009404463B
:101B50000DF10D00FFF7C2FD9DF80E209DF80D3030
:101B600010091D4903F03F0302F00F02A0F102002B
:101B7000022AB0FA80F04FEA501043EAC0430B67E4
:101B8000049BC1F88030059BC1F8903020D0042A16
:101B900018D1124B1D46C1F878310F4B4FF400524B
:101BA00020460021C3F874515A679DF80F2002F0B7
:101BB0000F031209013B013ADBB2D2B2FFF7DEFE9E
:101BC00007B030BD0025044B044AC3F87821E4E790
:101BD0004FF40045F7E700BF00800D400080800013
:101BE00010B586B00DF10F040DF10E0305AA04A97E
:101BF000009404460DF10D00FFF770FD9DF80E20D6
:101C00009DF80D3010091C4903F07F0302F00F020C
:101C1000A0F10200022AB0FA80F04FEA501043EA25
:101C2000C043C1F8A030049BC1F8B030059BC1F897
:101C3000C0301ED0042A14BF00214FF040410E4B8B
:101C40004FF040422046C3F878214FF40052C3F8C9
:101C500074110221C3F8A4209DF80F2002F00F0395
:101C60001209013B013ADBB2D2B2FFF787FE06B0A0
:101C700010BD4FF08041E2E700800D40F8B5036AE7
:101C800004460D46002B00F03881E36E002B00F077
:101C90003E81A369013300F01881206A002800F01A
:101CA00004816369013303D0E36E002B00F0FD80F3
:101CB000A17F0668072940F2F980012100F07CFF2E
:101CC000FF28A07700F0F180E17F072940F2F6803D
:101CD000FF21206A00F064FFFF28E07700F0E58034
:101CE0000127A37F07FA00F007FA03F384F8250021
:101CF00084F86B30206AFFF7C1FD05FA07F307EEA1
:101D0000900A322207EE103AE37FF8EE676AB8EEE7
:101D1000477A403346F82320C6EE877A94F8243079
:101D2000A27F1B02E17F120603F4F853203102F078
:101D3000E0621343834A1A4346F82120A27F02F54A
:101D4000A072F8FE677AFCEEE77A17EE903AFF2B66
:101D500028BFFF2343F4706346F8223042F2222268
:101D6000A37F03F5907346F82320E37F94F82420A3
:101D700007EB8303A17F12021B0601F5807102F4B9
:101D8000F85203F07C5313436F4A1A4346F821205C
:101D900072B6B760336A94F8252023EA02033362EF
:101DA00062B6217E206A00F0F3FE04F11001206A81
:101DB00000F016FF384600F0CFFEE36E002B74D023
:101DC000217F1E68072900F28F80184600F0E4FE8C
:101DD00000286AD0617F072940F2A580226AE36E5D
:101DE0009A4200F0A780FF21184600F0D9FEFF2894
:101DF00060775AD0012700F14003322207FA00F041
:101E0000BD4084F8710046F82320237F94F87020A9
:101E10001B06617F1202E06E03F0E063203102F4E2
:101E2000F8521343494A1A4346F82120FFF726FD8A
:101E300007EE900A227FF8EE676A07EE905A02F5E5
:101E4000A072217DB8EE677AE06EC6EE877AF8FE62
:101E5000677AFCEEE77A17EE903AFF2B28BFFF2354
:101E600043F4706346F82230237F394A03F59073B8
:101E700046F8232094F87030227F1B0202F580720E
:101E800003F4F85343F0810346F82230B76000F0C2
:101E90007FFE04F11001E06E00F0A2FE72B6326A1D
:101EA00094F871301343336262B6F8BD00F074FEEB
:101EB0000028FAD0E17F07293FF60AAF206A00F038
:101EC0004FFE0028F1D0E07F0AE76369013325D097
:101ED000E36E002BE9D0206A00287FF4E9AE217F71
:101EE0001E6807297FF671AF0121184600F064FED5
:101EF000FF2820777FF46EAFF8BD00F12401007E4B
:101F000000F03EFEE36E2062002B7FF4C2AE04F1CF
:101F10007001207D00F034FEE066BAE6206A0028F9
:101F20003FF44BAFC4E6E06E00F01AFE0028BCD0D0
:101F3000607F5FE71846E17F00F04AFEE36E0146EE
:101F400052E700BF020003000100C0000100800052
:101F500022240402036A10B504464BB1E36E03B1B8
:101F600010BD04F17001207D00F00AFEE06610BD96
:101F700000F12401007E00F003FE2062EEE700BFC6
:101F8000016A10B504462DED028BB0EE408AA9B16E
:101F9000C06EF0B904F17001207D00F0F1FD216AFE
:101FA000E066002936D0A0B90846B0EE480AFFF72F
:101FB0003DFDE06EC0B9BDEC028B10BD00F1240107
:101FC000007E00F0DDFD0146E06E21620028E1D0D8
:101FD00051B1FFF7BDFC78B1216A0029E4D1E06E70
:101FE0009FED0E0A0028E6D0B0EE480ABDEC028B49
:101FF000BDE81040FFF71ABD206AB0EE480AFFF7AF
:1020000015FDB0EE480AE06EBDEC028BBDE8104055
:10201000FFF70CBD9FED010ACCE700BF00000000F8
:10202000016A10B504462DED028BB0EE408AA9B1CD
:10203000C06EF0B904F17001207D00F0A1FD216AAD
:10204000E066002936D0A0B90846B0EE480AFFF78E
:1020500075FDE06EC0B9BDEC028B10BD00F124012E
:10206000007E00F08DFD0146E06E21620028E1D087
:1020700051B1FFF76DFC78B1216A0029E4D1E06E1F
:102080009FED0E0A0028E6D0B0EE480ABDEC028BA8
:10209000BDE81040FFF752BD206AB0EE480AFFF7D6
:1020A0004DFDB0EE480AE06EBDEC028BBDE810407D
:1020B000FFF744BD9FED010ACCE700BF0000000020
:1020C000016A10B504462DED028BB0EE408AA9B12D
:1020D000C06EF0B904F17001207D00F051FD216A5D
:1020E000E066002936D0A0B90846B0EE480AFFF7EE
:1020F00077FDE06EC0B9BDEC028B10BD00F124018C
:10210000007E00F03DFD0146E06E21620028E1D036
:1021100051B1FFF71DFC78B1216A0029E4D1E06ECE
:102120009FED0E0A0028E6D0B0EE480ABDEC028B07
:10213000BDE81040FFF754BD206AB0EE480AFFF733
:102140004FFDB0EE480AE06EBDEC028BBDE81040DA
:10215000FFF746BD9FED010ACCE700BF000000007D
:1021600043690A4A03EB011010B4037A084C02EBEE
:102170000313D3E901321460C2681A6003690BB11A
:1021800042691A605DF8044B704700BF482E00207A
:1021900061F801004369027E03EB021292F808C065
:1021A0008C451CD01A7AFF2A19D0914210B50446EA
:1021B00016D01A7EFF2A06D00121D3E90023126827
:1021C0001A4201D1217610BD064B0522204603EBB1
:1021D0000C135B681A60FFF7C3FF2176F3E77047C3
:1021E0000021EAE7482E002043690A4A03EB011068
:1021F00010B490F82830084C02EB0313D3E90132F5
:102200001460C26A1A60036B0BB1426B1A605DF80E
:10221000044B7047482E002061F801004369427E5C
:1022200003EB021292F828C08C451ED093F82820A8
:10223000FF2A1AD0914210B5044617D093F83820DF
:10224000FF2A06D00121D3E9002312681A4201D1E6
:10225000617610BD064B0522204603EB0C135B682C
:102260001A60FFF7C1FF6176F3E770470021EAE7E4
:10227000482E0020164942698B6B23F47C0343F4FB
:10228000802370B58B630446124DD2E900130A68AF
:102290001A4303690A60022200211A610E4A196179
:1022A0009A6401225A629D624FF43035DD624FF02C
:1022B00001159E6C1E6519629D651A61017EFFF70E
:1022C0004FFF617E2046BDE87040FFF78DBF00BF25
:1022D00000C00F40B80B05053B372819B1F5607FEA
:1022E000F0B50E468DB028BF4FF460760F46054618
:1022F00072B62E4B00247022186021462C4B2D48BC
:102300001C8000F061FCCFB121462A484FF0010C3F
:102310004A0901F01F03013150F822400CFA03F37F
:102320008E4243EA040340F82230F1D828460023C5
:102330004380013300F582709E42F9D81E4C257807
:1023400015B162B60DB0F0BD082000F00DFC1B4BBE
:1023500080220646009302A90693194B027105607C
:1023600008A8029300F020FC06A9164A304600F0A7
:10237000EFFB069B08A8DB689847009B02A8DB6878
:1023800098472378002BDCD10F4B104AC3F8582113
:102390000F49D0204FF0E023402281F84600C3F8D7
:1023A00008210123237062B60DB0F0BDB8030120EF
:1023B00042150120C0030120661501200C2B0020CE
:1023C000716301001B100100008C00207D6301007F
:1023D00000E400E02B4A0021012310B4C2F8A00061
:1023E000C2F8A410C2F8B0305369DB07FCD5012352
:1023F0004FF4803423495361C2F8A000C2F8A440CE
:10240000C2F8B0304B69DC07FCD501234FF400342F
:102410001C4A4B61C1F8A000C1F8A440C1F8B0301B
:102420005369D907FCD50123174C16495361C2F8EB
:10243000A000C2F8A440C2F8B0304B69DB07FCD55D
:10244000D1F8003145F60D5021249AB24C618242F8
:1024500014D045F69D518A420CD1C3F34253032B4D
:102460000CD0A3F104035DF8044BB3FA83F35B09CA
:102470001801704700205DF8044B704708205DF894
:10248000044B704700402A4004000300704700BF1F
:10249000704700BF704700BF00BF704710B44FF0D7
:1024A000E023002110243248C3F8941DC3F89C4D4A
:1024B0001124C3F8A00D2F48C3F89C4D1224C3F873
:1024C000A00D2D48C3F89C4D2C4AC3F8A00D2C4CF0
:1024D00042F015022B48C3F89C4DC3F8A00D2A4CBE
:1024E0002A48C3F89C4DC3F8A00D294CC3F89C2D75
:1024F0002848294AC3F8A04DC3F89C0DC3F8A02D65
:1025000002F5A022254C0C322548C3F89C4DC3F897
:10251000A02D244AC3F89C0DC3F8A02D02F14062FF
:10252000214C02322148C3F89C4DC3F8A02D0A3239
:10253000C3F89C0DC3F8A02D00BF00BF00BF00BFB3
:1025400000BF0122C3F8942DBFF34F8FBFF36F8FED
:10255000C3F8501FBFF34F8FBFF36F8FD3F8142D05
:102560005DF8044B42F44032C3F8142D704700BFAD
:102570003F0000102500080709001000C0150120C9
:10258000130020002100020714000020250008137A
:10259000090000101600202027000B131700004030
:1025A000180000602F000B07190000701A0000804F
:1025B000F0B5824B1822824D0120824F83B0C3F8C0
:1025C0005C528149C3F86072804CC3F86452A5F52F
:1025D00030457F4EC3F8685248F20C75C3F86C4220
:1025E000C3F87042C3F87442C3F878424FF0FF3426
:1025F000DA661A675A679A67DA67C3F88020C3F801
:102600008420C3F88820C1F82C03724AC1F8300333
:10261000C1F83403C1F83803C1F83C03C1F85003D2
:10262000B1696D4B0A406D486D4913436D4AB36102
:10263000D6F8843043F00C03C6F88430036843F0C6
:102640000203036003682B4021251A43664B026096
:1026500044608A68654C1340654A43F000538360C8
:10266000C36823F07803C360036A13402343036203
:10267000036A13405F4A234340F205644362826267
:10268000C2620022D1F8B83023F03F0343F00103C7
:10269000C0F8B830D1F8BC30574923F03F0343F0BD
:1026A0000103C0F8BC3002610567C0F8804045678F
:1026B000C0F884400224036823F0020303608161B0
:1026C0004E4B4F49C46143F8042B8B42FBD1434D21
:1026D0002B6843F001032B602C6814F00104FBD13C
:1026E0004549022340F2F5622046A96140F2994132
:1026F000EB6140F26643C5F8002242F20142C5F8A0
:102700001032404BC5F82012C5F8303240F2354344
:10271000C5F834223C49C5F840323C4BC5F850124C
:102720003B4AC5F8543242F20123C5F86022C5F88D
:102730006432FFF74FFE0646002836D083024FF47E
:1027400080222B660123C5F8A040244CC5F8A420A4
:10275000C5F8B0306369DA07FCD501253705656136
:102760003846FFF737FE32182A4BD2B21A7078B1CA
:1027700080024FF4802319496066C4F8A070C4F841
:10278000A430C4F8B0504B69DB07FCD501234B6182
:1027900021490024214801230094401A00EB0252F1
:1027A0001F4800F021FA03B0F0BD1D4B194A186014
:1027B0001070D860C3E9010003B0F0BD00801F4075
:1027C000F9B00100F910010000841F40F970010008
:1027D00000C00F40FFFCFF1F0003008000402A40A4
:1027E00000802A401200FFFFFF37F7004000008002
:1027F00000FFF07CFF000F83F05AF05A00422A409D
:1028000000432A409F041830EB06180A06320126BE
:102810003806180A741501200000007000000070CE
:10282000EC0D0120F0B4154A40274FF480314FF4ED
:1028300080564FF400554FF4404443F24200136970
:1028400013F0020F0ED113F4005F0FD013F4805F6A
:102850000ED0002BF3DA13F4803F0BD15B060BD5BF
:10286000F0BC7047946151619061E8E75561E6E71B
:102870005661E4E79161E2E75761E0E700800D40CF
:102880003F4A03203F49F3EE095AD2F880304FF017
:10289000000C9FED3D6A23F001039FED3C5A30B4DC
:1028A000C2F88030C2F89000D1F8E010384DCBB2B9
:1028B000384C39482B6007EE903A0B0DC1F30B21D1
:1028C000F8EEE77A06EE903A07EE101A334BB8EEC0
:1028D000C77A2160F8EEE66A314937EEC66A37EE0C
:1028E000C55A76EEC76A77EEE57A26EE266AC3ED1C
:1028F000006A25EE265AD2F8803067EEA64AC0ED6F
:10290000007AC6EE275A274885EE276AC4EEA76AE2
:1029100075EE875AFCEEE55A36EE076A15EE904AD8
:10292000BCEEC66A43EA045376EE877AC2F880307A
:1029300016EE103AD2F89041FCEEE77A01EA034134
:10294000214317EE903AC2F89011C3F30B03D2F86B
:1029500090110B431449C2F89031D2F8803043F003
:102960000203C2F88030114B80F840C0C1F84031FA
:102970004FF0E023012230BCC3F80821704700BFAC
:1029800000810D4000441F400000AA420000B442F4
:10299000EC100120E8100120F0100120F4100120BB
:1029A0000000FF0F00E400E0008C0020AD8101007A
:1029B000314B40F6617210B5C3F8202140F2044457
:1029C00000F0E2F82D4A2E49D2F880302D4843F02D
:1029D0000303C2F880302C4BC1F8604102681A42F0
:1029E00003D1D1F8A8319A071BD0254A4FF00041F6
:1029F000244B5963D2F8403143F00203C2F840310E
:102A0000D2F840319B07FBD44FF400304FF0E02167
:102A10001C4B4FF00042C1F88C0219209A6300F061
:102A20009BF8184A4FF08040154C002190630A2013
:102A3000164B11604FF49062C4F8A801184600F0DC
:102A4000C3F84FF4800203464FF4810040F2431173
:102A50001860C4F858311A640D4B0E4AC4F8481176
:102A6000C3F804224FF0E0224FF400310123C2F8F2
:102A70000C11C4F8403110BD00800D4000C00F4063
:102A800000002E4000900D40001C1E0000000020A1
:102A9000008C00209584010008B50E4B1B6E9B072F
:102AA00000D4FBBE72B60C4B00200C4AC3F84001A8
:102AB00003F160430A49A3F55F2311649D46BFF308
:102AC0004F8F4FF400130748074ADB6902609B6889
:102AD000984700BF00441F4000002E4000C00A403D
:102AE0000300200000802020000012EB104BA020EB
:102AF000104AD96E41F4403110B4D96640F23764BF
:102B0000D96E41F44071D96654649064936C1B068D
:102B1000FCD4094A40F23761A02351649364936C5A
:102B200013F08003FBD1054A13705DF8044B704726
:102B300000C00F4000400C4000800C407315012085
:102B4000F8B500BFF8BC08BC9E4670470000000006
:102B50005FF800F0AD6A01005FF800F0017201005B
:102B60005FF800F0E15A01005FF800F0497A0100D7
:102B70005FF800F0057901005FF800F0116F0100C7
:102B80005FF800F0B15901005FF800F041940100D6
:102B90005FF800F0E55901005FF800F0C15A01004C
:102BA0005FF800F0755A01005FF800F0E56301007E
:102BB0005FF800F0D1CA01005FF800F0355A01005B
:102BC0005FF800F0A97E01005FF800F00DC8010079
:102BD0005FF800F0B15A01005FF800F045B5010060
:102BE0005FF800F0255B01005FF800F005AD010023
:102BF00005010000D16B0000D98400005DA3000036
:102C000029250100412501005925010071250100F8
:102C100089250100A1250100B9250100D125010068
:102C2000E9250100012601001926010031260100D5
:102C300031280100B92B0100D12B0100E92B010043
:102C4000012C0100652F01007D2F0100952F01004F
:102C5000C92F0100F92F01001130010029300100B6
:102C60004130010059300100F93D0100B15B010024
:042C7000B16B010043
:102C740014801F4018801F401C801F4020801F406C
:102C840024801F4028801F402C801F4030801F401C
:102C940034801F4038801F403C801F4040801F40CC
:102CA4007C801F4080801F4084801F4088801F409C
:102CB4003C811F4040811F4044811F4048811F4088
:102CC4004C811F4050811F4054811F4058811F4038
:102CD4005C811F4060811F4064811F4068811F40E8
:102CE4006C811F4070811F4074811F4078811F4098
:102CF4007C811F4080811F4084811F4088811F4048
:102D04008C811F4090811F4094811F4098811F40F7
:102D14009C811F40A0811F40A4811F40A8811F40A7
:102D2400AC811F40B0811F40B4811F40B8811F4057
:102D3400FC801F4000811F4004811F4008811F4008
:102D44000C811F4010811F4014811F4018811F40B7
:102D54001C811F4020811F4024811F4028811F4067
:102D64002C811F4030811F4034811F4038811F4017
:102D74007C811F4080811F4084811F4088811F40C7
:102D84008C811F4090811F4094811F4098811F4077
:102D94009C811F40A0811F40A4811F40A8811F4027
:102DA400AC811F40B0811F40B4811F40B8811F40D7
:102DB40080C00F4000000003190000001000000054
:102DC400E8841F4001000000FF000000FF00000035
:102DD40000000000000000001800000010000000C7
:102DE400E4841F4001000000FF000000FF00000019
:102DF40000000000000000001F000000ED62010060
:102E040070C00F40000C0000110000001100000011
:102E1400E0841F40020000002C00000012000000AB
:102E2400E0841F40010000001000000011000000B9
:102E3400DC841F40020000002D000000120000008E
:102E4400DC841F40010000001E000000E16201005C
:102E540070C00F40C000000012000000130000000A
:102E6400D0841F4001000000FF000000FF000000AC
:102E74000000000000000000130000001300000028
:102E8400CC841F4001000000FF000000FF00000090
:102E940000000000000000001C000000D5620100DA
:102EA4002A035400650065006E0073007900200059
:102EB4004D004900440049007800310036002F00DD
:102EC40041007500640069006F000000180354009D
:102ED400650065006E007300790064007500690088
:102EE4006E006F000403090409023503060100C0E3
:102EF40032080B0002020201000904000001020270
:102F04000100052400100105240101010424020626
:102F140005240600010705820310001009040100BE
:102F2400020A0000000705030240000007058302AF
:102F3400400000090402000201030000072401000C
:102F440001E701062402010100062402020200092D
:102F54002403010301020100092403020401010105
:102F640000062402010500062402020600092403C7
:102F740001070106010009240302080105010006F6
:102F84002402010900062402020A00092403010B99
:102F9400010A0100092403020C01090100062402AC
:102FA400010D00062402020E00092403010F010E84
:102FB40001000924030210010D010006240201117D
:102FC4000006240202120009240301130112010065
:102FD400092403021401110100062402011500064C
:102FE4002402021600092403011701160100092412
:102FF4000302180115010006240201190006240227
:10300400021A00092403011B011A01000924030206
:103014001C01190100062402011D00062402021EDF
:1030240000092403011F011E0100092403022001D9
:103034001D010006240201210006240202220009C7
:103044002403012301220100092403022401210194
:103054000006240201250006240202260009240396
:103064000127012601000924030228012501000685
:103074002402012900062402022A00092403012B48
:10308400012A0100092403022C012901000624025B
:10309400012D00062402022E00092403012F012E13
:1030A40001000924030230012D010006240201312C
:1030B4000006240202320009240301330132010014
:1030C40009240302340131010006240201350006FB
:1030D40024020236000924030137013601000924C1
:1030E40003023801350100062402013900062402D6
:1030F400023A00092403013B013A010009240302B6
:103104003C01390100062402013D00062402023E6E
:1031140000092403013F013E010009240302400188
:103124003D010009050402400000000014250110BF
:103134000105090D1115191D2125292D3135393D9B
:103144000905840240000000001425011003070B48
:103154000F13171B1F23272B2F33373B3F080B035A
:1031640003010100000904030000010100000A2416
:103174000100013E000204050C24020102060002C3
:10318400030000000924030201010001000C2402D1
:103194000301010002030000000A240631030101B7
:1031A4000202000924030402060031000904040099
:1031B40000010200000904040101010200000724C7
:1031C40001020301000B2402010202100144AC00BD
:1031D40009058509B400010000072501000000006D
:1031E40009040500000102000009040501020102AE
:1031F4000000072401030301000B24020102021052
:103204000144AC0009050505B40001008607250149
:1032140000000000090586110300010500000000FC
:1032240009023503060100C032080B000202020144
:103234000009040000010202010005240010010538
:103244002401010104240206052406000107058265
:103254000310000509040100020A00000007050329
:1032640002000200070583020002000904020002B2
:10327400010300000724010001E701062402010103
:1032840000062402020200092403010301020100D2
:1032940009240302040101010006240201050006B9
:1032A400240202060009240301070106010009247F
:1032B4000302080105010006240201090006240294
:1032C400020A00092403010B010A01000924030274
:1032D4000C01090100062402010D00062402020E5D
:1032E40000092403010F010E010009240302100147
:1032F4000D01000624020111000624020212000935
:103304002403011301120100092403021401110111
:1033140000062402011500062402021600092403F3
:103324000117011601000924030218011501000602
:103334002402011900062402021A00092403011BB5
:10334400011A0100092403021C01190100062402C8
:10335400011D00062402021E00092403011F011E90
:1033640001000924030220011D0100062402012199
:103374000006240202220009240301230122010081
:103384000924030224012101000624020125000668
:10339400240202260009240301270126010009242E
:1033A4000302280125010006240201290006240243
:1033B400022A00092403012B012A01000924030223
:1033C4002C01290100062402012D00062402022EEC
:1033D40000092403012F012E0100092403023001F6
:1033E4002D010006240201310006240202320009E4
:1033F40024030133013201000924030234013101A1
:1034040000062402013500062402023600092403C2
:103414000137013601000924030238013501000691
:103424002402013900062402023A00092403013B64
:10343400013A0100092403023C0139010006240277
:10344400013D00062402023E00092403013F013E1F
:1034540001000924030240013D01000905040200A2
:1034640002000000142501100105090D1115191D94
:103474002125292D3135393D09058402000200003A
:10348400001425011003070B0F13171B1F23272BF1
:103494002F33373B3F080B030301010000090403EA
:1034A4000000010100000A240100013E000204059D
:1034B4000C24020102060002030000000924030296
:1034C40001010001000C24020301010002030000B9
:1034D400000A240631030101020200092403040244
:1034E400060031000904040000010200000904047C
:1034F400010101020000072401020301000B240260
:10350400010202100144AC0009058509B40004005D
:103514000007250100000000090405000001020065
:10352400000904050102010200000724010303014C
:10353400000B2402010202100144AC000905050538
:10354400B400040086072501000000000905861167
:1035540004000407000000000A060002EF02014014
:043564000100000062
:103568000000000000000000000000000000000053
:103578000000000000000000000000000000000043
:10358800F8B54FF084439D695A6915400DD0254F11
:1035980001269D6195FAA5F4B4FA84F457F824300D
:1035A80006FA04F49847A543F4D11F4B9D695A695C
:1035B80015400DD01D4F01269D6195FAA5F4B4FA6A
:1035C80084F457F8243006FA04F49847A543F4D154
:1035D800174B9D695A6915400DD0164F01269D61FC
:1035E80095FAA5F4B4FA84F457F8243006FA04F4EA
:1035F8009847A543F4D1104B9D695A6915400DD0E1
:103608000E4F01269D6195FAA5F4B4FA84F457F893
:10361800243006FA04F49847A543F4D1BFF34F8F3A
:10362800F8BD00BF8C850020004000420C860020B9
:10363800008000428C86002000C000420C870020D9
:103648000548064B1B1AD90F01EBA301491002D0FC
:10365800034B03B118477047C08E0020C08E00206E
:103668000000000008B5054B1BB105490548AFF33C
:103678000080BDE80840FFF7E3BF00BF000000007E
:10368800A00F012000F4026000207047704700BFBF
:10369800704700BF704700BF704700BF704700BF4A
:1036A800894B8A4A2DE9F04F83B0127893F83C3061
:1036B800009213B1013B9A426BD0834D0024844F92
:1036C800DFF8489205F10806DFF844A2DFF84482E3
:1036D800DFF844B20CE00134043709F10409043678
:1036E800062C0AF1040A08F104080BF1010B2DD08D
:1036F80015F8013B022BEED104F10803009A9A4217
:10370800E9D1336833F0080223D0724A52F82330E3
:103718003A689A426BD0511C002BB8BF0133B2EB08
:10372800630F4FEA630065DB81423960D3DB99F8A8
:103738000030362BCFD81A019E46674B9A58664BF5
:1037480003EB0E13DB68C2F88830C4E703B0BDE8AA
:10375800F08F019217F058F8D8F8001081B1411A8B
:103768005E4BA1F5FA6C9C450AD89BF80030019A8B
:10377800002B40F082800123CAF800108BF800303B
:103788003368C8F80000002B4ED0082B00F0878063
:10379800FFDE17F039F852490B682BB1C31A4F4AAC
:1037A800A3F5FA64944260D94E4B1B6807EE903A31
:1037B8009FED4D6AF6EE006A4C4AB8EE677ADFED87
:1037C8004C7A0860117827EE277AC7EE067A77EEEA
:1037D800A67AFCEEE77A17EE903A012B38BF012360
:1037E800D9B944490120CB611070487665E70121B9
:1037F800002291E799F80030362B13D89E461A011B
:10380800354B814203EB0E1C9A58DCF80CC0C2F809
:1038180084C03960FFF65FAF91E7364A0121D36172
:1038280091764AE7396056E701220221DAF800303A
:103838008B4246D201233049184441F824302F4B9B
:1038480043F824002E4B1A5501222E4B1A5599F88D
:103858000030362B3FF63FAF1F491A0101EB031327
:103868008A58DB68C2F8843035E7274A1478CCB91F
:103878001C4C23600124147098E7DAF800304FF0EC
:10388800070C4FF0040EE3FB0CE21EEB010342F1C0
:103898000002DB0843EA4273CAF8003070E70322EB
:1038A8000421C3E70F4E0727042200243568E5FBEF
:1038B8000724D31844F10002DB0843EA427333605B
:1038C80074E7B3FBF1F3B6E710E600208C1501208E
:1038D800740D01209C840020482E0020C0C80300DD
:1038E800C00E0120888500200024744A7615012026
:1038F80000442C47600E01201812012000120120FC
:1039080030120120E011012075150120C877002030
:1039180094880020E8110120D81101202DE9F04FEA
:10392800944F83B03B780F2B02D003B0BDE8F08FE3
:10393800DFF8548206460D4698F82D3083421FD092
:1039480098F82C30B342F0D1A5F130010929ECD810
:1039580001A353F821F000BFFD040000CB030000D1
:10396800E7040000CB030000D1040000BD04000000
:10397800CB030000AB040000CB0300008904000067
:103988007D4B19680029DBDDDFF8009200244B46E7
:1039980003E0013418338C42D2D01A78002AF8D0C8
:1039A8005A78AA42F5D104EB44030021DFF8D0B1DC
:1039B8004FEA440A09EBC302DB0009F803109368D5
:1039C8001BF82330362B07D86C4A190102EB031376
:1039D8005258DB68C2F88830D8F83830032BAFD893
:1039E800DFE803F0AA9F8C4798F80530012B9CD19B
:1039F800634B1B7D362B98D8604A190102EB0313E1
:103A08005258DB68C2F888308FE798F80430012BE9
:103A18008BD15B4B1B7C362B87D8EDE798F80330AE
:103A2800012B82D1564B1B7B362B3FF67EAFE3E74B
:103A380098F80230012B7FF478AF514B1B7A362B64
:103A48003FF673AFD8E798F80130012B7FF46DAFDC
:103A58004B4B1B79362B3FF668AFCDE798F8003013
:103A6800012B7FF462AF464B1B78362B3FF65DAFD8
:103A7800C2E70AEB04039FED430A09EBC3035A6844
:103A880001931BF8220017F049FC019B00215A689A
:103A98001BF8220017F0DCFB019B01215A681BF878
:103AA800220016F017FF019B00215A681BF822001C
:103AB80016F0D4FE019BDB681BF82330362B07D8A1
:103AC8002E4A190102EB03135258DB68C2F88430FE
:103AD8000AEB040309EBC3031B691BF82330362BDD
:103AE80007D8264A190102EB03135258DB68C2F8BB
:103AF80084303B780F2B3FF423AF16E70AEB04031F
:103B080009EBC3031B691BF82330362B3FF618AFAC
:103B18001A4A190102EB03135258DB68C2F88430C1
:103B28000EE70AEB040309EBC303DB681BF8233039
:103B3800362B3FF605AFEBE754449FED120A09EB2D
:103B4800C40463681BF8230017F0E8FB63680021CE
:103B58001BF8230017F07CFB636801211BF8230086
:103B680016F0B8FE636800211BF8230016F076FEF5
:103B7800BFE700BF8C1501208C0D0120482E0020C6
:103B8800C87700200000000010E60020A8140120DB
:103B980038B5054CA4F178050C3C204616F086FB98
:103BA800AC42F9D138BD00BFC8E60020054B03F18F
:103BB800340210B504460360026115F0EBFB2046A1
:103BC80010BD00BFE826002038B500F10805D0F880
:103BD800B4300446284698474FF6FD73984201D9F9
:103BE800012038BD0346B4F8BA20B4F8B810284606
:103BF80014F0E6FA94F89030032BF1D8DFE803F0DC
:103C0800140E0802B4F8BA301B1AA4F8BA30E7E761
:103C1800B4F8B8301B1AA4F8B830E1E7B4F8BA30F1
:103C28001844A4F8BA00DBE7B4F8B8301844A4F88C
:103C3800B800D5E700000000F8B52DED088B044664
:103C480015F08AFE002800F09980237E07467BB194
:103C580072B600232376A37662B60122002123845C
:103C680084F82C3023634A4B6163A363C4E90922B7
:103C7800637E002B65D1A37E43B172B60022E3694F
:103C8800A276A36262B6012384F82C3094F82050FF
:103C9800002D6CD094ED0D8ABD1C07F581769FED43
:103CA8003DAADFED3D8A9FED3DBADFED3DAA9FEDD0
:103CB800369BD4ED0E7A38EE278AB7EEC87AB4EE82
:103CC800C97BF1EE10FAA4BF37EE497BB7EEC78B7C
:103CD800B0EE480A84ED0D8A1AF0C6FD20EE0A0AF5
:103CE800236B20EE280A5A1EBDEEC00A10EE101AE9
:103CF80025F8021FBBB12263AAB994F8213094F8C1
:103D08002C0083F00103D4E9091C84F8213020B188
:103D18006146C4F824C084F82C20002B21634AFE95
:103D28008B7AC4ED0E7AAE42C3D1204639460022C2
:103D380015F090FE3846BDEC088BBDE8F84015F04C
:103D480061BE72B60022E3696276A27662B640F27C
:103D58000110002184F82C202363124A2084616317
:103D6800A263C4E90933A37E002B86D192E74FF4FE
:103D780080722946381D1BF0F9FFD6E7BDEC088B89
:103D8800F8BD00BFAFF30080182D4454FB21194043
:103D9800F3A93D3ECDCC4C3F00FEFF46A730993EEF
:103DA800F3A93D3EA730993E3F4B1B780F2B00D01F
:103DB80070472DE9F0473D4E96F82D3083422DEDA2
:103DC800068B03D0BDEC068BBDE8F087384FDFF8D3
:103DD800ECA03B68CAF80010002BF3DD354C002539
:103DE800DFF8DC909FED2C9B9FED2D8B03E03B686B
:103DF80018349D42E6DA23780135002BF7D0D6ED4A
:103E0800097AB2EE084BB36AB0EE000BB8EEE76B76
:103E1800DAED007A09EB8303DFF8A880B8EEE77AD9
:103E280089EE065B93ED00AA6378453BB7EEC77A47
:103E380006EE903AB8EECAABB8EEE66B86EE043BF7
:103E480025EE045B87EE051B31EE031B1AF04CFAD6
:103E5800336B64222AEE000BD6ED0D6A02FB03F3E6
:103E680007EE103A6368B8EEC77B18F82300124BC8
:103E7800A0EE087BB8EEE60B30EE070BB7EEC00BF2
:103E880083ED000A17F04AFA6368802118F82300C6
:103E980017F0DEF9ABE700BF000000000000C040EB
:103EA8000000000000807B408C15012010E60020F7
:103EB8008C0D0120A81401209C0E012080100120E7
:103EC80010840020C87700202DE9F047002A4ED042
:103ED80004460D468F180026DFF89C9000F108086C
:103EE8004FF6FD7A03E00120AF42064420D0236854
:103EF80015F8011B1B684B4515D1D4F8B430404662
:103F080098475045EFD80346B4F8BA20B4F8B8102B
:103F1800404614F055F994F89030032BE3D8DFE8C5
:103F280003F01F18110A20469847AF420644DED115
:103F38003046BDE8F087B4F8BA301B1A0120A4F85F
:103F4800BA30D1E7B4F8B8301B1A0120A4F8B83059
:103F5800CAE7B4F8BA301844A4F8BA000120C3E795
:103F6800B4F8B8301844A4F8B8000120BCE71646E5
:103F78003046BDE8F08700BF69060000214B1A688B
:103F8800D2E90010D3680968006810B41842946830
:103F980001EA04012ED0137C03F00303D9B943F0DE
:103FA80008039908013B11740D2B0BD8DFE803F0C7
:103FB8000D071C070A160D0D160A071C070D536975
:103FC800013B53615DF8044B704753695DF8044B3E
:103FD80001335361704743F00403E0E753695DF828
:103FE800044B023B5361704753695DF8044B02333D
:103FF80053617047137C03F003030029D1D043F0C9
:104008000403CEE780050120214B5A68D2E900104D
:10401800D3680968006810B41842946801EA04017A
:104028002ED0137C03F00303D9B943F00803990891
:10403800013B11740D2B0BD8DFE803F00D071C07AB
:104048000A160D0D160A071C070D5369013B53612B
:104058005DF8044B704753695DF8044B01335361B5
:10406800704743F00403E0E753695DF8044B023BF3
:104078005361704753695DF8044B023353617047CD
:10408800137C03F003030029D1D043F00403CEE7E7
:1040980080050120214B9A6ED2E90010D368096887
:1040A800006810B41842946801EA04012ED0137C09
:1040B80003F00303D9B943F008039908013B1174CD
:1040C8000D2B0BD8DFE803F00D071C070A160D0DA2
:1040D800160A071C070D5369013B53615DF8044B31
:1040E800704753695DF8044B01335361704743F0DF
:1040F8000403E0E753695DF8044B023B53617047E2
:1041080053695DF8044B023353617047137C03F025
:1041180003030029D1D043F00403CEE78005012032
:10412800214BDA6ED2E90010D3680968006810B430
:104138001842946801EA04012ED0137C03F00303AB
:10414800D9B943F008039908013B11740D2B0BD81A
:10415800DFE803F00D071C070A160D0D160A071CE9
:10416800070D5369013B53615DF8044B7047536970
:104178005DF8044B01335361704743F00403E0E7F3
:1041880053695DF8044B023B5361704753695DF80E
:10419800044B023353617047137C03F00303002977
:1041A800D1D043F00403CEE780050120214B1A6FDC
:1041B800D2E90010D3680968006810B418429468FE
:1041C80001EA04012ED0137C03F00303D9B943F0AC
:1041D80008039908013B11740D2B0BD8DFE803F095
:1041E8000D071C070A160D0D160A071C070D536943
:1041F800013B53615DF8044B704753695DF8044B0C
:1042080001335361704743F00403E0E753695DF8F5
:10421800044B023B5361704753695DF8044B02330A
:1042280053617047137C03F003030029D1D043F096
:104238000403CEE780050120214B5A6FD2E9001014
:10424800D3680968006810B41842946801EA040148
:104258002ED0137C03F00303D9B943F0080399085F
:10426800013B11740D2B0BD8DFE803F00D071C0779
:104278000A160D0D160A071C070D5369013B5361F9
:104288005DF8044B704753695DF8044B0133536183
:10429800704743F00403E0E753695DF8044B023BC1
:1042A8005361704753695DF8044B0233536170479B
:1042B800137C03F003030029D1D043F00403CEE7B5
:1042C80080050120214B9A6FD2E90010D368096854
:1042D800006810B41842946801EA04012ED0137CD7
:1042E80003F00303D9B943F008039908013B11749B
:1042F8000D2B0BD8DFE803F00D071C070A160D0D70
:10430800160A071C070D5369013B53615DF8044BFE
:10431800704753695DF8044B01335361704743F0AC
:104328000403E0E753695DF8044B023B53617047AF
:1043380053695DF8044B023353617047137C03F0F3
:1043480003030029D1D043F00403CEE78005012000
:10435800214BDA6FD2E90010D3680968006810B4FD
:104368001842946801EA04012ED0137C03F0030379
:10437800D9B943F008039908013B11740D2B0BD8E8
:10438800DFE803F00D071C070A160D0D160A071CB7
:10439800070D5369013B53615DF8044B704753693E
:1043A8005DF8044B01335361704743F00403E0E7C1
:1043B80053695DF8044B023B5361704753695DF8DC
:1043C800044B023353617047137C03F00303002945
:1043D800D1D043F00403CEE780050120224BD3F867
:1043E8008020D2E90010D3680968006810B4184228
:1043F800946801EA04012ED0137C03F00303D9B9B1
:1044080043F008039908013B11740D2B0BD8DFE822
:1044180003F00D071C070A160D0D160A071C070DD9
:104428005369013B53615DF8044B704753695DF86C
:10443800044B01335361704743F00403E0E75369C9
:104448005DF8044B023B5361704753695DF8044BB8
:10445800023353617047137C03F003030029D1D062
:1044680043F00403CEE700BF80050120224BD3F8B8
:104478008420D2E90010D3680968006810B4184293
:10448800946801EA04012ED0137C03F00303D9B920
:1044980043F008039908013B11740D2B0BD8DFE892
:1044A80003F00D071C070A160D0D160A071C070D49
:1044B8005369013B53615DF8044B704753695DF8DC
:1044C800044B01335361704743F00403E0E7536939
:1044D8005DF8044B023B5361704753695DF8044B28
:1044E800023353617047137C03F003030029D1D0D2
:1044F80043F00403CEE700BF80050120224BD3F828
:104508008820D2E90010D3680968006810B41842FE
:10451800946801EA04012ED0137C03F00303D9B98F
:1045280043F008039908013B11740D2B0BD8DFE801
:1045380003F00D071C070A160D0D160A071C070DB8
:104548005369013B53615DF8044B704753695DF84B
:10455800044B01335361704743F00403E0E75369A8
:104568005DF8044B023B5361704753695DF8044B97
:10457800023353617047137C03F003030029D1D041
:1045880043F00403CEE700BF80050120224BD3F897
:104598008C20D2E90010D3680968006810B418426A
:1045A800946801EA04012ED0137C03F00303D9B9FF
:1045B80043F008039908013B11740D2B0BD8DFE871
:1045C80003F00D071C070A160D0D160A071C070D28
:1045D8005369013B53615DF8044B704753695DF8BB
:1045E800044B01335361704743F00403E0E7536918
:1045F8005DF8044B023B5361704753695DF8044B07
:10460800023353617047137C03F003030029D1D0B0
:1046180043F00403CEE700BF80050120224BD3F806
:104628009020D2E90010D3680968006810B41842D5
:10463800946801EA04012ED0137C03F00303D9B96E
:1046480043F008039908013B11740D2B0BD8DFE8E0
:1046580003F00D071C070A160D0D160A071C070D97
:104668005369013B53615DF8044B704753695DF82A
:10467800044B01335361704743F00403E0E7536987
:104688005DF8044B023B5361704753695DF8044B76
:10469800023353617047137C03F003030029D1D020
:1046A80043F00403CEE700BF80050120224BD3F876
:1046B8009420D2E90010D3680968006810B4184241
:1046C800946801EA04012ED0137C03F00303D9B9DE
:1046D80043F008039908013B11740D2B0BD8DFE850
:1046E80003F00D071C070A160D0D160A071C070D07
:1046F8005369013B53615DF8044B704753695DF89A
:10470800044B01335361704743F00403E0E75369F6
:104718005DF8044B023B5361704753695DF8044BE5
:10472800023353617047137C03F003030029D1D08F
:1047380043F00403CEE700BF80050120224BD3F8E5
:104748009820D2E90010D3680968006810B41842AC
:10475800946801EA04012ED0137C03F00303D9B94D
:1047680043F008039908013B11740D2B0BD8DFE8BF
:1047780003F00D071C070A160D0D160A071C070D76
:104788005369013B53615DF8044B704753695DF809
:10479800044B01335361704743F00403E0E7536966
:1047A8005DF8044B023B5361704753695DF8044B55
:1047B800023353617047137C03F003030029D1D0FF
:1047C80043F00403CEE700BF80050120224BD3F855
:1047D8009C20D2E90010D3680968006810B4184218
:1047E800946801EA04012ED0137C03F00303D9B9BD
:1047F80043F008039908013B11740D2B0BD8DFE82F
:1048080003F00D071C070A160D0D160A071C070DE5
:104818005369013B53615DF8044B704753695DF878
:10482800044B01335361704743F00403E0E75369D5
:104838005DF8044B023B5361704753695DF8044BC4
:10484800023353617047137C03F003030029D1D06E
:1048580043F00403CEE700BF80050120224BD3F8C4
:10486800A020D2E90010D3680968006810B4184283
:10487800946801EA04012ED0137C03F00303D9B92C
:1048880043F008039908013B11740D2B0BD8DFE89E
:1048980003F00D071C070A160D0D160A071C070D55
:1048A8005369013B53615DF8044B704753695DF8E8
:1048B800044B01335361704743F00403E0E7536945
:1048C8005DF8044B023B5361704753695DF8044B34
:1048D800023353617047137C03F003030029D1D0DE
:1048E80043F00403CEE700BF80050120224BD3F834
:1048F800A420D2E90010D3680968006810B41842EF
:10490800946801EA04012ED0137C03F00303D9B99B
:1049180043F008039908013B11740D2B0BD8DFE80D
:1049280003F00D071C070A160D0D160A071C070DC4
:104938005369013B53615DF8044B704753695DF857
:10494800044B01335361704743F00403E0E75369B4
:104958005DF8044B023B5361704753695DF8044BA3
:10496800023353617047137C03F003030029D1D04D
:1049780043F00403CEE700BF80050120224BD3F8A3
:10498800D820D2E90010D3680968006810B418422A
:10499800946801EA04012ED0137C03F00303D9B90B
:1049A80043F008039908013B11740D2B0BD8DFE87D
:1049B80003F00D071C070A160D0D160A071C070D34
:1049C8005369013B53615DF8044B704753695DF8C7
:1049D800044B01335361704743F00403E0E7536924
:1049E8005DF8044B023B5361704753695DF8044B13
:1049F800023353617047137C03F003030029D1D0BD
:104A080043F00403CEE700BF80050120224BD3F812
:104A1800C820D2E90010D3680968006810B41842A9
:104A2800946801EA04012ED0137C03F00303D9B97A
:104A380043F008039908013B11740D2B0BD8DFE8EC
:104A480003F00D071C070A160D0D160A071C070DA3
:104A58005369013B53615DF8044B704753695DF836
:104A6800044B01335361704743F00403E0E7536993
:104A78005DF8044B023B5361704753695DF8044B82
:104A8800023353617047137C03F003030029D1D02C
:104A980043F00403CEE700BF80050120224BD3F882
:104AA800CC20D2E90010D3680968006810B4184215
:104AB800946801EA04012ED0137C03F00303D9B9EA
:104AC80043F008039908013B11740D2B0BD8DFE85C
:104AD80003F00D071C070A160D0D160A071C070D13
:104AE8005369013B53615DF8044B704753695DF8A6
:104AF800044B01335361704743F00403E0E7536903
:104B08005DF8044B023B5361704753695DF8044BF1
:104B1800023353617047137C03F003030029D1D09B
:104B280043F00403CEE700BF80050120224BD3F8F1
:104B3800D020D2E90010D3680968006810B4184280
:104B4800946801EA04012ED0137C03F00303D9B959
:104B580043F008039908013B11740D2B0BD8DFE8CB
:104B680003F00D071C070A160D0D160A071C070D82
:104B78005369013B53615DF8044B704753695DF815
:104B8800044B01335361704743F00403E0E7536972
:104B98005DF8044B023B5361704753695DF8044B61
:104BA800023353617047137C03F003030029D1D00B
:104BB80043F00403CEE700BF80050120224BD3F861
:104BC800D420D2E90010D3680968006810B41842EC
:104BD800946801EA04012ED0137C03F00303D9B9C9
:104BE80043F008039908013B11740D2B0BD8DFE83B
:104BF80003F00D071C070A160D0D160A071C070DF2
:104C08005369013B53615DF8044B704753695DF884
:104C1800044B01335361704743F00403E0E75369E1
:104C28005DF8044B023B5361704753695DF8044BD0
:104C3800023353617047137C03F003030029D1D07A
:104C480043F00403CEE700BF80050120224BD3F8D0
:104C5800A820D2E90010D3680968006810B4184287
:104C6800946801EA04012ED0137C03F00303D9B938
:104C780043F008039908013B11740D2B0BD8DFE8AA
:104C880003F00D071C070A160D0D160A071C070D61
:104C98005369013B53615DF8044B704753695DF8F4
:104CA800044B01335361704743F00403E0E7536951
:104CB8005DF8044B023B5361704753695DF8044B40
:104CC800023353617047137C03F003030029D1D0EA
:104CD80043F00403CEE700BF80050120224BD3F840
:104CE800AC20D2E90010D3680968006810B41842F3
:104CF800946801EA04012ED0137C03F00303D9B9A8
:104D080043F008039908013B11740D2B0BD8DFE819
:104D180003F00D071C070A160D0D160A071C070DD0
:104D28005369013B53615DF8044B704753695DF863
:104D3800044B01335361704743F00403E0E75369C0
:104D48005DF8044B023B5361704753695DF8044BAF
:104D5800023353617047137C03F003030029D1D059
:104D680043F00403CEE700BF80050120224BD3F8AF
:104D7800B020D2E90010D3680968006810B418425E
:104D8800946801EA04012ED0137C03F00303D9B917
:104D980043F008039908013B11740D2B0BD8DFE889
:104DA80003F00D071C070A160D0D160A071C070D40
:104DB8005369013B53615DF8044B704753695DF8D3
:104DC800044B01335361704743F00403E0E7536930
:104DD8005DF8044B023B5361704753695DF8044B1F
:104DE800023353617047137C03F003030029D1D0C9
:104DF80043F00403CEE700BF80050120224BD3F81F
:104E0800B420D2E90010D3680968006810B41842C9
:104E1800946801EA04012ED0137C03F00303D9B986
:104E280043F008039908013B11740D2B0BD8DFE8F8
:104E380003F00D071C070A160D0D160A071C070DAF
:104E48005369013B53615DF8044B704753695DF842
:104E5800044B01335361704743F00403E0E753699F
:104E68005DF8044B023B5361704753695DF8044B8E
:104E7800023353617047137C03F003030029D1D038
:104E880043F00403CEE700BF80050120224BD3F88E
:104E9800B820D2E90010D3680968006810B4184235
:104EA800946801EA04012ED0137C03F00303D9B9F6
:104EB80043F008039908013B11740D2B0BD8DFE868
:104EC80003F00D071C070A160D0D160A071C070D1F
:104ED8005369013B53615DF8044B704753695DF8B2
:104EE800044B01335361704743F00403E0E753690F
:104EF8005DF8044B023B5361704753695DF8044BFE
:104F0800023353617047137C03F003030029D1D0A7
:104F180043F00403CEE700BF80050120224BD3F8FD
:104F2800BC20D2E90010D3680968006810B41842A0
:104F3800946801EA04012ED0137C03F00303D9B965
:104F480043F008039908013B11740D2B0BD8DFE8D7
:104F580003F00D071C070A160D0D160A071C070D8E
:104F68005369013B53615DF8044B704753695DF821
:104F7800044B01335361704743F00403E0E753697E
:104F88005DF8044B023B5361704753695DF8044B6D
:104F9800023353617047137C03F003030029D1D017
:104FA80043F00403CEE700BF80050120224BD3F86D
:104FB800C020D2E90010D3680968006810B418420C
:104FC800946801EA04012ED0137C03F00303D9B9D5
:104FD80043F008039908013B11740D2B0BD8DFE847
:104FE80003F00D071C070A160D0D160A071C070DFE
:104FF8005369013B53615DF8044B704753695DF891
:10500800044B01335361704743F00403E0E75369ED
:105018005DF8044B023B5361704753695DF8044BDC
:10502800023353617047137C03F003030029D1D086
:1050380043F00403CEE700BF80050120224BD3F8DC
:10504800C420D2E90010D3680968006810B4184277
:10505800946801EA04012ED0137C03F00303D9B944
:1050680043F008039908013B11740D2B0BD8DFE8B6
:1050780003F00D071C070A160D0D160A071C070D6D
:105088005369013B53615DF8044B704753695DF800
:10509800044B01335361704743F00403E0E753695D
:1050A8005DF8044B023B5361704753695DF8044B4C
:1050B800023353617047137C03F003030029D1D0F6
:1050C80043F00403CEE700BF80050120214B9A6A14
:1050D800D2E90010D3680968006810B418429468CF
:1050E80001EA04012ED0137C03F00303D9B943F07D
:1050F80008039908013B11740D2B0BD8DFE803F066
:105108000D071C070A160D0D160A071C070D536913
:10511800013B53615DF8044B704753695DF8044BDC
:1051280001335361704743F00403E0E753695DF8C6
:10513800044B023B5361704753695DF8044B0233DB
:1051480053617047137C03F003030029D1D043F067
:105158000403CEE780050120214BDA6AD2E900106A
:10516800D3680968006810B41842946801EA040119
:105178002ED0137C03F00303D9B943F00803990830
:10518800013B11740D2B0BD8DFE803F00D071C074A
:105198000A160D0D160A071C070D5369013B5361CA
:1051A8005DF8044B704753695DF8044B0133536154
:1051B800704743F00403E0E753695DF8044B023B92
:1051C8005361704753695DF8044B0233536170476C
:1051D800137C03F003030029D1D043F00403CEE786
:1051E80080050120214B1A6BD2E90010D3680968A9
:1051F800006810B41842946801EA04012ED0137CA8
:1052080003F00303D9B943F008039908013B11746B
:105218000D2B0BD8DFE803F00D071C070A160D0D40
:10522800160A071C070D5369013B53615DF8044BCF
:10523800704753695DF8044B01335361704743F07D
:105248000403E0E753695DF8044B023B5361704780
:1052580053695DF8044B023353617047137C03F0C4
:1052680003030029D1D043F00403CEE780050120D1
:10527800214B5A6BD2E90010D3680968006810B452
:105288001842946801EA04012ED0137C03F003034A
:10529800D9B943F008039908013B11740D2B0BD8B9
:1052A800DFE803F00D071C070A160D0D160A071C88
:1052B800070D5369013B53615DF8044B704753690F
:1052C8005DF8044B01335361704743F00403E0E792
:1052D80053695DF8044B023B5361704753695DF8AD
:1052E800044B023353617047137C03F00303002916
:1052F800D1D043F00403CEE780050120214B9A6BFF
:10530800D2E90010D3680968006810B4184294689C
:1053180001EA04012ED0137C03F00303D9B943F04A
:1053280008039908013B11740D2B0BD8DFE803F033
:105338000D071C070A160D0D160A071C070D5369E1
:10534800013B53615DF8044B704753695DF8044BAA
:1053580001335361704743F00403E0E753695DF894
:10536800044B023B5361704753695DF8044B0233A9
:1053780053617047137C03F003030029D1D043F035
:105388000403CEE780050120214BDA6BD2E9001037
:10539800D3680968006810B41842946801EA0401E7
:1053A8002ED0137C03F00303D9B943F008039908FE
:1053B800013B11740D2B0BD8DFE803F00D071C0718
:1053C8000A160D0D160A071C070D5369013B536198
:1053D8005DF8044B704753695DF8044B0133536122
:1053E800704743F00403E0E753695DF8044B023B60
:1053F8005361704753695DF8044B0233536170473A
:10540800137C03F003030029D1D043F00403CEE753
:1054180080050120214B1A6CD2E90010D368096875
:10542800006810B41842946801EA04012ED0137C75
:1054380003F00303D9B943F008039908013B117439
:105448000D2B0BD8DFE803F00D071C070A160D0D0E
:10545800160A071C070D5369013B53615DF8044B9D
:10546800704753695DF8044B01335361704743F04B
:105478000403E0E753695DF8044B023B536170474E
:1054880053695DF8044B023353617047137C03F092
:1054980003030029D1D043F00403CEE7800501209F
:1054A800214B5A6CD2E90010D3680968006810B41F
:1054B8001842946801EA04012ED0137C03F0030318
:1054C800D9B943F008039908013B11740D2B0BD887
:1054D800DFE803F00D071C070A160D0D160A071C56
:1054E800070D5369013B53615DF8044B70475369DD
:1054F8005DF8044B01335361704743F00403E0E760
:1055080053695DF8044B023B5361704753695DF87A
:10551800044B023353617047137C03F003030029E3
:10552800D1D043F00403CEE780050120214B9A6CCB
:10553800D2E90010D3680968006810B4184294686A
:1055480001EA04012ED0137C03F00303D9B943F018
:1055580008039908013B11740D2B0BD8DFE803F001
:105568000D071C070A160D0D160A071C070D5369AF
:10557800013B53615DF8044B704753695DF8044B78
:1055880001335361704743F00403E0E753695DF862
:10559800044B023B5361704753695DF8044B023377
:1055A80053617047137C03F003030029D1D043F003
:1055B8000403CEE780050120214BDA6CD2E9001004
:1055C800D3680968006810B41842946801EA0401B5
:1055D8002ED0137C03F00303D9B943F008039908CC
:1055E800013B11740D2B0BD8DFE803F00D071C07E6
:1055F8000A160D0D160A071C070D5369013B536166
:105608005DF8044B704753695DF8044B01335361EF
:10561800704743F00403E0E753695DF8044B023B2D
:105628005361704753695DF8044B02335361704707
:10563800137C03F003030029D1D043F00403CEE721
:1056480080050120214B1A6DD2E90010D368096842
:10565800006810B41842946801EA04012ED0137C43
:1056680003F00303D9B943F008039908013B117407
:105678000D2B0BD8DFE803F00D071C070A160D0DDC
:10568800160A071C070D5369013B53615DF8044B6B
:10569800704753695DF8044B01335361704743F019
:1056A8000403E0E753695DF8044B023B536170471C
:1056B80053695DF8044B023353617047137C03F060
:1056C80003030029D1D043F00403CEE7800501206D
:1056D800214B5A6DD2E90010D3680968006810B4EC
:1056E8001842946801EA04012ED0137C03F00303E6
:1056F800D9B943F008039908013B11740D2B0BD855
:10570800DFE803F00D071C070A160D0D160A071C23
:10571800070D5369013B53615DF8044B70475369AA
:105728005DF8044B01335361704743F00403E0E72D
:1057380053695DF8044B023B5361704753695DF848
:10574800044B023353617047137C03F003030029B1
:10575800D1D043F00403CEE780050120214B9A6D98
:10576800D2E90010D3680968006810B41842946838
:1057780001EA04012ED0137C03F00303D9B943F0E6
:1057880008039908013B11740D2B0BD8DFE803F0CF
:105798000D071C070A160D0D160A071C070D53697D
:1057A800013B53615DF8044B704753695DF8044B46
:1057B80001335361704743F00403E0E753695DF830
:1057C800044B023B5361704753695DF8044B023345
:1057D80053617047137C03F003030029D1D043F0D1
:1057E8000403CEE780050120214BDA6DD2E90010D1
:1057F800D3680968006810B41842946801EA040183
:105808002ED0137C03F00303D9B943F00803990899
:10581800013B11740D2B0BD8DFE803F00D071C07B3
:105828000A160D0D160A071C070D5369013B536133
:105838005DF8044B704753695DF8044B01335361BD
:10584800704743F00403E0E753695DF8044B023BFB
:105858005361704753695DF8044B023353617047D5
:10586800137C03F003030029D1D043F00403CEE7EF
:1058780080050120214B1A6ED2E90010D36809680F
:10588800006810B41842946801EA04012ED0137C11
:1058980003F00303D9B943F008039908013B1174D5
:1058A8000D2B0BD8DFE803F00D071C070A160D0DAA
:1058B800160A071C070D5369013B53615DF8044B39
:1058C800704753695DF8044B01335361704743F0E7
:1058D8000403E0E753695DF8044B023B53617047EA
:1058E80053695DF8044B023353617047137C03F02E
:1058F80003030029D1D043F00403CEE7800501203B
:10590800214B5A6ED2E90010D3680968006810B4B8
:105918001842946801EA04012ED0137C03F00303B3
:10592800D9B943F008039908013B11740D2B0BD822
:10593800DFE803F00D071C070A160D0D160A071CF1
:10594800070D5369013B53615DF8044B7047536978
:105958005DF8044B01335361704743F00403E0E7FB
:1059680053695DF8044B023B5361704753695DF816
:10597800044B023353617047137C03F0030300297F
:10598800D1D043F00403CEE780050120214B9A686B
:10599800D2E90010D3680968006810B41842946806
:1059A80001EA04012ED0137C03F00303D9B943F0B4
:1059B80008039908013B11740D2B0BD8DFE803F09D
:1059C8000D071C070A160D0D160A071C070D53694B
:1059D800013B53615DF8044B704753695DF8044B14
:1059E80001335361704743F00403E0E753695DF8FE
:1059F800044B023B5361704753695DF8044B023313
:105A080053617047137C03F003030029D1D043F09E
:105A18000403CEE780050120214BDA68D2E90010A3
:105A2800D3680968006810B41842946801EA040150
:105A38002ED0137C03F00303D9B943F00803990867
:105A4800013B11740D2B0BD8DFE803F00D071C0781
:105A58000A160D0D160A071C070D5369013B536101
:105A68005DF8044B704753695DF8044B013353618B
:105A7800704743F00403E0E753695DF8044B023BC9
:105A88005361704753695DF8044B023353617047A3
:105A9800137C03F003030029D1D043F00403CEE7BD
:105AA80080050120214B1A69D2E90010D3680968E2
:105AB800006810B41842946801EA04012ED0137CDF
:105AC80003F00303D9B943F008039908013B1174A3
:105AD8000D2B0BD8DFE803F00D071C070A160D0D78
:105AE800160A071C070D5369013B53615DF8044B07
:105AF800704753695DF8044B01335361704743F0B5
:105B08000403E0E753695DF8044B023B53617047B7
:105B180053695DF8044B023353617047137C03F0FB
:105B280003030029D1D043F00403CEE78005012008
:105B3800214B5A69D2E90010D3680968006810B48B
:105B48001842946801EA04012ED0137C03F0030381
:105B5800D9B943F008039908013B11740D2B0BD8F0
:105B6800DFE803F00D071C070A160D0D160A071CBF
:105B7800070D5369013B53615DF8044B7047536946
:105B88005DF8044B01335361704743F00403E0E7C9
:105B980053695DF8044B023B5361704753695DF8E4
:105BA800044B023353617047137C03F0030300294D
:105BB800D1D043F00403CEE780050120214B9A6938
:105BC800D2E90010D3680968006810B418429468D4
:105BD80001EA04012ED0137C03F00303D9B943F082
:105BE80008039908013B11740D2B0BD8DFE803F06B
:105BF8000D071C070A160D0D160A071C070D536919
:105C0800013B53615DF8044B704753695DF8044BE1
:105C180001335361704743F00403E0E753695DF8CB
:105C2800044B023B5361704753695DF8044B0233E0
:105C380053617047137C03F003030029D1D043F06C
:105C48000403CEE780050120214BDA69D2E9001070
:105C5800D3680968006810B41842946801EA04011E
:105C68002ED0137C03F00303D9B943F00803990835
:105C7800013B11740D2B0BD8DFE803F00D071C074F
:105C88000A160D0D160A071C070D5369013B5361CF
:105C98005DF8044B704753695DF8044B0133536159
:105CA800704743F00403E0E753695DF8044B023B97
:105CB8005361704753695DF8044B02335361704771
:105CC800137C03F003030029D1D043F00403CEE78B
:105CD80080050120214B1A6AD2E90010D3680968AF
:105CE800006810B41842946801EA04012ED0137CAD
:105CF80003F00303D9B943F008039908013B117471
:105D08000D2B0BD8DFE803F00D071C070A160D0D45
:105D1800160A071C070D5369013B53615DF8044BD4
:105D2800704753695DF8044B01335361704743F082
:105D38000403E0E753695DF8044B023B5361704785
:105D480053695DF8044B023353617047137C03F0C9
:105D580003030029D1D043F00403CEE780050120D6
:105D6800214B5A6AD2E90010D3680968006810B458
:105D78001842946801EA04012ED0137C03F003034F
:105D8800D9B943F008039908013B11740D2B0BD8BE
:105D9800DFE803F00D071C070A160D0D160A071C8D
:105DA800070D5369013B53615DF8044B7047536914
:105DB8005DF8044B01335361704743F00403E0E797
:105DC80053695DF8044B023B5361704753695DF8B2
:105DD800044B023353617047137C03F0030300291B
:105DE800D1D043F00403CEE78005012000F59F627F
:105DF80000230F494FF0400C10B5026300F5A7626D
:105E0800016000F5AF61426300F5B762A0F846C0D3
:105E18000446816302640062C0E901335023A0F89C
:105E2800483007F04DFF034B2046236010BD00BFEC
:105E380098270020282700200022034613494FF402
:105E4800806C10B4124C43F8284BA0F808C0C0E985
:105E580003230B68C0E90A22C0E90C229BB11A4649
:105E68005B69002BFBD1506100224FF48033094954
:105E78005DF8044B4261426082720160C0E90633FA
:105E8800C0E9083370470860EEE700BFBC03012093
:105E980074270020682700200B4610B5362800F22A
:105EA8009782DFE810F08C028202790270026702A2
:105EB8005E0255024C0243023A02310228021F02D6
:105EC800BF01B601AD01A4019B01920189018001C6
:105ED80077016E0165015C0153014A0141013801F6
:105EE8002F0126011D0113010901FF00F500EB0038
:105EF800E100D700CD00C300B900AF00A5009B00AA
:105F0800910087007D00730069005F0055004B0019
:105F180041003700C84C0422C8493620C4F8D8309C
:105F280014F01EFF012010BDC34C0422C4493520C3
:105F3800C4F8D43014F014FF012010BDBE4C042264
:105F4800C0493420C4F8D03014F00AFF012010BD35
:105F5800B94C0422BC493320C4F8CC3014F000FFFB
:105F6800012010BDB44C0422B8493220C4F8C8300E
:105F780014F0F6FE012010BDAF4C0422B4493120C4
:105F8800C4F8C43014F0ECFE012010BDAA4C042261
:105F9800B0493020C4F8C03014F0E2FE012010BD32
:105FA800A54C0422AC492F20C4F8BC3014F0D8FE0C
:105FB800012010BDA04C0422A8492E20C4F8B830F6
:105FC80014F0CEFE012010BD9B4C0422A4492D20C4
:105FD800C4F8B43014F0C4FE012010BD964C04225D
:105FE800A0492C20C4F8B03014F0BAFE012010BD2E
:105FF800914C04229C492B20C4F8AC3014F0B0FE1C
:10600800012010BD8C4C042298492A20C4F8A830DD
:1060180014F0A6FE012010BD874C042294492920C3
:10602800C4F8A43014F09CFE012010BD824C042258
:1060380090492820C4F8A03014F092FE012010BD29
:106048007D4C04228C492720C4F89C3014F088FE2B
:10605800012010BD784C042288492620C4F89830C5
:1060680014F07EFE012010BD734C042284492520C3
:10607800C4F8943014F074FE012010BD6E4C042254
:1060880080492420C4F8903014F06AFE012010BD25
:10609800694C04227C492320C4F88C3014F060FE3B
:1060A800012010BD644C042278492220C4F88830AD
:1060B80014F056FE012010BD5F4C042274492120C3
:1060C800C4F8843014F04CFE012010BD5A4C042250
:1060D80070492020C4F8803014F042FE012010BD21
:1060E800554C04226C491F20E36714F039FE012047
:1060F80010BD514C042269491E20A36714F030FEDC
:10610800012010BD4C4C042265491D20636714F022
:1061180027FE012010BD484C042262491C20236739
:1061280014F01EFE012010BD434C04225E491B20C2
:10613800E36614F015FE012010BD3F4C04225B49B4
:106148001A20A36614F00CFE012010BD3A4C04225C
:1061580057491920636614F003FE012010BD364C20
:10616800042254491820236614F0FAFD012010BDBA
:10617800314C042250491720E36514F0F1FD012049
:1061880010BD2D4C04224D491620A36514F0E8FDDE
:10619800012010BD284C042249491520636514F0DC
:1061A800DFFD012010BD244C04224649142023653C
:1061B80014F0D6FD012010BD1F4C042242491320C3
:1061C800E36414F0CDFD012010BD1B4C04223F49AF
:1061D8001220A36414F0C4FD012010BD164C042243
:1061E8003B491120636414F0BBFD012010BD124C23
:1061F800042238491020236414F0B2FD012010BD98
:106208000D4C042234490F20E36314F0A9FD01204A
:1062180010BD094C042231490E20A36314F0A0FDDF
:10622800012010BD044C04222D490D20636314F095
:1062380097FD012010BD00BF800501201D1400003E
:106248005D160000CD1500003D150000AD140000DE
:10625800DD1A00004D1A0000BD1900002D190000BC
:106268009D1800000D1800007D170000ED160000B5
:106278008D130000FD1200006D120000DD110000FA
:106288004D110000BD1000002D1000009D0F0000F2
:106298000D0F00007D0E0000F10D0000650D0000DF
:1062A800D90C00004D0C0000C10B0000350B00009C
:1062B800A12300001523000089220000FD21000011
:1062C80071210000E520000059200000CD1F0000CA
:1062D800411F0000B51E0000291E00009D1D000082
:1062E800111D00003B4C04223B490C20236314F091
:1062F80037FD012010BD374C042238490B20E362DA
:1063080014F02EFD012010BD324C042234490A201D
:10631800A36214F025FD012010BD2E4C0422314942
:106328000920636214F01CFD012010BD294C0422D1
:106338002D490820236214F013FD012010BD254CBF
:1063480004222A490720E36114F00AFD012010BD48
:10635800204C042226490620A36114F001FD0120E7
:1063680010BD1C4C042223490520636114F0F8FC7D
:10637800012010BD0422174C1F491046236114F058
:10638800EFFC012010BD134C04221C490320E360DC
:1063980014F0E6FC012010BD0E4C0422184902201E
:1063A800A36014F0DDFC012010BD04460948042256
:1063B80014494360012014F0D3FC204610BD054C5D
:1063C800042211490020236014F0CAFC012010BDEA
:1063D800002010BD80050120851C0000F91B00006D
:1063E8006D1B00000128000075270000E926000049
:1063F8005D260000D125000045250000B9240000D5
:106408002D240000A90A00001D0A00002DE9F04112
:106418000F46164604460221384614F05BFA02215C
:10642800304614F057FA224B3A0122483101DFF87E
:106438008CC053F8028003EB0712C4F80080D2F82E
:106448000CE003EB061259580023C4F808E0D268A0
:106458006361194BE26045681B686160ACFB033CF3
:106468004FF4FA634FEA9C4C03FB0CFC43685B1B3C
:106478009C45FBD8D8F80030384609681EEA030F57
:1064880014BF012300230A42214618BF43F0020328
:106498002374FFF701FD0346214630462376FFF7B4
:1064A800FBFC227E0346204613442376BDE8F08198
:1064B800482E0020001000E05C74002083DE1B439F
:1064C80010B40023114C124944F8203045F26114ED
:1064D800104A41F820401049104C12F8202041F889
:1064E80020300F49362A44F820300B540D4C0E4901
:1064F80023540B5407D80D4B110103EB02125B58C0
:10650800D268C3F888205DF8044B7047E811012071
:1065180094880020C877002018120120001201205A
:10652800E011012030120120D8110120482E00204E
:106538002DE9F04F2E4F85B014F066F92D4EA7EBDC
:1065480087032D4DDFF8B88007F1060A03F1040B25
:106558002A4CDFF8B0E08446DFF8AC900BE05745F2
:1065680006F1040605F1010508F1040804F1010427
:106578000EF1040E39D017F8013B022BEFD15BF86E
:10658800273033F00803EAD12B78002BE7D03168A5
:10659800CDE9027B0DE059F80720DBF80C00C2F8C2
:1065A8008400013BD8F80020DBB211442B70316025
:1065B800C3B1ACEB0102002A14DB22789EF800007C
:1065C80082F0010236282270EBD8070109EB001B84
:1065D8000197002ADFD159F80720DBF80C00C2F830
:1065E8008800DEE7DDE9027BB9E705B0BDE8F08F9A
:1065F80010E600200012012030120120E0110120D5
:1066080018120120C8770020482E0020F0288C4658
:10661800114610B5029C9DF80CE007D0BEF10F0F93
:1066280003D8EF280DD8020628D410BDBEF10F0FED
:10663800FBD8724620460CEB0121BDE8104016F04D
:10664800C7BBF72833D8F62831D000F0FD03F12B6B
:1066580037D0F228E9D14FEA0C4C4FF2032012064A
:106668000CF4FE0C02F0FE424CEA0E1C4CEA020C42
:10667800BDE810404CEA000016F050BB013B0A068A
:106688004FEA0C4100F0F0001B0202F0FE4201F458
:10669800FE0103F4706343EA0E1313430B4343EA0A
:1066A8000023BDE8104043EA101016F037BB4FEA4C
:1066B8000E1E4EEA0020BDE8104040F00F0016F014
:1066C8002DBB4FEA0C4101F4FE0141EA002040EAEB
:1066D8000E10BDE8104040F0020016F01FBB00BFCE
:1066E8002DE9F0473C4F84B0DFF8048106463B684B
:1066F800D8F80020934262DC002BDFF8F8900ADD1E
:106708004C46002520460C340135214613F036FE50
:106718003B689D42F6DB03EB4303314609EB8300FC
:1067280013F02CFE38680138C8F8000000EB400070
:106738003146002509EB800013F020FE274810F0B1
:10674800DBFF0121254810F039FF2549234811F0C6
:10675800C1FD244A202329462048CDE90252CDE92B
:1067680000550A2211F014F901211C4810F026FFE7
:106778001D491A4811F0AEFD3B68AB4214DDDFF845
:1067880074A01624194EA9465146A6F8BA403046B8
:10679800A6F8B89013F0FEFC01353B680A340AF1FC
:1067A8000C0AAB42A4B2EFDC0C4810F0B1FFD8F8E9
:1067B80000300133C8F8003004B0BDE8F08702EBC0
:1067C8004202DFF83090314609EB820013F0D6FD23
:1067D800D8F80000AAE700BF607400204C1201201E
:1067E800404C0020C8210020DC5600204412012023
:1067F8008CFE002050E600202DE9F0438BB0324E8D
:10680800324904A813F0FAFC31780A2201A80131B0
:1068180013F088FD01A904A813F0F8FD014607A8A4
:1068280013F00AFD07A8FFF75BFF07A813F03EFD6A
:1068380001A813F03BFD04A813F038FD244B93F88E
:106848003C301BB13278013B9A422ED0204D0024B7
:10685800DFF898801F4FDFF8989002E00134062C8B
:1068680020D015F8013B022BF8D1327804F1080347
:106878009A42F3D12046FFF723FE18F82400362861
:1068880007D8030109EB001259F80330D268C3F89E
:106898008820002113F0E2FF002347F82430013458
:1068A800062CDED10BB0BDE8F08300230A480B4A62
:1068B80045F261110360116009480A490A4A0370E8
:1068C8000B7001231376C1E78C150120B421002039
:1068D80010E60020740D0120C00E012088850020DC
:1068E8007615012075150120600E0120C87700205B
:1068F800482E00202DE9F0411E4F00241E4E1F4D4A
:10690800DFF87C8010E02B78362B4FEA031108EB78
:10691800031204D858F80130D268C3F8882001342B
:1069280004360435062C22D02046FFF7C9FD17F897
:10693800013B002BE7D02B78362B4FEA031108EBED
:10694800031204D858F80130D268C3F88420012112
:10695800307813F0BFFF3378362B4FEA031108EB7A
:106968000312D7D9013404360435062CDCD1BDE82E
:10697800F08100BF10E60020C8770020E0770020F3
:10698800482E0020F8B5104F7C1E07F13F06C7F1CE
:106998000105281914F028F804F8010FB442F8D1B9
:1069A8000A4B002003F1180153F8042F082AC8BF26
:1069B80018608B42F8D197F83C30102B02D901238C
:1069C80087F83C30F8BD00BF10E6002014E6002030
:1069D800154B1B68012B24D0002B30B4134D2868AD
:1069E80015DD134C00EB400214F832207AB1002276
:1069F80001E093420BDD0130013290FBF3F103FB20
:106A0800110000EB400114F831100029F1D1421CAB
:106A180040EAE07092FBF3F103FB11222A6030BCDC
:106A280070470020704700BF8C0D01209C0F01208B
:106A3800A8140120000000002DE9F04FDFF844837E
:106A480098F800300F2B2DED028B83B004D003B0E3
:106A5800BDEC028BBDE8F08FC14E05460C4696F89A
:106A68002D30834236D096F82C30AB42EFD1A4F1CA
:106A780024011529EBD801A353F821F0933700001E
:106A8800EF340000EF340000EF340000EF34000072
:106A9800EF340000EF340000EF340000EF34000062
:106AA800EF340000EF340000EF340000C737000077
:106AB800EF340000A3370000EF3400005538000021
:106AC80041380000EF3400002D380000EF3400009A
:106AD800DB370000FFF77CFFDFF8AC9200EB4003E8
:106AE80007464FEA400B19F8332009EBC303002A85
:106AF8004CD09B68DFF888A21AF82330362B07D8C9
:106B0800984A190102EB03135258DB68C2F888301F
:106B1800B36B032B37D8DFE813F0CD00E100250075
:106B280004000BEB07039FED900A09EBC3035A68B7
:106B380001931AF8220014F0F1FB019B00215A6816
:106B48001AF8220014F084FB019BDB681AF8233042
:106B5800362B07D8834A190102EB03135258DB6816
:106B6800C2F884300BEB070309EBC3031B691AF85F
:106B78002330362B07D87B4A190102EB03135258EE
:106B8800DB68C2F88430012013F0EAFD002F05DA33
:106B980098F800300F2B3FF466AF58E7D6ED097A26
:106BA800B2EE084B714BB0EE000BB8EEE77BB26A61
:106BB800DFF8CCA19FED665B85EE076B93ED007A5D
:106BC800A4F1450305EE103A694BB8EEC77AB8EE62
:106BD800C55B03EB8203674AB7EEC77A93ED008A79
:106BE80085EE043B0BEB0703116809EBC302516107
:106BF80001215470B8EEC88B09F83310019226EEC3
:106C0800046B87EE061B31EE031B17F06DFB642146
:106C1800336B28EE000B019A01FB03F307EE103AE1
:106C280053689FED4D6BB8EEC77B1AF82300524BA3
:106C3800A0EE067BD6ED0D6AB8EEE60B30EE070B3C
