:1000000000800020BD010000C91300008113000022
:100010008113000081130000811300008113000090
:10002000811300008113000081130000C913000038
:10003000C913000081130000912B0000952C0000D3
:10004000C9130000C9130000C9130000C913000040
:10005000C9130000C9130000C9130000C913000030
:10006000C9130000C9130000C9130000C913000020
:10007000C9130000C9130000C9130000C913000010
:10008000C9130000C9130000C9130000C913000000
:10009000C9130000C9130000C9130000C9130000F0
:1000A000C9130000C9130000C9130000C9130000E0
:1000B000C9130000C9130000C9130000C9130000D0
:1000C000C9130000C9130000C9130000C9130000C0
:1000D000C9130000C9130000C9130000C9130000B0
:1000E000C9130000C9130000C9130000C9130000A0
:1000F000C913000011380000C9130000693F000057
:10010000C9130000ED440000C9130000C91300002A
:10011000C9130000C9130000C9130000C91300006F
:10012000C9130000C9130000C9130000C91300005F
:10013000C9130000C9130000C9130000C91300004F
:10014000C9130000C9130000C9130000C91300003F
:10015000C9130000C9130000C9130000C91300002F
:10016000C913000045180000C9130000C91300009E
:10017000C9130000C9130000C9130000C91300000F
:10018000C9130000C9130000C9130000C9130000FF
:10019000C9130000C9130000C9130000C9130000EF
:1001A000C9130000C9130000C9130000C9130000DF
:1001B000C9130000C9130000C9130000564B4CF2CC
:1001C000205210B51A804DF628121A8000BF00BFC9
:1001D00001F0FEF8514B4FF010621A60504A9A60DD
:1001E000504ADA60504A136813F4807304D14F49BF
:1001F0000B604FF4A85313604D4B1A78110703D5C9
:100200001A7842F008021A704A4B4B492A221A7097
:100210004A4A4B4B8B4204D252F8040F43F8040B6A
:10022000F8E7484B484900228B4202D243F8042B9E
:10023000FAE74649464A002352F8230041F82300D2
:1002400001336F2BF8D1434B434A802103F8011B44
:100250009342FBD1414B3D4A1A60414B8A221A70AE
:10026000A3F5805324225A70A0221A709A7992071B
:10027000FCD59A79D406FCD43A4A937903F00C035E
:10028000082B384BF9D103221A7140225A719A79FE
:100290009006FCD5334A9179324B4906FBD5324A58
:1002A000324911600221516020221A709A7902F0BD
:1002B0000C020C2AFAD12E4B2E4A1A602E4B2F4AD2
:1002C0001A6000225A60072243F8042C2C4AC3F813
:1002D0000C2D62B601F06CF9144B1B68DA0705D5DA
:1002E000284801F0F9F8284B284A1A60284B1B7857
:1002F0005B0609D5244C254B22689A4204D121483B
:1003000001F0EAF80023236004F0D2F901F066F866
:1003100002F08AFEFEE700BF0E2005403080044058
:10032000823F04000100002B10D0034014D0034092
:1003300002D0074000E00740008EFF1F444C000041
:100340004088FF1F008EFF1F2495FF1F0082FF1FA4
:100350000000000000E400E05FE400E008ED00E0E1
:100360000050064000400640448004400000030165
:1003700004800440C010050014E000E0FF76010096
:1003800000002020F598985E1CE00340A5C3945A15
:1003900000F00740FFFFFFFFFFFFFFFFFFFFFFFF32
:1003A000FFFFFFFFFFFFFFFFFFFFFFFFFFFFFFFF5D
:1003B000FFFFFFFFFFFFFFFFFFFFFFFFFFFFFFFF4D
:1003C000FFFFFFFFFFFFFFFFFFFFFFFFFFFFFFFF3D
:1003D000FFFFFFFFFFFFFFFFFFFFFFFFFFFFFFFF2D
:1003E000FFFFFFFFFFFFFFFFFFFFFFFFFFFFFFFF1D
:1003F000FFFFFFFFFFFFFFFFFFFFFFFFFFFFFFFF0D
:10040000FFFFFFFFFFFFFFFFFFFFFFFFDEF9FFFF23
:1004100010B5054C237833B9044B13B10448AFF33E
:1004200000800123237010BD008EFF1F000000001C
:10043000484C0000084B10B51BB108490848AFF301
:1004400000800848036803B910BD074B002BFBD0A0
:10045000BDE81040184700BF00000000048EFF1FD9
:10046000484C0000008EFF1F00000000704700BFD6
:100470002DE9F041444E454D454F01210D2001F03D
:1004800043F8B06C036847F61221DB6900249847F3
:10049000A86C86F84C40032386F8643086F84E40FA
:1004A00086F84D4086F8654086F8674086F86840D3
:1004B0000368B4654FF6FF78DB697465C6F85C8045
:1004C000C6F8608047F6122186F8E94086F8664053
:1004D0009847B86C85F84C40032385F84E4085F862
:1004E0004D4085F8654085F8674085F8684085F897
:1004F00064300368C5F85C80C5F86080DB69AC6572
:1005000047F612216C6585F8E94085F86640984702
:1005100096F8641095F8642097F864301D48C7F881
:100520005C80C7F8608001F0FE014FF0200802F007
:10053000FE0203F0FE0364F3470387F84C4064F3C4
:10054000470164F3470287F84E4087F84D40BC6589
:100550007C65C0F800804FF4FA7087F8643087F843
:10056000E94087F8664087F8654087F8674087F874
:10057000684086F8641085F8642000F0CBFF064BD5
:10058000C3F80080BDE8F081208EFF1F0C8FFF1F95
:10059000F88FFF1F84F00F4088F00F4038B590F8B7
:1005A00064308164012213430025044662F347034B
:1005B0004FF6FF7280F8643080F84C5080F84D5050
:1005C00080F84E504565856580F8655080F8665026
:1005D00080F8675080F8685080F8E950C26502667C
:1005E00029468022693004F08BF825606560A5609B
:1005F000E56025616561A561E56125626562A562C9
:10060000E56225636563A563E5632564656420464B
:1006100038BD00BF2DE9F0479DF82040013CE4B211
:100620000F2C03D84EB2002E0D4601DBBDE8F0873B
:10063000E0290FD9F729F9D90835EDB2012303FADA
:1006400005F515F0DD0FF1D0806C0368BDE8F047CB
:100650001B6818478146806C1F46036846EA040100
:10066000C9B21B6890469847D9F84800036808F05B
:100670007F011B6805F0EF059847C02DD6D0D9F84B
:100680004800036807F07F011B68BDE8F047184782
:10069000F8B50446806C03681B69984708B90020C8
:1006A000F8BDA06C03685B699847C3B203F0FB0216
:1006B000F92AF4D0A26D82B994F84D2084F84F3015
:1006C000150600F19E8040B20028C0F2648100202F
:1006D00084F84D00A0656065F8BD010669D494F802
:1006E0004F10F02904EB020140D081F84F30616DCA
:1006F0004B1E9A4240D394F84F20F02AE7D01306BD
:100700003DD4002384F86630B02B4CD0A02B4AD0C7
:10071000D02B48D0E02B46D0C02B44D0002084F80A
:100720006500032994F8500008BF94F8515084F8EC
:10073000670018BF002500210120B02B84F8685005
:10074000A165616584F8E90000F0B78000F2AE8031
:10075000902B00F0B280A02B00F0AF80802B00F037
:10076000AC80002384F84D300120F8BD81F8693059
:10077000636D013B9A42AAD20132A2658FE702F172
:100780000C03DBB2012BBCD902F0FB03F92BB8D070
:10079000EF2A00F2FE8002F0F003802B84F866302E
:1007A00001D0902BB0D102F00F00013084F8650029
:1007B000B7E7A3F1F701082991D8012505FA01F05F
:1007C00010F4DD7F40F09680002988D194F86930DC
:1007D000F02B7FF47CAF561C2244F720370A82F8B6
:1007E000690084F8676084F8687084F8651084F89C
:1007F0004D10284684F8663084F8E950A16561659B
:10080000F8BD02F10C01CDB2012D7FF65CAF02F014
:10081000FB05F92D3FF457AFEF2A2ED802F0F00672
:10082000802E2BD140B20028FFF64EAF012084F875
:100830004F2084F85030A065C9B201297FF647AF38
:1008400002F0FB03F92B3FF442AFEF2A5FD802F02E
:10085000F003B02B26D01ED9D02B04D0E02B21D012
:10086000C02B7FF434AF022363650121A36D99424D
:1008700027D90133A3650020F8BD164606F0DF0531
:10088000902DCFD006F0BF05A02DCBD006F0EF06FF
:10089000C02EC7D017E7902B04D0A02B02D0802BFE
:1008A0007FF415AF032363650221DFE7D02B04D06B
:1008B000E02B02D0C02B7FF454AF84F84D200120F0
:1008C000F8BDEF2A94BF02F0F005154602F00F02C2
:1008D0000023013294F8501084F86520012084F838
:1008E000671084F8683084F86650A365636584F8FF
:1008F000E900F8BD002284F8672084F8682084F8B5
:10090000652084F8663084F8E9502846F8BDA2F1E5
:10091000F0030F2B3FF6DBAE01A151F823F000BF2F
:100920006109000067080000A508000067080000D2
:10093000CF060000CF06000075090000CF060000BA
:1009400075090000CF060000750900007509000058
:1009500075090000CF060000750900007509000048
:1009600000218020F02384F84D10606584F8693000
:100970007F217BE70023012084F8653084F867300D
:1009800084F8683084F86620A365636584F8E9001C
:10099000F8BD1346B6E61A4603F10C014CE700BF5A
:1009A00090F86630803B7F2B43D8DFE803F0474266
:1009B0004242424242424242424242424242514208
:1009C0004242424242424242424242424242AE429B
:1009D0004242424242424242424242424242A64293
:1009E0004242424242424242424242424242AA427F
:1009F0004242424242424242424242424242814298
:100A0000424242424242424242424242424289427F
:100A100042424242424242424242424242429B405F
:100A20005563424269426D42717579427D43036A62
:100A30001BBB7047436C002BFBD018470368002B8F
:100A4000F7D090F8682090F8671090F86500184784
:100A50004368002BF5D1ECE7426A002AE9D090F810
:100A6000683090F86700DB0103F47E5300F07F00EC
:100A700018431047836A002BDBD090F867001847B3
:100A8000C36A002BD9D1D4E7036B002BD5D1D0E7B3
:100A9000436B002BD1D1CCE7836B002BCDD1C8E7C2
:100AA000C36B002BC9D1C4E7036C002BC5D1C0E7D1
:100AB0004369002BBDD090F8671090F86500184787
:100AC0008269002AB5D090F8681090F8673090F8E5
:100AD0006500C90101F47E5103F07F031943A1F5BC
:100AE00000511047C369002BA3D0B0F867108029CC
:100AF00000F1690028BF80211847C368002BA0D1EE
:100B000097E70369002BD6D193E78368002B98D130
:100B10008FE700BF90F86430DA0718D513F0FE0FA6
:100B200015D070B590F8665085F08002602A82B0CA
:100B300004460DD890F865608E4231D081B35B08D1
:100B4000012B32D0032B00F0988002B070BD7047AB
:100B5000A5F1F0030F2BF8D801A252F823F000BF43
:100B6000530C0000330C0000050C0000E50B0000E6
:100B70004B0B00004B0B0000BF0B00004B0B0000A9
:100B8000BF0B00004B0B0000BF0B0000BF0B0000B1
:100B9000BF0B00004B0B0000BF0B0000BF0B0000A1
:100BA0005B08012B01D0022BCFD194F8683094F868
:100BB0006720009629462046FFF72CFDC5E705F182
:100BC0000803DBB2072BC0D8012202FA03F313F0AB
:100BD000DD0FBAD0A06C03681B68294602B0BDE8DF
:100BE00070401847806C94F867500368F3211B68C5
:100BF0009847A06C0368DB6C05F07F0102B0BDE88C
:100C000070401847806C94F86730026894F8685018
:100C10001268F22143EAC5159047A06C036805F0FD
:100C20007F019B6C9847A06C0368C5F3C6119B6C51
:100C3000E4E7806C94F8675094F8683002682D01FE
:100C400003F00F0305F070051268F1211D43904772
:100C5000C0E7B0F86760802E28BF802600F16905E4
:100C6000002E3FF472AF2E44A06C15F8011B0368F0
:100C70001B689847B542F7D167E794F8683094F855
:100C8000672000962946FFF7C5FC5EE72DE9F04F87
:100C9000CE4C94F84C50102D85B040F28F80CC4D46
:100CA000CC4E4FF0000895F84C70DFF82493102FCD
:100CB00040F2D18096F84C70DFF81893102F16D9B7
:100CC000002001F087FC002856D1B8F1000F6BD14D
:100CD000C14BC24A1B6812680392039AD31A0F2BA6
:100CE00002D9BF4B20221A6005B0BDE8F08F4846FC
:100CF000FFF7CEFC0028E3D099F86630902B00F087
:100D0000338183F08003602B40F23681DFF8C49298
:100D10004846FFF745FE39464846FFF7FBFE96F882
:100D2000667096F865B096F8678096F868A0F02F20
:100D300000F01882EF2F00F27E813B0600F1B582B1
:100D4000534642463946A148CDF800B0FFF762FC51
:100D50005346424639469E48CDF800B0FFF75AFC4C
:100D6000CDF800B05346424639469A48FFF752FC48
:100D7000002001F02FFCB8B19A4B9B4A19789B4890
:100D80009B4B12781B780078F02900F0A680994CD4
:100D90000128247800F07D81C0F0B780022803D1BB
:100DA00000948C48FFF736FC934B8C4A8A492020EC
:100DB000186013680293029B0B608CE72046FFF7D4
:100DC00067FC00283FF46BAF94F86630902B00F07E
:100DD000A18083F08003602B40F2A280DFF8EC81D9
:100DE0004046FFF7DDFD29464046FFF793FE94F8A5
:100DF000666094F865A094F8677094F86890F02E97
:100E000000F04C81EF2E00F2FB80310600F13682BB
:100E10006F4D6E48CDF800A04B463A463146FFF77D
:100E2000F9FB4B463A4631462846CDF800A0FFF77D
:100E3000F1FB6848CDF800A04B463A4631460646DD
:100E4000FFF7E8FB95F84C70DFF88491102F4FF016
:100E500001083FF62FAF4846FFF71AFC00283FF481
:100E600029AF99F86630902B6BD083F08003602B0C
:100E70006FD9DFF85C914846FFF792FD3946484646
:100E8000FFF748FE95F8667095F865B095F86780AD
:100E900095F868A0F02F00F03581EF2F79D83A0649
:100EA00000F1D2814246534639464848CDF800B059
:100EB000FFF7B0FB4246534639464548CDF800B0EF
:100EC000FFF7A8FB4246CDF800B0534639464148EB
:100ED000FFF7A0FB4FF00108ECE6012802EB03222C
:100EE00000F0A481C0F0948102287FF45DAF002A55
:100EF0003FF45AAF414D5419B06C15F8011B03680B
:100F00001B689847A542F7D14EE700942F48FFF79A
:100F100081FB49E794F8683013B9802384F8663080
:100F200094F86530AB423FF459AF002D3FF456AF13
:100F300029462648264D274EFFF7ECFD4FF00008C6
:100F4000B1E699F86830002B40F03F81802389F8A2
:100F5000663095F865309F428BD0002F89D0394696
:100F60001B48FFF7D7FDA5E699F86830002B40F045
:100F70002981802389F8663096F865309F423FF4D6
:100F8000C5AE002F3FF4C2AE39461248FFF7C2FD8E
:100F900096E6F72F6BD8F62F69D007F0FD03F12BFB
:100FA00000F01681F22F7FF47DAF4FEA08404FEA40
:100FB0000A6303F0FE4300F4FE00184340F472405D
:100FC00040F0130001F05AFA6CE700BF208EFF1FBB
:100FD0000C8FFF1FF88FFF1F1C8EFF1FE490FF1F59
:100FE00088F00F40F893FF1FFC93FF1FFE93FF1F35
:100FF000FD93FF1FFF93FF1F84F00F400094FF1F1E
:10100000F72E3AD8F62E38D006F0FD03F12B00F07B
:10101000F580F22E7FF4FCAE38044FEA096303F04A
:10102000FE4300F4FE00184340F4724040F0030019
:1010300001F024FAECE6F72F25D8F62F23D007F09D
:10104000FD03F12B00F0CF80F22F7FF479AE4FEA51
:1010500008404FEA0A6303F0FE4300F4FE00184321
:1010600040F4724040F0230001F008FA68E63802CC
:1010700040F01F0001F002FA14E7300240F00F00C8
:1010800001F0FCF9C4E6380240F02F0001F0F6F957
:1010900056E600949348FFF7BDFA85E607EB09276B
:1010A0003946002208F1690001F036FA002F00F0FD
:1010B000168108F1680607F1680335469844A06C6C
:1010C00015F8011F03681B6898474545F7D1854D02
:1010D000A86C16F8011F03681B6898474645F7D1AE
:1010E000DFF80C92804E4FF00008B06C19F8011F29
:1010F000036808F101081B6898474745F5D84FF089
:101100000108D0E508EB0A273946012209F16900F8
:1011100001F002FA1FB309F1680807F16803C2463B
:101120009944A06C1AF8011F03681B689847D145C1
:10113000F7D1A86C18F8011F03681B689847C145D0
:10114000F7D1DFF8B0914FF00008B06C19F8011F2B
:10115000036808F101081B6898474745F5D84FF028
:101160000108A7E508EB0A273946022209F16900C0
:1011700001F0D2F9002F3FF4FBAD09F1680807F147
:101180006803C2469944A06C1AF8011F03681B68E3
:101190009847D145F7D1A86C18F8011F03681B6860
:1011A0009847C145F7D1DFF850914FF00008B06C77
:1011B00019F8011F036808F101081B6898474745A3
:1011C000F5D8D5E599F86530D8E699F86530C2E6E6
:1011D00038024FEA084303F4FE0340F012001843BC
:1011E00001F04CF95EE638024FEA084303F4FE03CF
:1011F00040F02200184301F041F9A1E530023B0420
:1012000003F4FE0340F00200184301F037F9FFE554
:10121000002A3FF4C9AD354E9519A06C16F8011B94
:1012200003681B689847B542F7D1BDE5002A3FF433
:10123000BBAD2E4E9419A86C16F8011B03681B68F1
:101240009847A642F7D1AFE507F0F000031143EA53
:1012500000204FEA084303F4FE0340F010004FEA79
:101260000A6218430BF1FF3302F0FE421B021043E7
:1012700003F47063184301F001F913E606F0F0007F
:1012800002023B0442EA101003F4FE034FEA096233
:1012900018430AF1FF3302F0FE421B02104303F42D
:1012A0007063184301F0EAF8B2E507F0F0000311AB
:1012B00043EA00204FEA084303F4FE0340F0200015
:1012C0004FEA0A6218430BF1FF3302F0FE421B02A1
:1012D000104303F47063184301F0D0F830E5014D7A
:1012E000014E0CE70C8FFF1FF88FFF1F0094FF1FAC
:1012F000888EFF1F748FFF1F6090FF1F2DE9F04144
:10130000DFF87880144D154C154F1649164E82B0F3
:101310004046FFF743F92A462146404603F0BCF910
:1013200038461249FFF73AF92A462146384603F073
:10133000B3F930460E49FFF731F92A4621463046C7
:1013400003F0AAF90B4A0C4B12680192019A1A6039
:1013500002B0BDE8F08100BF4088FF1F6D040000AF
:101360000C8FFF1F5C88FF1FF88FFF1F6C88FF1F0B
:101370007C88FF1FE490FF1F1C8EFF1F208EFF1F25
:1013800008B5104C08E0236859050DD423681A05E8
:101390000FD42368DB0411D423685803F3D500F07D
:1013A00051FA23685905F1D502F032FA23681A057B
:1013B000EFD502F0D9FD2368DB04EDD503F096F8F4
:1013C000EAE700BF3480044008B5FFF7D9FF00BF4B
:1013D000014B10221A80704700200540704700BF63
:1013E000EFF3138070B9EFF310836BB9EFF305825D
:1013F0005AB94FF48070EFF311832BB1984228BF94
:10140000184670474FF0FF3070470F2A01D8184632
:10141000F1E7014BD05CEEE7F0E300E010B40F4BD6
:1014200053F8302092F880422CB1012369B182F840
:10143000803010BC704703EBC0035B681A6841B989
:1014400022F002021A6010BC704782F8003110BC12
:10145000704742F003021A6010BC704788490000D0
:101460001C4A02EBC00301295B6811D004291BD080
:1014700052F83000002280F8802229B1022920D0C1
:10148000032922D01A6070474FF480721A607047A7
:1014900052F830004FF4A27280F880121A601A6875
:1014A00022F020021A60704752F830104FF4A272F6
:1014B000012081F880021A601A6842F020021A6046
:1014C000704740F203121A6070474FF481721A603D
:1014D000704700BF8849000030B4054B054D064CED
:1014E000002210211A602A602060196030BC704709
:1014F00014D0034004D0034000D00340212801D879
:10150000FFF78CBF704700BF212801D8FFF7A8BFA5
:10151000704700BF2DE9F843054672B6204F214BB6
:10152000214A1B683C68126862B6520102D5322B10
:1015300088BF013495B3C3F5BB331C4EDFF864900C
:10154000DFF86480FF334FF47A72A6FB031302FBCB
:1015500004F404EB931472B6D9F800103A68D8F882
:1015600000E062B6C1F5BB33FF33A6FB03031EF0F8
:10157000806FC4EB93134FF47A7002D0322988BF86
:10158000013200FB0233B3F57A7F04D3013D05D06D
:1015900004F57A74DFE701F04FFDDCE7BDE8F8837E
:1015A000E490FF1F18E000E004ED00E0ABAAAAAA57
:1015B000F8B52D4B2D49DFF8D0E0DFF8D0C02C4E28
:1015C0002C4D2D4C2D4A2E4F4FF4000018604FF03B
:1015D000807018604FF0007018604FF080601860E5
:1015E0004FF0006018600020086028234BF6FF7160
:1015F000CCF80010CEF80030336013602B6023600D
:101600003B60B3629362092245F8242CC4F8D80FDA
:1016100005F57F65C7F8D41F07F5FF2707F5FA67BB
:10162000C6F8F83F2B6006F5FF26C4F8D42F05F561
:10163000FD2504F5FF24386006F2F4761148316088
:1016400005F5FF6504F5FD642B602360026001F081
:1016500041FD1920FFF75EFF00F03AFE40F2131043
:10166000BDE8F840FFF756BF08E100E00480034002
:1016700014800340248003402C8003401C800340DE
:101680003480034000800B400C80034008800340FE
:10169000431E032B14D872B60A4951F8230068B1CF
:1016A00070B4094C058834F81320466841F823606B
:1016B000521B24F8132062B670BC704762B67047A4
:1016C000002070474091FF1FF093FF1F013803284F
:1016D0000BD872B6074B53F8203043B100205B683B
:1016E0000130002BFBD162B67047002070471846CE
:1016F000F9E700BF9491FF1F30B472B62B4A1378FC
:101700001D0706D52A4B196A002936D0996A002987
:1017100041D053781C0706D5254B196C00293ED0C3
:10172000996C002939D09378190705D5204B196E8B
:10173000002936D0996E89B1D3781B0707D51C4B89
:10174000D3F880207AB3D3F8882011213AB162B659
:10175000184B00221A7030BC00F046BE0D21154C0B
:10176000154D227843F8315003EBC1030830013A9C
:101770005860227062B630BC704704220D4C0F4D89
:10178000217843F8325003EBC20308304A1E5860F8
:10179000227062B6EFE70521E1E70921DFE70822C1
:1017A000ECE70C22EAE71022E8E700BFB84B0000A4
:1017B0000080FF1FBD91FF1FC8004000880040004F
:1017C000431E032B1DD81B4A400140F0100030B4CB
:1017D000104472B6184CE25C032A1BD8DFE802F012
:1017E0000212151703220D88E25410F0080F14BFDF
:1017F000C823882343EA054308310360416062B689
:1018000030BC704708300222EDE70522EBE70830D4
:101810000422E8E7094A52F8230038B1084A52F88E
:101820002300416042F8231062B6E9E742F8231032
:10183000034AF7E70080FF1FCC91FF1F9491FF1F21
:10184000A491FF1F2DE9F04FDFF818B3DFF818A3BC
:1018500087B044E0AD4F4FEA930807EBC809013E5B
:10186000D9F8042003F00803F6B2A2F1080003F04F
:10187000FF04002B40F0018157F838301B0C99B25F
:1018800022F8081C002B00F0EF80A14B22F8064C38
:1018900042F8044C53F82620002A00F0CF819D4DD9
:1018A00055F8263058609C4C45F8260034F8163020
:1018B000194424F8161000F077FD002800F0C281CA
:1018C000964A974B19F0080F00F1080018BF13460D
:1018D000C9F8040047F8383008238BF800309BF82B
:1018E0000040E4B265071CD58E4B1B78B3B18E491E
:1018F0000A7802F0FF0322B1013BDBB20B7003B99F
:1019000000BE8A490A7802F0FF032AB1013BDBB22C
:101910000B70002B00F0688100F046FE04238BF86A
:10192000003004F0080303F0FF02002B00F0C98030
:101930009AF80030DBB21E098CD19A08DFF8CC91FE
:1019400059F8321009EBC200C1F383010139406834
:101950000C2900F28580DFE801F07A7A83838383A3
:1019600083834683838307000168714D4068714F0C
:10197000714E6860296088B240F281610024674B33
:1019800049F832304FF0010E88423C60C9F81040EF
:10199000C9F8184086F800E05C4A00F2E780B0F52C
:1019A000D06F80F01B82B0F5817F00F0D98100F20A
:1019B0006981802800F02A82822840F0D781A98896
:1019C00001F07F01042900F2D1815C485C4A890062
:1019D00008441470547001788C0740F1608382F8D9
:1019E00000E0022173E1534F3A682AB3554B524E3F
:1019F000554819883478057840298E4645F0020804
:101A000028BF4FF0400E002C84F001043470CEEB60
:101A100001010CBF8824C82409EBC80689B285F0EF
:101A2000010544EA0E447260198049F83840724456
:101A30000570002965D03A603D4B1A88B2F5A06F59
:101A40000ED100219A785970404B1A7008E038493D
:101A50003F4C0D68A54200F09880304949F832109B
:101A60003C4A0123137037E72C4A2D4B19F0080F1D
:101A700018BF134647F838302EE700F0B5FC364A59
:101A8000364952F82630002B00F0E38058688C5D10
:101A900042F8260003F10802C9F80420032C05D8F7
:101AA000DFE804F02C02292602228A551A8819F050
:101AB000080F0CBF8823C82343EA024347F8383095
:101AC0000AE7E00700F19380210600F1D180A20728
:101AD00006D5234A234913780220DBB2137008701D
:101AE000E30602D51F4B10221A7007B0BDE8F08F35
:101AF00004228A55DAE705228A55D7E703228A5558
:101B0000D4E7BEF1400F18BF002294E70080FF1F0A
:101B10004091FF1FEC90FF1FF093FF1FC800400093
:101B200088004000C891FF1F5191FF1F3C92FF1F8A
:101B3000B491FF1FE890FF1F5091FF1FC020074086
:101B4000C091FF1FFC90FF1FBC91FF1F9820074012
:101B500021090003942007409491FF1FCC91FF1F9F
:101B6000882007408020074090200740B0F5106F84
:101B700000F07C8140F2A38040F62112904240F0B8
:101B80007B82A54A012313706AE74C68A3498C4203
:101B90007FF463AF0178A9297FF45FAF41784529CD
:101BA0007FF45BAF8178C2297FF457AFC1786B298E
:101BB0007FF453AF9A489B4E0178347881F0010549
:101BC000002C41F0020105700CBF8820C82084F071
:101BD000010449F8310009EBC10193483470002534
:101BE00005244D60047038E700F044FF94E68F4B05
:101BF00089488B491A614FF0020E80F800E08C4F43
:101C00000A708C49196099608B4E8C4D8C4C9A618E
:101C10000D213970FF213170DFF84CE229702270FC
:101C2000884D894A8EF800109F27012406F8047C0D
:101C30005D600470DA6007B0BDE8F08F43F82600FD
:101C4000824D30E6824A47F838001378013313702A
:101C500042E68B5D032B00F2BA8001A252F823F01A
:101C6000D9180000D9180000B91C0000B31C0000EE
:101C70006F49724B80220D2008701A70A2077FF501
:101C80002FAF26E740F20232904240F0ED81AA8861
:101C900002F07F02042A69D86D88002D66D164495C
:101CA000CDF804E0920011440A7842F002020A7072
:101CB000C1E101238B550FE600238B550CE6B0F5EF
:101CC000086F53D16349644A097811707146ED88F1
:101CD0008D4280F0E88252480478402DAE4644F0B0
:101CE000020C28BF4FF0400E02EB0E0309EBCC01B3
:101CF000029301234A604FEA0E48CEEB050101939F
:101D00000025C82242EA080384F0010249F83C3069
:101D100035700270DFF814C1424BDFF8048149BB13
:101D2000BEF1400F7FF42DAF42F0020C09EBCC0363
:101D3000029ADFF8F8E05A608DBB0D0445F0880583
:101D40009DF804304EF83C500A443370047013463A
:101D500040297FF416AF0021404A3B60118010E714
:101D6000AA8802F07F02042A40F28B81304A0F23B6
:101D7000137006E74029D7D942F002020CEBC200EB
:101D8000029E4660BDB19DF8045035481D70334633
:101D9000403988F8004040334CF83200DCE79DF8C9
:101DA000043033700D04029B047045F0C8050B44E9
:101DB0004EF83C50CCE79DF804501D70029B1D4826
:101DC00088F80040403940334CF83200C4E719F03D
:101DD000080F0CBF022303238B557DE521494A6878
:101DE000002AC3D06C88B5F804E003E00C314A68DF
:101DF000002ABBD00B88A342F8D14B887345F5D19C
:101E0000240A032C0CBF1178098960E7124A0221C9
:101E1000147054705BE700BF942007400100040079
:101E2000BC91FF1F5091FF1F5191FF1F0080FF1FAA
:101E3000C0200740880040008820074080200740DD
:101E4000982007400091FF1F5491FF1FEC90FF1F47
:101E5000BD91FF1FC891FF1FC091FF1FFC90FF1F86
:101E6000C8004000BC4B00008C200740B248116AFB
:101E7000AC7804700C0600F19881D9F82820AF499D
:101E8000100600F1DB81D9F83020AC49120600F1D0
:101E9000D081D9F83820A949130600F1C581D9F8B5
:101EA0004020A649150600F1BA81D9F84820A34977
:101EB000140600F1AF81D9F85020A049100600F1B6
:101EC000A481D9F858209D49120600F19981D9F8CA
:101ED00060209A49130600F18E81D9F8682097494D
:101EE000150600F18381D9F870209449140600F199
:101EF0007881D9F878209149100600F16D81D9F8E0
:101F000080208E49120600F16181D9F888208B4922
:101F1000130600F15581D9F890208849150600F183
:101F20004981D9F898208549140600F1FF8084483A
:101F3000844A854901908548854D864C0497002345
:101F40000596029580460F4616461D460394306856
:101F500028B1446800F048FA2046002CF9D100234B
:101F60003360029B38681A46002342F8253028B1B6
:101F7000446800F039FA2046002CF9D100223A607A
:101F8000019A98F800301146002241F8042B039A78
:101F90000191023B4FF0000122F81510032B07D8E6
:101FA000DFE803F05D025D024FF0010388F80030C6
:101FB0000135042D06F1040607F1040708F10108B4
:101FC000C5D1654C654D2278654B049F059E002167
:101FD000100729701A7000F19280624962780A70C5
:101FE0000021C9F83010C9F838101107DFF84C810A
:101FF0006ED4A2785C49DFF844810A700021120790
:10200000C9F85010C9F858104BD4E27857494B4CD6
:102010000A7013074FF00001C9F87010C9F8781062
:1020200000F1AE8033780193002283F00105C9F8F6
:102030009020C9F898200021029188468E460A46D1
:102040004B48047844F0020C09EBCC030393019B4A
:10205000002B039B5A600CBF8822C82252E64FF027
:10206000000388F80030A3E7B0F5A06F7FF47EAEE0
:10207000012300250193DEE740F621229042F7D0AC
:1020800074E66D88002D7FF471AE3A49CDF804E016
:10209000920011440A7822F002020A70CBE7022172
:1020A00015E600F081F9002800F0EB800830324A94
:1020B000C8F86400C8F8602000F076F9002800F045
:1020C000DA8008302D4AC9F86C00C9F868209CE70E
:1020D00000F06AF9002800F0E0800830264AC8F8CD
:1020E0004400C8F8402000F05FF9002800F0CF80DD
:1020F0000830224AC9F84C00C9F8482079E700F0B6
:1021000053F9002800F0A58008301B4AC9F82400C4
:10211000C9F8202000F048F9002800F09480083029
:10212000164AC9F82C00C9F8282056E7D1F89C00B7
:10213000083800F059F9FAE6C891FF1F0080FF1F28
:10214000A491FF1F4091FF1F9491FF1FCC91FF1F8F
:10215000EC90FF1FF093FF1FB84B0000BD91FF1FD5
:10216000C4200740C8200740CC200740D0200740AB
:10217000BC91FF1FC020074088004000C8004000FD
:1021800000F012F9002870D008304F4AC4F88400DB
:10219000C4F8802000F008F9002860D008304B4ACD
:1021A000C9F88C00C9F888203CE7506A083800F06C
:1021B0001BF962E6D1F89400083800F015F9B0E692
:1021C000D1F88C00083800F00FF9A4E6D1F88400AB
:1021D000083800F009F998E6C86F083800F004F9EB
:1021E0008DE6486F083800F0FFF882E6C86E0838C0
:1021F00000F0FAF877E6486E083800F0F5F86CE67B
:10220000C86D083800F0F0F861E6486D083800F055
:10221000EBF856E6C86C083800F0E6F84BE6486C78
:10222000083800F0E1F840E6C86B083800F0DCF848
:1022300035E6486B083800F0D7F82AE6C86A08384F
:1022400000F0D2F81FE62A78C9F8280001322A7077
:10225000C3E62A78C9F8200001322A705AE72A78A2
:10226000C9F8880001322A70DCE62A78C4F88000B8
:1022700001322A708EE72A78C9F8680001322A7084
:10228000C3E62A78C8F8600001322A7014E72A7879
:10229000C9F8480001322A70ABE62A78C8F8400035
:1022A00001322A701FE740298E4628BF4FF0400EAA
:1022B00002EB0E0302930123CEEB01014FEA0E481D
:1022C00000250193BCE600BF88004000C800400024
:1022D000F8B502F077F9294B29482A4C2A4F2B4DA3
:1022E000DFF8BCC0DFF8BCE0294E00221A605A605B
:1022F0009A60DA601A615A619A61DA611A625A6206
:102300009A62DA621A635A639A63DA631A645A64E5
:102310009A64DA641A655A659A65DA651A665A66C5
:102320009A66DA661A675A679A67DA67C3F880208E
:102330000168C3F8842041F480210160C3F30721C0
:102340002170C3F30740134938701B0E2B70FF2315
:102350008CF80030104D8EF8003010480B700123BF
:10236000337084F8642070264FF40074102207F84C
:102370002C3C2E70046081F8F820F8BD0080FF1F0F
:10238000348004409C200740B0200740B420074020
:10239000942007401020074049E400E008E100E0F5
:1023A000802007408820074072B60D480268B2FAC4
:1023B00082F30F2B10DC4FF00041D94022EA0102DA
:1023C000026062B6074803EBC303DB00C2180021BA
:1023D000C15010465160704762B60020704700BF80
:1023E0005888FF1FBC83FF1F0D4B0E4AC31AA2FB68
:1023F00003231B090F2B0CD80B4A127852B972B663
:102400000A484FF00041026821FA03F31A430260C0
:1024100062B67047064A1278002AF0D0FFF76CB90E
:10242000BC83FF1F398EE338BD91FF1F5888FF1F03
:10243000C891FF1F38B50E4B0E4C1B68218805460E
:102440008BB1B1F5917F05D20B4A4B1C55549BB211
:10245000238038BD0022084898470021064A555479
:102460000123238038BDB1F5917FEDD338BD00BF86
:10247000F491FF1FFA93FF1F0094FF1F2DE9F8430B
:10248000214E224F3168012380463B70B1B1204D6F
:102490004B8801EB8302013300240F2BC2F8088024
:1024A0002C7004D84B8000233B70BDE8F883402398
:1024B0000B800320FFF784F93460F4E7DFF85490D1
:1024C00099F80030002BF0D0114D45F6215408E06A
:1024D000013C12D02B7883B900F0AEFD99F80030A2
:1024E0007BB10320FFF7F2F80528F1D8FFF75CFF76
:1024F000014630600028EBD0CAE701232B70BDE80D
:10250000F883BDE8F88300BF1092FF1FE491FF1F1E
:102510001492FF1FC891FF1F12010329F8B50D4641
:10252000D7B216D9C41C47F0040614F8023C14F8BC
:10253000032C14F8010C1B0443EA0223334343EA3F
:102540000060033DFFF79AFF032D204604F10304CA
:10255000EBD8032D0DD0022D1AD0012D00D0F8BDDF
:10256000007847F0050747EA0020BDE8F840FFF78C
:1025700085BF4378027880781B0447F0070743EA59
:1025800002233B4343EA0060BDE8F840FFF776BF13
:10259000437802781B0447F0060043EA02231843FD
:1025A000BDE8F840FFF76ABF38B5084B1C7824B97E
:1025B000074D296809B14B8803B938BD9B000B80D2
:1025C0000320FFF7FDF82C6038BD00BFE491FF1F2A
:1025D0001092FF1F2DE9F041AD4E33680746002BE6
:1025E00000F092801D885A88910803EB8101043223
:1025F000AA428C6842D25A8004F00F064FEA14288F
:10260000A449A6F1080208F00F00C4F30313062A38
:1026100000F101050B701AD9B31E012B5FFA88F087
:102620004ED9052E48D0042E00F0A481731F022B32
:102630007FD90F2E0ED1F72842D8F02802D0964B22
:102640001B883BB1FFF7F6FE0020BDE8F08127B103
:10265000BD4202D00020BDE8F081082EC4F3033350
:1026600000F08780092E11D00A2E40F094800A2BAA
:10267000F0D18A4B8A4A1B68A02181E01846FFF7F7
:10268000B3FE0420FFF704F83060B5E7092BE1D171
:10269000270E00F07B81834B814A1B689021C4F395
:1026A00007461170EDB2FCB2002B00F09D8022466F
:1026B00031462846984797E0F02843D9F72841D07B
:1026C000F1380E28C6D801A353F820F08328000063
:1026D00067280000552800005526000055260000F8
:1026E0004728000055260000272900005526000035
:1026F000F12800000B2900002F28000055260000BB
:1027000017280000FB270000674B1B78002BA1D087
:102710000420FEF7BDFF0346306000289AD00588EC
:10272000002D7FF460AFFFF75FFE35602846BDE8FF
:10273000F081FFF77FFEC4F30740FFF77BFE072E13
:1027400002D1200EFFF776FE534B584A198858489D
:102750001468584D524A017000270E0AF0201F805D
:102760002E7010700CB301225348A0470120BDE821
:10277000F081082B7FF46EAF504B494A1B688021D3
:10278000C4F307461170EDB2240E6BB328462246FF
:102790003146984728E00B2E11D10B2B7FF45AAF0E
:1027A000474B3F4A1B68B021EAE7464B1B68002BAA
:1027B00000F0FB80404898470120BDE8F0810C2ED6
:1027C00040F000810C2B7FF445AF3F4B344A1B682F
:1027D000C0211170EDB2C4F30746002B00F0C88091
:1027E00028463146240E98473849314A314B0D70FE
:1027F00016701C700120BDE8F081354B1B68002B62
:1028000000F0D6809847C4F30746254BEDB2240E5E
:1028100083F80080E8E72F4B1B68002BF2D12E4B8A
:102820001B68A3B1FE209847C4F30746EDE72B4B86
:102830001B68002BE6D1284B1B6843B1FC2098474E
:10284000C4F30746E1E7264B1B68002BDAD1C4F33B
:102850000746DAE7234B1B68C4F30746002BD4D0A6
:1028600030469847D1E7204B1A68002AEFD0260C53
:10287000630C06F07F0003F47E531843F6B29047D2
:10288000C3E71A4B1B68C4F30746002BE8D1BCE72B
:102890001C92FF1FFE93FF1FFA93FF1FF891FF1F6B
:1028A000F893FF1F2C92FF1FC891FF1FF491FF1F89
:1028B000FC93FF1FFD93FF1F0094FF1F2492FF1F37
:1028C0002892FF1F0C92FF1FE891FF1FFF93FF1F2D
:1028D000D491FF1FD891FF1FDC91FF1F1892FF1F9B
:1028E0000892FF1F2092FF1FF091FF1F0492FF1F0D
:1028F0003F4B1B68002B85D13E4B1B68002BA6D09D
:10290000FA209847C4F307467FE73B4B1B68002B30
:102910007FF478AF374B1B68002B98D0FB2098478B
:10292000C4F3074671E7354B1B68002B7FF46AAF91
:10293000304B1B68002B8AD0F8209847C4F3074619
:1029400063E70E2B7FF486AE2D4A2E4B1268E021F2
:102950001970002A47D0260C610C06F07F0301F4A1
:102960007E511943EDB2A1F5005128469047F6B2C9
:10297000240E39E7FFF75EFDC4F30740FFF75AFD69
:10298000200EFFF757FD0020BDE8F0811E4B1D4AC9
:102990001B6880211170EDB2C4F3074683B1314644
:1029A00028463A4698473C461EE70120BDE8F0819C
:1029B000104B1B68002B3FF44AAFFF20984746E7B7
:1029C0001C4611E70D2EBCD10D2B7FF443AE0F4BEF
:1029D0000C4A1B68D0211170EDB2C4F30746002BDE
:1029E0007FF4FEAEC4E7C4F30746EDB2240EFBE667
:1029F0000092FF1FDC91FF1FE091FF1FD091FF1F8E
:102A0000EC91FF1FF893FF1F2492FF1FFC91FF1F03
:102A100038B5164D2868E0B101884488A14213DD1D
:102A200003191B7A83B104F10803C2180C1B00239D
:102A300002E012F8011F21B10133A342F9D120466F
:102A400038BD1C46204638BDFFF7CEFC002028606C
:102A500038BD074B1B780BB9002038BD0220FEF7AC
:102A600017FE28600028D7D1F6E700BF3892FF1F75
:102A7000C891FF1F0D4B1B78BBB910B50C4C2168DA
:102A800003F0FF024B883F2B07DC07330B4401F1B7
:102A9000470003F8012F8342FBD140230B80012024
:102AA000FEF78EFE0023236010BD70473092FF1F9B
:102AB0003492FF1F10B4EFF3108272B6437F33B924
:102AC000017F012907D003290FD00123437702B9E1
:102AD00062B610BC7047124C2168A1B11149436124
:102AE0000B68836108605861EFE70F4C216881B182
:102AF0000E4943610B688361086058610C4B4FF0CD
:102B000080511960E1E7074B4161816120601860E5
:102B1000DBE7064B4161816120601860EEE700BF92
:102B20005092FF1F4C92FF1F4092FF1F4492FF1FC5
:102B300004ED00E010B4047F4160022CC26002D0BA
:102B400010BCFFF7B7BF836810BC184770B5EFF330
:102B5000108272B60C4C206880B10C4E002543697F
:102B6000236073B19D6102B962B645778368984767
:102B7000EFF3108272B620680028F0D102B962B675
:102B800070BD3360EFE700BF4092FF1F4492FF1F0C
:102B9000FFF7DCBF184A30B41468002C27D0036854
:102BA00021688B420ED2CB1A00218460C160236061
:102BB000E06010600223037530BC704711688B42DF
:102BC000144608D3A2685B1A0360002AF6D182601B
:102BD000C460A060EEE7D268C2608460E060C5684F
:102BE000CB1A0222A8602360027530BC7047846053
:102BF000C4601060DEE700BF4892FF1FF8B5224EA8
:102C000034682CB32368002B3AD1204F1D4604E0D2
:102C10003468ECB12368002B32D1A36803B1DD60C6
:102C200020693360036825751B68BB4221D1037F8F
:102C30004560022BC46020D0FFF73CFF6368002B87
:102C4000E6D023602046FFF7A5FF3468002CE1D1D1
:102C5000EFF3108372B60E4A00211068116003B9B9
:102C600062B628B18468FFF795FF20460028F9D1A5
:102C7000F8BD224600219847E0E783689847DDE7E2
:102C8000013B2360E4E700BF4892FF1F352B0000A3
:102C90005892FF1F024A136801331360FFF7AEBF5B
:102CA000E490FF1F0368C9B21B6818470368C9B2E4
:102CB0001B6818470368C9B21B6818470368C9B284
:102CC0001B68184708B5084600F094FC012008BDB1
:102CD00008B5084600F08EFC012008BD38B508464E
:102CE0000D4601F06DFD04460146284600F08CFCBF
:102CF000204638BD10B508461446114600F084FC45
:102D0000204610BD00F05EBD08B5084600F04AFC44
:102D1000003018BF012008BD08B5084600F020FCAF
:102D2000003018BF012008BD0846114600F0B4BBB2
:102D3000084600F0EBBB00BF084600F091BB00BFA7
:102D400000F02CBB4B0803F1376000F5D830B0FB26
:102D5000F1F000F081BA00BF10B54B0803F1376005
:102D6000144600F5D830B0FBF1F000F075FA2046BB
:102D7000BDE8104000F0E6BA00F00CBD00F0D6BC93
:102D800000F0C4BC00F0A4BC00F0AEBC704700BFB3
:102D900008B5084600F08CFF012008BD08B50846BC
:102DA00000F086FF012008BD38B508460D4601F049
:102DB00007FD04460146284600F0D2FF204638BDF4
:102DC00010B508461446114600F0CAFF204610BD53
:102DD00001F0A4B808B5084600F04AFF003018BF5B
:102DE000012008BD08B5084600F020FF003018BFDC
:102DF000012008BD0846114600F0B0BE084600F0AC
:102E0000E7BE00BF084600F08DBE00BF00F028BE40
:102E10004B0803F1376000F5D830B0FBF1F000F05B
:102E20007DBD00BF10B54B0803F13760144600F5B7
:102E3000D830B0FBF1F000F071FD2046BDE8104045
:102E400000F0E2BD01F052B801F01CB801F00AB880
:102E500000F0EABF00F0F4BF0368064A1B68934223
:102E600005D110B5C8B200F023FF012010BDC9B2D2
:102E7000184700BF9D2D00000368064A1B68934257
:102E800005D110B5C8B200F013FF012010BDC9B2C2
:102E9000184700BF9D2D00000368064A1B68934237
:102EA00005D110B5C8B200F003FF012010BDC9B2B2
:102EB000184700BF9D2D00000368064A1B68934217
:102EC00005D110B5C8B200F0F3FE012010BDC9B2A3
:102ED000184700BF9D2D0000704700BF08B5084689
:102EE00001F058FA012008BD08B5084601F052FA71
:102EF000012008BD38B508460D4601F061FC0446C6
:102F00000146284601F050FA204638BD10B5084663
:102F10001446114601F048FA204610BD01F0D4BA1B
:102F200008B5084601F016FA003018BF012008BDA8
:102F300008B5084601F0ECF9003018BF012008BDC3
:102F40000846114601F0BAB9084601F0DFB900BFE2
:102F5000084601F097B900BF01F05AB94B0803F1D8
:102F6000B76000F55840B0FBF1F001F0D5B800BFF4
:102F700010B54B0803F1B760144600F55840B0FB9C
:102F8000F1F001F0C9F82046BDE8104001F014B995
:102F900001F082BA01F04CBA01F03ABA01F01ABA63
:102FA00001F024BA0368064A1B68934205D110B5A4
:102FB000C8B201F0EFF9012010BDC9B2184700BF37
:102FC000E92E00000368064A1B68934205D110B53C
:102FD000C8B201F0DFF9012010BDC9B2184700BF27
:102FE000E92E00000368064A1B68934205D110B51C
:102FF000C8B201F0CFF9012010BDC9B2184700BF17
:10300000E92E00000368064A1B68934205D110B5FB
:10301000C8B201F0BFF9012010BDC9B2184700BF06
:10302000E92E0000704700BF08B5FDF721FAFDF753
:103030002DFE00F001F8FAE738B5224C237803B1F1
:1030400038BD01232370FFF7E3FC70BB00F05EFB8B
:1030500040BB00F007FF10BB01F0DAF9E0B9002334
:103060002370EFF30583002BEAD1EFF3108172B6E2
:10307000154B1868E0B1154C2278CAB945691D6036
:1030800001232370C5B1AA6101B962B60025457755
:10309000836898472570D3E7FFF7C4FFDFE7FFF7A2
:1030A0001BFFD9E7FFF772FED3E701F0CDFACDE7BA
:1030B0000029C5D162B638BD054B1D600029E5D198
:1030C000E3E700BF5C92FF1F5092FF1F5492FF1F67
:1030D0004C92FF1F30B42948294A2A4B2A4D6024BC
:1030E000E121047011701B78284C082B30D00A2B7A
:1030F0002748284937D00C2B0CBF35223D221223FC
:103100002A60236002600B60234B24491B78244A09
:10311000BBB101230B601360224B23491B78234A68
:10312000012B26D9042B0FD9082B1ED9102B94BFA5
:10313000862387230B6013601D4B01221A7030BC5D
:1031400070470B601360E7E784230B601360F3E7BD
:1031500000F58E200F490830012213232A602360D6
:1031600002600B60D0E73922F7E785230B6013601C
:10317000E2E780230B601360DEE700BF00400740FA
:10318000014007408C88FF1F08B003400CB003408B
:1031900008B00B400CB00B405E92FF1F20B0034004
:1031A00020B00B408D88FF1F24B0034024B00B409B
:1031B0005D92FF1F2DE9F84F214B1B6807460BB1AD
:1031C00001221A70DFF888901E4D99F80040DFF850
:1031D00084801D4E01343F2C8ABF4FF0000A5FFAF5
:1031E00084FA5446AB462B78A34216D1FEF7F8F882
:1031F00040281FDC33791B06F5D59BF800300133DE
:103200003F2B86BF00221346DAB218F80330DBB238
:10321000F3712A702B78A342E8D00C490A4BFFB215
:1032200008F804700120BC22087089F800A0DA7048
:10323000BDE8F88FFF28D6DDFFF7FEFED3E700BF1D
:10324000F092FF1FED92FF1F00A00640EC92FF1FBF
:10325000F492FF1F6892FF1F2B4A2C491368F0B5A8
:1032600043F4806313600A78294F2A4E2A4D2B4C71
:103270002B4900233B7033702B7023700B70002A96
:103280003DD0152A21D0274B1B78012B25D0052BAB
:1032900030D01F2827D8002002460125224B234C7E
:1032A0001A7023495D7004224FF0020E88273C26D5
:1032B000402598729A704FF4005083F813E05A75C5
:1032C0001F74DE7025700860F0BD1A4B40F2133297
:1032D0001A60144B1B78012BD9D1174B4FF4517244
:1032E0001F281A60D7D9C0F34432C0F3471500F045
:1032F0001F00D3E7114B4FF451721A60C9E7104B0E
:1033000040F213321A60BEE734800440A892FF1FD7
:103310006492FF1F6592FF1FF492FF1FED92FF1F43
:10332000EC92FF1F8E88FF1F00A006402DE400E0F6
:1033300004E100E018C0044044A004401CC0044064
:1033400040A00440144B14499B7803F0EC0200F0B9
:1033500003031343420700F00F0248BF43F010037A
:10336000042A8B7013D00C4B0B4A5B79C10603F017
:10337000EF0348BF43F0100353719379820603F0C3
:10338000EF03054A48BF43F01003937170478B79F0
:1033900043F040038B71E6E700A00640234B1B6817
:1033A0005B0541D510B5224C237823B1FFF744FECD
:1033B0002378002BFAD11F481F4A204B4FF40054AA
:1033C00000210460D1701B78FBB1152B03D11C4B7D
:1033D00040F203121A601B4B1B7803F07F03012B92
:1033E0001DD0052B03D1184B40F203121A60174A67
:1033F000114B1748174912681C79DB7900230370B9
:103400000B700AB10123137010BD134B40F203126D
:103410001A600C4B1B7803F07F03012BE1D10F4B9B
:1034200040F203121A60E2E7704700BF34800440A4
:10343000EC92FF1F84E100E000A00640A892FF1F6D
:1034400018C004408E88FF1F1CC004406092FF1FFC
:103450006492FF1F6592FF1F40A0044044A00440F7
:103460000A4A38B50546137803F0FF04002BFAD159
:1034700001212846FEF748F821462846FEF73EF887
:10348000034A044B52F835201A6038BDEC92FF1FF6
:1034900088490000F092FF1F09B140F08000174AF0
:1034A0001378984216D010B4154C246864050FD5D3
:1034B00003F07F03012B1CD0052B11D0002900F055
:1034C0007F0114BF6023442301290DD0052902D0B8
:1034D000107010BC70470B4943F440730B60F7E762
:1034E000084B00241C60E9E7074943F440730B6074
:1034F000EEE7054B00241C60E0E700BF8E88FF1F4D
:10350000348004401CC0044044A00440104B1A788E
:1035100082420AD00F490968490505D5AAB1152A82
:1035200009D068B1152801D0187070470A4A40F2D6
:1035300013311160F8E7084A002111600028F1D129
:10354000064A40F213311160EEE704490A60E8E7E9
:10355000A892FF1F3480044018C0044040A00440DB
:103560000D4B1B6813F4806305D0212805D90B4B44
:1035700000201860704718467047094B10B5074C7B
:1035800053F8303023600121FDF7BEFF236800228D
:103590001A70012010BD00BF348004406092FF1FEC
:1035A000884900000F4B1B6813F4806308D0122871
:1035B00008D0142811D00C4A537B03F0FE03537338
:1035C00000207047094B40F202321A60064A537BD2
:1035D00043F00103537301207047054B40F2023260
:1035E0001A60F3E73480044000A006400CA00440B9
:1035F00014C00440034B1B685B0501D5FFF7DABD1F
:10360000704700BF348004402DE9F84F294B1B68F8
:103610005A0548D5284B1B6805460BB101221A7084
:1036200005EB010A554540D2DFF89C80234CDFF8BA
:103630009C90234F0AE015F8012B09F80B20214A32
:103640000123AA45137088F800602ED098F8003046
:10365000227803F1010BBBF13F0F86BF0026B34672
:103660005FFA8BF69345E6D1BC22FA7005E03A7911
:1036700013060BD422789345DDD1FDF7B1FE402827
:10368000F5DDFF28F6DDFFF7D7FCF3E722780132FE
:103690003F2A86BF00210A46D1B219F80220D2B2D1
:1036A000FA712170E6E7BDE8F88F054BBC22DA70AD
:1036B000BDE8F88F34800440F092FF1FED92FF1FA9
:1036C00000A00640EC92FF1FF492FF1F6892FF1FBC
:1036D00010B5044C237823B1FFF7AEFC2378002B00
:1036E000FAD110BDEC92FF1F064A074B1B781078E9
:1036F000DBB2C0B283422CBF3F3000F1FF30C01AB2
:10370000704700BFED92FF1FF492FF1F054A064B62
:1037100010781B78C0B2DBB2984238BF4030C01A74
:10372000704700BF6492FF1F6592FF1F30B4154BB6
:10373000154C1A782378D2B2DBB29A421ED00133EC
:103740003F2B0ED91149124B087819680023C0B2DB
:10375000237021B1D31A1A2B01DC00230B7030BC6B
:1037600070470A480A49C05C0968DDB2C0B22570DA
:103770000029F4D09A4238BF4032EBE74FF0FF30D7
:10378000EDE700BF6492FF1F6592FF1FAC92FF1F21
:103790006092FF1F084A094B12781B78DBB29A42ED
:1037A00007D00133402B28BF0023054AD05CC0B2AC
:1037B00070474FF0FF3070476492FF1F6592FF1F04
:1037C000AC92FF1F0D4B1B685B0516D530B40C4B3C
:1037D0000C4CDA780C480D4902F0CB024025DA7027
:1037E0005D74DA7842F03402DA7023780268DBB272
:1037F0000B700AB10023137030BC70473480044052
:1038000000A006406592FF1F6092FF1F6492FF1F99
:10381000F0B4384B1A7912F0300F2CD072B6997D73
:1038200001F0FF0200293DD062B6334F33493878AA
:103830000D78334E1C46C0B2EDB2431C402BE179EB
:1038400028BF0023AB4202F1FF32C9B21CBFF154C2
:10385000184612F0FF02F0D12A4B1B68C2B23A7030
:103860004BB1A84236BFC5F14005401B401927287F
:10387000C4BF01221A701F49CA78D2B2150616D4E5
:1038800052060DD51B4B1B795B0609D51E4B1F49F4
:103890001B6800220A7003B11A70164B3C22DA70C2
:1038A000F0BC70474022D9795A7462B6E3E70B79CD
:1038B0001C06E5D5164B174E1C783378E4B2DBB204
:1038C0009C420ED0144D01E0A3420AD00133402B9C
:1038D00028BF00230879E85CC0B2C871087D0728BA
:1038E000F2D9DBB2034933700B79180644BF7C234D
:1038F000CB70C5E700A006406492FF1F6592FF1FD2
:10390000AC92FF1F6092FF1FF092FF1FEC92FF1F0F
:10391000F492FF1FED92FF1F6892FF1F2B4A2C4964
:103920001368F0B543F4006313600A78294F2A4EF8
:103930002A4D2B4C2B490023092A3B7033702B70E6
:1039400023700B703DD01A2A21D0274B1B780A2BED
:1039500025D01F2B30D01F2827D800200246012554
:10396000224B234C1A7023495D7004224FF0020E43
:1039700088273C26402598729A704FF4004083F8BF
:1039800013E05A751F74DE7025700860F0BD1A4B85
:1039900040F213321A60144B1B780A2BD9D1174B03
:1039A0004FF451721F281A60D7D9C0F34432C0F3C4
:1039B000471500F01F00D3E7114B4FF451721A6006
:1039C000C9E7104B40F213321A60BEE7348004405E
:1039D0008F88FF1F6893FF1FFD92FF1F7093FF1FCB
:1039E0006993FF1FFC92FF1F9088FF1F00B00640E5
:1039F0002FE400E004E100E004D0044010B00440F3
:103A000000D004400CB00440144B14499B7803F0E0
:103A1000EC0200F003031343420700F00F0248BF1B
:103A200043F01003042A8B7013D00C4B0B4A5B79C4
:103A3000C10603F0EF0348BF43F0100353719379BD
:103A4000820603F0EF03054A48BF43F01003937169
:103A500070478B7943F040038B71E6E700B0064076
:103A6000234B1B681B0542D510B5224C237823B18C
:103A7000FFF7E2FA2378002BFAD11F481F4A204BA8
:103A80004FF4004400210460D1701B78092B1FD033
:103A90001A2B03D11B4B40F203121A601A4B1B78EE
:103AA00003F07F030A2B1DD01F2B03D1174B40F2CD
:103AB00003121A60164A114B1648174912681C79EE
:103AC000DB79002303700B700AB10123137010BD62
:103AD000124B40F203121A600B4B1B7803F07F036A
:103AE0000A2BE1D10E4B40F203121A60E2E7704755
:103AF00034800440FC92FF1F84E100E000B00640E7
:103B00008F88FF1F04D004409088FF1F00D004401E
:103B1000F892FF1F6893FF1FFD92FF1F0CB0044037
:103B200010B004400A4A38B50546137803F0FF0484
:103B3000002BFAD101212846FDF7E6FC2146284654
:103B4000FDF7DCFC034A044B52F835201A6038BDFF
:103B5000FC92FF1F884900006C93FF1F09B140F0E1
:103B60008000174A1378984216D010B4154C246878
:103B700024050FD503F07F030A2B1CD01F2B11D077
:103B8000002900F07F0114BF602344230A290DD0CF
:103B90001F2902D0107010BC70470B4943F44073CA
:103BA0000B60F7E7084B00241C60E9E7074943F482
:103BB00040730B60EEE7054B00241C60E0E700BF9C
:103BC0009088FF1F3480044000D0044010B00440AF
:103BD000124B1A7882420CD011490968090507D5A1
:103BE000092A16D01A2A0AD009280DD01A2801D07D
:103BF000187070470B4A40F213311160F8E7094A18
:103C0000002109281160F1D1074A40F213311160F7
:103C1000EEE7054A00211160E6E700BF8F88FF1F2D
:103C20003480044004D004400CB004400D4B1B68A9
:103C300013F4006305D0212805D90B4B0020186030
:103C4000704718467047094B10B5074C53F8303091
:103C500023600121FDF758FC236800221A7001201F
:103C600010BD00BF34800440F892FF1F8849000057
:103C70000C4B1B6813F4006306D0172806D00A4AC1
:103C8000537B03F0FE03537300207047074B064A33
:103C900040F202311960537B43F00103537301205A
:103CA000704700BF3480044000B0064008B00440B4
:103CB0002DE9F84F234B1B681A053BD5224B1B6897
:103CC0000BB101221A70DFF89090204D99F8004056
:103CD000DFF888801E4E0134272C8ABF4FF0000A7F
:103CE0005FFA84FA54460746AB462B789C4216D1BD
:103CF000FDF776FB40281FDC33791B06F5D59BF8D2
:103D000000300133272B86BF00221346DAB218F8A1
:103D10000330DBB2F3712A702B789C42E8D00D4956
:103D20000B4BFFB20120BC2208F80470087089F820
:103D300000A0DA70BDE8F88FFF28D6DDFFF77CF928
:103D4000D3E700BF348004406C93FF1F6993FF1FCB
:103D500000B00640FC92FF1F7093FF1F0093FF1FEF
:103D60002DE9F84F294B1B681A0548D5284B1B68CD
:103D700005460BB101221A7005EB010A554540D2E8
:103D8000DFF89C80234CDFF89C90234F0AE015F865
:103D9000012B09F80B20214A0123AA45137088F84A
:103DA00000602ED098F80030227803F1010BBBF1AF
:103DB000270F86BF0026B3465FFA8BF69345E6D100
:103DC000BC22FA7005E03A7913060BD422789345A9
:103DD000DDD1FDF705FB4028F5DDFF28F6DDFFF717
:103DE0002BF9F3E722780132272A86BF00210A4601
:103DF000D1B219F80220D2B2FA712170E6E7BDE81B
:103E0000F88F054BBC22DA70BDE8F88F348004408F
:103E10006C93FF1F6993FF1F00B00640FC92FF1FC9
:103E20007093FF1F0093FF1F10B5044C237823B13C
:103E3000FFF702F92378002BFAD110BDFC92FF1F87
:103E4000064A074B1B781078DBB2C0B283422CBF06
:103E5000273000F1FF30C01A704700BF6993FF1F81
:103E60007093FF1F054A064B10781B78C0B2DBB277
:103E7000984238BF4030C01A704700BF6893FF1F98
:103E8000FD92FF1F30B4154B154C1A782378D2B22F
:103E9000DBB29A421ED001333F2B0ED91149124B8F
:103EA000087819680023C0B2237021B1D31A1A2BE5
:103EB00001DC00230B7030BC70470A480A49C05C23
:103EC0000968DDB2C0B225700029F4D09A4238BF2B
:103ED0004032EBE74FF0FF30EDE700BF6893FF1F84
:103EE000FD92FF1F2893FF1FF892FF1F084A094BFE
:103EF00012781B78DBB29A4207D00133402B28BFDF
:103F00000023054AD05CC0B270474FF0FF307047C5
:103F10006893FF1FFD92FF1F2893FF1F0D4B1B6827
:103F20001B0516D530B40C4B0C4CDA780C480D49F7
:103F300002F0CB024025DA705D74DA7842F0340288
:103F4000DA7023780268DBB20B700AB100231370B9
:103F500030BC70473480044000B00640FD92FF1F23
:103F6000F892FF1F6893FF1FF0B4384B1A7912F0D4
:103F7000300F2CD072B6997D01F0FF0200293DD0A0
:103F800062B6334F334938780D78334E1C46C0B291
:103F9000EDB2431C402BE17928BF0023AB4202F174
:103FA000FF32C9B21CBFF154184612F0FF02F0D123
:103FB0002A4B1B68C2B23A704BB1A84236BFC5F15A
:103FC0004005401B40192728C4BF01221A701F4911
:103FD000CA78D2B2150616D452060DD51B4B1B79E2
:103FE0005B0609D51E4B1F491B6800220A7003B1EE
:103FF0001A70164B3C22DA70F0BC70474022D97917
:104000005A7462B6E3E70B791C06E5D5164B174EDA
:104010001C783378E4B2DBB29C420ED0144D01E040
:10402000A3420AD00133282B28BF00230879E85C7B
:10403000C0B2C871087D0728F2D9DBB203493370DA
:104040000B79180644BF7C23CB70C5E700B006404F
:104050006893FF1FFD92FF1F2893FF1FF892FF1F19
:104060006C93FF1FFC92FF1F7093FF1F6993FF1F4C
:104070000093FF1F2DE9F84F214B1B6807460BB13A
:1040800001221A70DFF888901E4D99F80040DFF881
:1040900084801D4E0134272C8ABF4FF0000A5FFA3E
:1040A00084FA5446AB462B78A34216D1FDF798F913
:1040B00040281FDC33791B06F5D59BF8003001330F
:1040C000272B86BF00221346DAB218F80330DBB282
:1040D000F3712A702B78A342E8D00C490A4BFFB247
:1040E00008F804700120AC22087089F800A0DA708A
:1040F000BDE8F88FFF28D6DDFEF79EFFD3E700BFAF
:10410000E893FF1FE593FF1F00C00640E493FF1FE5
:10411000EC93FF1F7C93FF1F1C4BDFF894C01A68C1
:104120001B49F0B542F480521A4D1A60DFF884E062
:10413000194F1A4E1A4C00238CF800304FF451726C
:104140002B701F2840F213358EF800303B7033700F
:1041500025600A6012D819460124124A124D1170C6
:104160001248547000212C27402693724FF40034DB
:1041700091701174D7702E700460F0BDC0F344319B
:10418000C0F3471400F01F03E7E700BF348004408A
:104190000CC004407993FF1FE593FF1FE493FF1FBA
:1041A00008C0044000C0064031E400E004E100E043
:1041B0007893FF1FEC93FF1F144B14499B7803F077
:1041C000EC0200F003031343420700F00F0248BF64
:1041D00043F01003042A8B7013D00C4B0B4A5B790D
:1041E000C10603F0EF0348BF43F010035371937906
:1041F000820603F0EF03054A48BF43F010039371B2
:1042000070478B7943F040038B71E6E700C00640AE
:10421000F8B5134B1B68DB041FD5124C237823B170
:10422000FEF70AFF2378002BFAD10F4B0F4A104DEF
:10423000104F114E114C12484FF4003119600023F9
:10424000D37040F203113960316029681579D27951
:104250002370037011B101230B70F8BDF8BD00BFCE
:1042600034800440E493FF1F84E100E000C0064076
:104270007493FF1F08C004400CC004407893FF1FD4
:104280007993FF1F0A4A38B50546137803F0FF04F7
:10429000002BFAD101212846FDF736F921462846A0
:1042A000FDF72CF9034A044B52F835201A6038BD4B
:1042B000E493FF1F88490000E893FF1F09B140F015
:1042C00080000F4A1378984219D010B40D4C24681E
:1042D000E40412D503F07F03082B02D10A4B00241B
:1042E0001C60002900F07F0314BF60214421082BCB
:1042F00003D1054B41F440711960107010BC704738
:104300009188FF1F348004400CC00440704700BFF8
:104310000D4B1B6813F4805305D0212805D90B4B96
:1043200000201860704718467047094B10B5074CBD
:1043300053F8303023600121FDF7E6F823680022AE
:104340001A70012010BD00BF348004407493FF1F19
:10435000884900000C4B1B6813F4805306D00E28CC
:1043600006D00A4A537B03F0FE03537300207047C4
:10437000074B064A40F202311960537B43F00103B8
:1043800053730120704700BF3480044000C00640D2
:1043900004C00440034B1B68DB0401D5FFF76ABE71
:1043A000704700BF3480044070B5094E044645187C
:1043B000AC4204F101040AD03368DB04F8D514F8E8
:1043C000010CFFF757FEAC4204F10104F4D170BDBB
:1043D0003480044010B5044C237823B1FEF72CFE42
:1043E0002378002BFAD110BDE493FF1F064A074B38
:1043F0001B781078DBB2C0B283422CBF273000F1AB
:10440000FF30C01A704700BFE593FF1FEC93FF1FFA
:10441000054A064B10781B78C0B2DBB2984238BF11
:104420004030C01A704700BF7893FF1F7993FF1F79
:1044300030B4154B154C1A782378D2B2DBB29A42BD
:104440001ED001333F2B0ED91149124B0878196841
:104450000023C0B2237021B1D31A1A2B01DC002330
:104460000B7030BC70470A480A49C05C0968DDB26D
:10447000C0B225700029F4D09A4238BF4032EBE731
:104480004FF0FF30EDE700BF7893FF1F7993FF1FD8
:10449000A493FF1F7493FF1F084A094B12781B78DF
:1044A000DBB29A4207D00133402B28BF0023054AD4
:1044B000D05CC0B270474FF0FF3070477893FF1F59
:1044C0007993FF1FA493FF1F054B064A1B780649EB
:1044D0001268DBB20B700AB100231370704700BF83
:1044E0007993FF1F7493FF1F7893FF1F30B42B4BFA
:1044F0001A7994061FD52A48DA79037829490133B5
:104500003F2B0978C8BF00238B42D2B203D0264C80
:10451000D9B2E2540170254A116861B1244A127877
:10452000D2B2934236BFC2F140029B1A9B18272B8E
:10453000C4BF01230B70194AD378DBB2180611D41B
:104540005A060DD5154B1B795B0609D5194B1A492F
:104550001B6800220A7003B11A70104B2C22DA700B
:1045600030BC704711790906EAD5144910480C7817
:104570000178C9B28C420DD04A1C272A84BF002181
:104580000A460F4D054C98BFD1B2AA5CD2B2E27177
:104590000170D5E76C21D170D2E700BF00C00640A2
:1045A0007893FF1F7993FF1FA493FF1F7493FF1F3E
:1045B000E593FF1FE893FF1FE493FF1FEC93FF1F9A
:1045C0007C93FF1F70B584B072B6194B194D1A4811
:1045D000702241260F2480211A702E701A46047012
:1045E000197013781B06FCD5144B186862B6144B6F
:1045F000144C984298BF00EB800001A998BF40007E
:104600000A2200F023F801A92046002311F8012B0B
:1046100001333AB10A2B20F8022FF7D11623237069
:1046200004B070BD5B00DBB2237004B070BD00BF8E
:10463000000002400700024006000240080002405D
:104640007F969800BC89FF1F704700BFF0B44D1ED5
:104650002E46002400E00134B0FBF2F302FB13000D
:10466000092800F130078ABF3730F8B2C0B206F827
:10467000010F1846002BEED10A1953704CB1107877
:1046800015F8016F28700133E01A834202F80169BE
:10469000F5DB0846F0BC70470B460146184600F0B3
:1046A00001B800BF13460A460146022000F0F6B8E2
:1046B00070B50F4E0F4D761BB61018BF002405D0F5
:1046C000013455F8043B9847A642F9D10A4E0B4DE8
:1046D000761B00F0ABFAB61018BF002406D00134E8
:1046E00055F8043B9847A642F9D170BD70BD00BF94
:1046F000384C0000384C0000444C0000384C00009E
:1047000070B4840746D0541E002A41D0CDB203466F
:1047100002E0621EE4B3144603F8015B9A07F8D185
:10472000032C2ED9CDB245EA05250F2C45EA0545C7
:1047300019D903F110022646103E0F2E42F8105CE4
:1047400042F80C5C42F8085C42F8045C02F110028A
:10475000F2D8A4F1100222F00F0204F00F0410327C
:10476000032C13440DD91E462246043A032A46F868
:10477000045BFAD8221F22F003020432134404F02F
:1047800003042CB1C9B21C4403F8011BA342FBD1A2
:1047900070BC704714460346C2E700BFFFFFFFFF2F
:1047A000FFFFFFFFFFFFFFFFFFFFFFFFFFFFFFFF19
:1047B000FFFFFFFFFFFFFFFFFFFFFFFFFFFFFFFF09
:1047C00090F800F06DE9024520F007016FF0000C51
:1047D00010F0070491F820F040F049804FF00004F9
:1047E0006FF00700D1E9002391F840F000F10800D4
:1047F00082FA4CF2A4FA8CF283FA4CF3A2FA8CF30C
:104800004BBBD1E9022382FA4CF200F10800A4FA72
:104810008CF283FA4CF3A2FA8CF3E3B9D1E90423C6
:1048200082FA4CF200F10800A4FA8CF283FA4CF3FD
:10483000A2FA8CF37BB9D1E9062301F1200182FAB7
:104840004CF200F10800A4FA8CF283FA4CF3A2FABD
:104850008CF3002BC6D0002A04BF04301A4612BACB
:10486000B2FA82F2FDE8024500EBD2007047D1E9CE
:10487000002304F00305C4F100004FEAC50514F05D
:10488000040F91F840F00CFA05F562EA05021CBF2E
:1048900063EA050362464FF00004A9E72DE9F047FB
:1048A000254C2568D5F848410646884692469946E3
:1048B000C4B360681F2817DC431C76B104EB800585
:1048C0000122C5F888A0D4F8881182401143022E35
:1048D000C4F88811C5F808911ED00230636044F80E
:1048E00020800020BDE8F087144B03B34FF4C8705C
:1048F000AFF300800446D0B1D5F84831002780E8F6
:104900008800C5F8484138460123C4F88871C4F8C6
:104910008C71002EE1D0D1E7D4F88C110A43C4F891
:104920008C21DAE705F5A674C5F84841C1E74FF0D8
:10493000FF30BDE8F08700BF284C000000000000F9
:10494000024B13B1024800F005B8704700000000A8
:1049500061490000002301461A461846FFF79EBF32
:1049600038B5074D074C2C1BA41005D0013C55F859
:10497000043D9847002CF9D1BDE8384000F062B9F9
:1049800000000000000000004008FE4340A004407A
:104990004408FE4344A004400018FE4300C0044005
:1049A0003000FE43309004403400FE433490044015
:1049B0001C18FE431CC004401018FE4310C00440E5
:1049C0000818FE4308C004400C18FE430CC0044005
:1049D0000C10FE430CB004401010FE4310B0044015
:1049E0001810FE4318B004401C10FE431CB00440D5
:1049F0001410FE4314B004400418FE4304C00440E5
:104A00000010FE4300B004400008FE4300A0044034
:104A10000408FE4304A004400C08FE430CA004401C
:104A20000808FE4308A004401418FE4314C00440C4
:104A30001818FE4318C004400410FE4304B004409C
:104A40000810FE4308B004401400FE4314900440D4
:104A50004C08FE434CA004400420FE4304D0044014
:104A60002410FE4324B004402010FE4320B0044034
:104A70002810FE4328B004402C10FE432CB0044004
:104A80000020FE4300D004404808FE4348A00440F4
:104A90001000FE43109004400000000000000000E1
:104AA000D12C0000F52C0000892D0000852D000080
:104AB000812D00007D2D0000792D0000452D000086
:104AC000592D0000412D0000392D0000312D00002E
:104AD000292D0000192D0000092D0000052D0000D2
:104AE000A52C0000AD2C0000B52C0000BD2C000052
:104AF000DD2C0000C52C00000000000000000000BC
:104B00009D2D0000C12D0000552E0000512E0000EB
:104B10004D2E0000492E0000452E0000112E0000F1
:104B2000252E00000D2E0000052E0000FD2D00009A
:104B3000F52D0000E52D0000D52D0000D12D000041
:104B4000792E0000992E0000B92E0000592E000089
:104B5000A92D0000912D00000000000000000000C1
:104B6000E92E00000D2F0000A12F00009D2F000056
:104B7000992F0000952F0000912F00005D2F00005D
:104B8000712F0000592F0000512F0000492F000005
:104B9000412F0000312F0000212F00001D2F0000A9
:104BA000C52F0000E52F000005300000A52F0000F4
:104BB000F52E0000DD2E000015191519000100006A
:104BC0009488FF1F1200000000020000C088FF1F31
:104BD000D3000000002201009489FF1F2100000083
:104BE000002101007C89FF1F090000000003000074
:104BF000B889FF1F0000000001030904A888FF1FF7
:104C000000000000020309044488FF1F00000000A8
:104C100003030904BC89FF1F00000000000000001E
:104C20000000000000000000D889FF1FF8B500BF99
:104C3000F8BC08BC9E46704741490000350400009E
:044C4000FD12000061
:044C4400F8B500BF00
:104C48000000000012034D00490044004900200004
:104C58003300780033000000FFFFFFFFA04A000088
:104C680000000000E803000000000000004B000006
:104C780000000000E803000000000000604B000096
:104C880000000000E8030000000000000A04010919
:104C98000A0800001201100100000040C016850437
:104CA80011020102030100001803540065006500A9
:104CB8006E00730079006400750069006E006F0073
:104CC8000902D300020100C03209040000020103F6
:104CD800000007240100017F0006240201010006EC
:104CE800240202020009240301030102010009242D
:104CF8000302040101010006240201050006240242
:104D08000206000924030107010601000924030221
:104D18000801050100062402010900062402020A0E
:104D280000092403010B010A0100092403020C01F4
:104D3800090100062402010D00062402020E0009E2
:104D48002403010F010E01000924030210010D01C3
:104D580000090504024000000000082501040105BF
:104D6800090D09058302400000000008250104031D
:104D7800070B0F09040100020300000009211101BB
:104D880000012221000705810340000107050203F5
:104D98002000020006C9FF0904A15C750815002659
:104DA800FF009540097581029520097691029504C6
:104DB8000976B102C0000000040309040C030000D6
:104DC80000000000000000000000000000000000DB
:104DD800000000000000000000000000C48CFF1F5D
:104DE8002C8DFF1F948DFF1F0000000000000000A5
:104DF80000000000000000000000000000000000AB
:104E0800000000000000000000000000000000009A
:104E1800000000000000000000000000000000008A
:104E2800000000000000000000000000000000007A
:104E3800000000000000000000000000000000006A
:104E4800000000000000000000000000000000005A
:104E5800000000000000000000000000000000004A
:104E6800000000000000000000000000000000003A
:104E7800000000000000000000000000000000002A
:104E880001000000000000000E33CDAB34126DE6C7
:104E9800ECDE05000B000000000000000000000030
:104EA80000000000000000000000000000000000FA
:104EB80000000000000000000000000000000000EA
:104EC80000000000000000000000000000000000DA
:104ED80000000000000000000000000000000000CA
:00000001FF
