:0200000460009A
:100000004643464200000156000000000103030081
:1000100000000000000000000000000000000000E0
:1000200000000000000000000000000000000000D0
:1000300000000000000000000000000000000000C0
:1000400000000000010408000000000000000000A3
:100050000000800000000000000000000000000020
:100060000000000000000000000000000000000090
:100070000000000000000000000000000000000080
:10008000EB04180A063204260000000000000000FD
:10009000050404240000000000000000000000002F
:1000A0000000000000000000000000000000000050
:1000B0000604000000000000000000000000000036
:1000C0000000000000000000000000000000000030
:1000D00020041808000000000000000000000000DC
:1000E0000000000000000000000000000000000010
:1000F0000000000000000000000000000000000000
:10010000D8041808000000000000000000000000F3
:100110000204180804200000000000000000000095
:1001200000000000000000000000000000000000CF
:10013000600400000000000000000000000000005B
:1001400000000000000000000000000000000000AF
:10015000000000000000000000000000000000009F
:10016000000000000000000000000000000000008F
:10017000000000000000000000000000000000007F
:10018000000000000000000000000000000000006F
:10019000000000000000000000000000000000005F
:1001A000000000000000000000000000000000004F
:1001B000000000000000000000000000000000003F
:1001C000000100000010000001000000000000001D
:1001D000000001000000000000000000000000001E
:1001E000000000000000000000000000000000000F
:1001F00000000000000000000000000000000000FF
:10020000FFFFFFFFFFFFFFFFFFFFFFFFFFFFFFFFFE
:10021000FFFFFFFFFFFFFFFFFFFFFFFFFFFFFFFFEE
:10100000D10020434D1600600000000000000000E9
:10101000201000600010006000400260000000002E
:1010200000000060004C020000000000FFFFFFFF16
:10103000FFFFFFFFFFFFFFFFFFFFFFFFFFFFFFFFC0
:10104000FFFFFFFFFFFFFFFFFFFFFFFFFFFFFFFFB0
:10105000FFFFFFFFFFFFFFFFFFFFFFFFFFFFFFFFA0
:10106000FFFFFFFFFFFFFFFFFFFFFFFFFFFFFFFF90
:10140000814205D051F8043B40F8043B8242F9D8B0
:10141000704700BF044A05494FF0000342F8043BFF
:101420009142FBD8704700BFC06A002040F3002003
:101430002DE98848BFF34F8F00BF00BF00BF00BF3A
:1014400000F0F6FF684B0822C3F8542100BF00BF2C
:1014500000BF00BF00BF00BF00BF00BF00BF00BF94
:1014600000BF00BF00BF00BF00BF00BF5F4A6049B0
:101470006048FFF7C5FF604A60496148FFF7C0FF59
:10148000604CFFF7C7FF4FF470004FF0E0210023DE
:101490005D4AC1F8880D44F823200133B02BFAD1FE
:1014A0005A4B80215A4A03F8011B9342FBD14FF05B
:1014B000E0254D4E4FF08039DFF884B1DFF884A18C
:1014C0004FF0FF31C5F8084D0027C6F80491C6F863
:1014D00000B1C6F8F490C6F8F0A0D5F8243DDFF8C6
:1014E000688143F4E0234B4AC5F8243DD8F81C300A
:1014F00023F07F0343F04003C8F81C30D8F82430B1
:1015000023F07F0343F04003C8F824309166D1668E
:101510001167516700F094FF3F4B4049A363404B74
:10152000E36363236B610323AF612B613D4BC5F81C
:10153000203DD5F8FC3D43F08073C5F8FC3D3A4BA7
:101540001A6842F001021A605B680B6001F0C2F990
:10155000C6F804913548C6F800B1C6F8F490C6F84C
:10156000F0A001F065FBD8F86C10314B314A41F422
:101570004051C8F86C101F60C3F80871C3F81871A7
:10158000C3F82871C3F83871936BDB0708D442F6AF
:101590001563294951651365936B43F00103936308
:1015A000244A264C936843F00113936000F0D0FF67
:1015B00001F0F4FA01F02CFB01F0BAF900F03AFF67
:1015C0002368132BFCD901F04BFA2368B3F5967FFF
:1015D000FBD300F033FF00F02FFF01F035FB01F0EB
:1015E00013FB30BFFDE700BF00800D40889E010067
:1015F000D834006000000000C06A002064D301609D
:1016000000000020006800201160010000E400E0FC
:10161000A0E400E000C00A40394D010050F0002075
:101620003D4D010000002020001000E00046C323D3
:101630000040084000400D400000C05654F000201B
:101640001B1018200C0D111300C00F40054B4FF458
:101650002A01054A05485A641864054A9963954663
:10166000FFF7E6FE00C00A40FFAAAAAA0700200072
:10167000000006201BB9124B1B6F9B041ED400F008
:101680003F000F4B22F0604221F0604140F489108E
:101690001867C3F88010C3F890201A6F22F48052A4
:1016A0001A671A6F002AFCDAD3F87011054A0A404B
:1016B000C3F870211A6F22F480321A67704700BF96
:1016C00000800D40FF7F7FFF07EE901ADFED196A63
:1016D00010F4C01FB8EE677A07EE902A00F07F0280
:1016E000F8EE677A87EE270A07EE902AC0F3C14228
:1016F000F8EEE77A30EE270A20EE260A08D1F5EE5A
:10170000007A20EE270A012B0AD0032B0DD0704758
:10171000012AF8D1F6EE007A012B20EE270AF4D147
:10172000F6EE007A20EE270A7047F5EE007A20EEFA
:10173000270A7047001BB74BDFED5D7AB4EEE70A6E
:101740002DE9F043F1EE10FA83B004460E4615463B
:101750000A980CDCDFED577AB4EEE70AF1EE10FAE6
:1017600040F39480B1EE006A4122042703E0B0EE1A
:10177000006A21220227DFED506A4FF0880C1A70B0
:101780004FF00008C6EE807A4C4A9FED4D7A02F188
:10179000010E02F11E01C7EE866A01E01EF801CBC0
:1017A0004FEA1C130CF00F09AEEB020C13FB09F30C
:1017B00007EE903A0CF1FF33F8EEE77A77EEE67A2F
:1017C000F0EEE77AF4EEC77AF1EE10FA02D5B0EE59
:1017D000677A98468E45E1D112F8083020EE060A65
:1017E000DFED386A4FEA1318037003F00F039FED23
:1017F000367A18FB03F807EE908AF8EEE77A60EE87
:10180000277A87EEA60AB4EEC70AF1EE10FA3AD4A8
:10181000DFED2E7AB4EE670AF1EE10FA37FE800A99
:1018200001A807FB08F801F007FADFED297ADDEDE2
:10183000016A6FF0604220EE270A9FED226AFCEEFB
:10184000E66A07EE908ABCEEC07A16EE903AF8EEA1
:10185000E77A2370F8EE475A2A6086ED007AD5EDD4
:10186000006A2378F8EE666A07EE103A85EEA60A5B
:10187000B8EE477A30EE070A20EE060A80EE270A15
:1018800003B0BDE8F083B0EE470AC9E79FED117AD7
:10189000B2EE006AF3EE007AB4EEC70AF1EE10FA87
:1018A000CBBF422244220827102736FE276A62E770
:1018B000DAF81A4DDAF89A4C4775684E181000207D
:1018C0000000807F001BB74BFCA9D84102AB5842F7
:1018D0000000004EDAF81A4C026838B52E4B9A42D6
:1018E00015D02E4B1A6A9D6AC2F3C1429C6AC5F399
:1018F0004225012AC4F3426416D0022A35D0D2B15F
:10190000631C274805FB0333B0FBF3F038BDA3F598
:1019100030231A6B1D6BC2F3C1121C6BC5F3023569
:10192000012AC4F34224E8D1631C1E4805FB03339B
:10193000B0FBF3F038BD1C4AD2F87031106F990D2E
:10194000C3F3C03301F002010B43D2F88010D2F888
:101950009020FFF7B9FEFCEEC07A631C17EE900AE8
:1019600005FB0333B0FBF3F038BD0F4BD3F8A000F9
:10197000D3F8B010D3F8C020D3F870319B0FFFF725
:10198000A3FEFCEEC07A631C17EE900A05FB03333E
:10199000B0FBF3F038BD00BF00C01A4000C00F40DC
:1019A00000389C1C80204B1E00800D40094B0A68AB
:1019B00010B404689C4208BF9A420CBF012000206A
:1019C00005D09C4218BF9A4214BF012000205DF848
:1019D000044B704700C01A40022970B408D1274C4C
:1019E0004FF48835C4F8A8504FF40055C4F8A450FB
:1019F000234C0568A54222D04568C9045B062868C7
:101A000001F4C0116E685202046803F0606302F4CE
:101A1000606224EA060404601A4C266A26F4C01C9C
:101A200041EA0C012162A16A21F00E210B431A4305
:101A3000A2626A680368134370BC03607047406821
:101A40005B021203046803F46063466802F4E04238
:101A50002568C90125EA06050A4E01F4C071256012
:101A6000356B25F4FF452B4313430B433363236846
:101A700042681343236070BC704700BF00800D4074
:101A800000C01A4000C00F4070B53F4C8822DFED07
:101A90003F7A0026611C9FED3E7AC7EE806A04F112
:101AA0001E0C0D4601E015F8012B130902F00F0E74
:101AB0002A1B13FB0EF307EE903A531EF8EEE77A5B
:101AC00077EEE67AF0EEE77AB4EEE77AF1EE10FA26
:101AD00002DDB0EE677A1E466545E4D1DFED2D7A72
:101AE0008822A65D002587EE806ADFED296A01E085
:101AF00011F8012B130902F00F0E0A1B13FB0EF352
:101B000007EE903A531EF8EEE77A77EEC67AF0EEDB
:101B1000E77AF4EEE76AF1EE10FA02DDF0EE676ABA
:101B20001D466145E4D1F4EEC76A635DF1EE10FA3B
:101B300014DB340906F00F0603219FED147A621EB0
:101B4000731E14FB06F4DBB207EE904AD2B2FFF725
:101B500043FFF8EEE77A87EE270A70BD1C0903F011
:101B60000F0501219FED0B7A621E6B1E14FB05F41D
:101B7000DBB207EE904AD2B2FFF72EFFF8EEE77A1B
:101B800087EE270A70BD00BF18100020C0E1E44DA9
:101B90000000807F0459F24D30B587B00DF10F047D
:101BA0000DF10E0305AA04A9009404460DF10D00E1
:101BB000FFF7C2FD9DF80E209DF80D3010091D495C
:101BC00003F03F0302F00F02A0F10200022AB0FA74
:101BD00080F04FEA501043EAC0430B67049BC1F802
:101BE0008030059BC1F8903020D0042A18D1124BC8
:101BF0001D46C1F878310F4B4FF4005220460021AA
:101C0000C3F874515A679DF80F2002F00F031209B0
:101C1000013B013ADBB2D2B2FFF7DEFE07B030BDC6
:101C20000025044B044AC3F87821E4E74FF400454B
:101C3000F7E700BF00800D400080800010B586B03F
:101C40000DF10F040DF10E0305AA04A9009404463A
:101C50000DF10D00FFF770FD9DF80E209DF80D3081
:101C600010091C4903F07F0302F00F02A0F10200EB
:101C7000022AB0FA80F04FEA501043EAC043C1F89C
:101C8000A030049BC1F8B030059BC1F8C0301ED015
:101C9000042A14BF00214FF040410E4B4FF0404248
:101CA0002046C3F878214FF40052C3F87411022182
:101CB000C3F8A4209DF80F2002F00F031209013B86
:101CC000013ADBB2D2B2FFF787FE06B010BD4FF08B
:101CD0008041E2E700800D40F8B5036A04460D46F6
:101CE000002B00F03881E36E002B00F03E81A369E9
:101CF000013300F01881206A002800F00481636934
:101D0000013303D0E36E002B00F0FD80A17F066855
:101D1000072940F2F980012100F072FFFF28A07727
:101D200000F0F180E17F072940F2F680FF21206A70
:101D300000F0A2FFFF28E07700F0E5800127A37FF5
:101D400007FA00F007FA03F384F8250084F86B30F3
:101D5000206AFFF7C1FD05FA07F307EE900A322269
:101D600007EE103AE37FF8EE676AB8EE477A403341
:101D700046F82320C6EE877A94F82430A27F1B020F
:101D8000E17F120603F4F853203102F0E0621343BE
:101D9000834A1A4346F82120A27F02F5A072F8FE7A
:101DA000677AFCEEE77A17EE903AFF2B28BFFF2305
:101DB00043F4706346F8223042F22222A37F03F5F7
:101DC000907346F82320E37F94F8242007EB8303E5
:101DD000A17F12021B0601F5807102F4F85203F094
:101DE0007C5313436F4A1A4346F8212072B6B760FA
:101DF000336A94F8252023EA0203336262B6217E17
:101E0000206A00F045FF04F11001206A00F024FF71
:101E1000384600F009FFE36E002B74D0217F1E6866
:101E2000072900F28F80184600F02EFF00286AD0A4
:101E3000617F072940F2A580226AE36E9A4200F092
:101E4000A780FF21184600F017FFFF2860775AD0BF
:101E5000012700F14003322207FA00F0BD4084F868
:101E6000710046F82320237F94F870201B06617FC1
:101E70001202E06E03F0E063203102F4F8521343E3
:101E8000494A1A4346F82120FFF726FD07EE900A3B
:101E9000227FF8EE676A07EE905A02F5A072217D64
:101EA000B8EE677AE06EC6EE877AF8FE677AFCEEE7
:101EB000E77A17EE903AFF2B28BFFF2343F47063B5
:101EC00046F82230237F394A03F5907346F82320E1
:101ED00094F87030227F1B0202F5807203F4F853ED
:101EE00043F0810346F82230B76000F0D1FE04F1E0
:101EF0001001E06E00F0B0FE72B6326A94F87130F4
:101F00001343336262B6F8BD00F0BEFE0028FAD07B
:101F1000E17F07293FF60AAF206A00F081FE002822
:101F2000F1D0E07F0AE76369013325D0E36E002B2F
:101F3000E9D0206A00287FF4E9AE217F1E680729D6
:101F40007FF671AF0121184600F05AFEFF28207776
:101F50007FF46EAFF8BD00F12401007E00F078FE42
:101F6000E36E2062002B7FF4C2AE04F17001207D8D
:101F700000F06EFEE066BAE6206A00283FF44BAF40
:101F8000C4E6E06E00F04CFE0028BCD0607F5FE746
:101F90001846E17F00F06CFEE36E014652E700BF99
:101FA000020003000100C00001008000222404029E
:101FB000036A10B504464BB1E36E03B110BD04F1E2
:101FC0007001207D00F044FEE06610BD00F12401A8
:101FD000007E00F03DFE2062EEE700BF016A10B512
:101FE00004462DED028BB0EE408AA9B1C06EF0B967
:101FF00004F17001207D00F02BFE216AE0660029CB
:1020000036D0A0B90846B0EE480AFFF73DFDE06EB5
:10201000C0B9BDEC028B10BD00F12401007E00F0C0
:1020200017FE0146E06E21620028E1D051B1FFF7B2
:10203000BDFC78B1216A0029E4D1E06E9FED0E0A63
:102040000028E6D0B0EE480ABDEC028BBDE8104097
:10205000FFF71ABD206AB0EE480AFFF715FDB0EE93
:10206000480AE06EBDEC028BBDE81040FFF70CBDE6
:102070009FED010ACCE700BF00000000016A10B527
:1020800004462DED028BB0EE408AA9B1C06EF0B9C6
:1020900004F17001207D00F0DBFD216AE06600297B
:1020A00036D0A0B90846B0EE480AFFF775FDE06EDD
:1020B000C0B9BDEC028B10BD00F12401007E00F020
:1020C000C7FD0146E06E21620028E1D051B1FFF763
:1020D0006DFC78B1216A0029E4D1E06E9FED0E0A13
:1020E0000028E6D0B0EE480ABDEC028BBDE81040F7
:1020F000FFF752BD206AB0EE480AFFF74DFDB0EE83
:10210000480AE06EBDEC028BBDE81040FFF744BD0D
:102110009FED010ACCE700BF00000000016A10B586
:1021200004462DED028BB0EE408AA9B1C06EF0B925
:1021300004F17001207D00F08BFD216AE06600292A
:1021400036D0A0B90846B0EE480AFFF777FDE06E3A
:10215000C0B9BDEC028B10BD00F12401007E00F07F
:1021600077FD0146E06E21620028E1D051B1FFF712
:102170001DFC78B1216A0029E4D1E06E9FED0E0AC2
:102180000028E6D0B0EE480ABDEC028BBDE8104056
:10219000FFF754BD206AB0EE480AFFF74FFDB0EEDE
:1021A000480AE06EBDEC028BBDE81040FFF746BD6B
:1021B0009FED010ACCE700BF0000000043690A4A16
:1021C00003EB011010B4037A084C02EB0313D3E9BC
:1021D00001321460C2681A6003690BB142691A6067
:1021E0005DF8044B704700BF8010002061F80100CB
:1021F0004369027E03EB021292F808C08C451CD0A2
:102200001A7AFF2A19D0914210B5044616D01A7EC8
:10221000FF2A06D00121D3E9002312681A4201D116
:10222000217610BD064B0522204603EB0C135B689C
:102230001A60FFF7C3FF2176F3E770470021EAE752
:102240008010002043690A4A03EB011010B490F893
:102250002830084C02EB0313D3E901321460C26A40
:102260001A60036B0BB1426B1A605DF8044B704748
:102270008010002061F801004369427E03EB0212E6
:1022800092F828C08C451ED093F82820FF2A1AD037
:10229000914210B5044617D093F83820FF2A06D093
:1022A0000121D3E9002312681A4201D1617610BDE1
:1022B000064B0522204603EB0C135B681A60FFF700
:1022C000C1FF6176F3E770470021EAE78010002044
:1022D000164942698B6B23F47C0343F4802370B569
:1022E0008B630446124DD2E900130A681A4303694E
:1022F0000A60022200211A610E4A19619A640122C1
:102300005A629D624FF43035DD624FF001159E6CCC
:102310001E6519629D651A61017EFFF74FFF617EA0
:102320002046BDE87040FFF78DBF00BF00C00F40E2
:10233000B80B05053B372819B1F5607FF0B50E469F
:102340008DB028BF4FF460760F46054672B62E4B0F
:1023500000247022186021462C4B2D481C8000F070
:102360006FFCCFB121462A484FF0010C4A0901F019
:102370001F03013150F822400CFA03F38E4243EA66
:10238000040340F82230F1D828460023438001336B
:1023900000F582709E42F9D81E4C257815B162B6C0
:1023A0000DB0F0BD082000F05BFC1B4B8022064600
:1023B000009302A90693194B0271056008A80293C5
:1023C00000F02AFC06A9164A304600F065FC069B80
:1023D00008A8DB689847009B02A8DB689847237829
:1023E000002BDCD10F4B104AC3F858210F49D020E5
:1023F0004FF0E023402281F84600C3F80821012372
:10240000237062B60DB0F0BDE8E20020CAF20020F1
:10241000F0E20020EEF200203810002049470100D1
:102420001B100100006800205547010000E400E097
:10243000704700BF704700BF704700BF00BF7047C4
:1024400010B44FF0E023002110243148C3F8941D4C
:10245000C3F89C4D1124C3F8A00D2E48C3F89C4D21
:102460001224C3F8A00D2C48C3F89C4D2B4AC3F886
:10247000A00D2B4C42F015022A48C3F89C4DC3F81E
:10248000A00D294C2948C3F89C4DC3F8A00D284C39
:10249000C3F89C2D2748284AC3F8A04DC3F89C0DCB
:1024A000C3F8A02D02F5A022244C0C322448C3F816
:1024B0009C4DC3F8A02D234AC3F89C0D224CC3F8B1
:1024C000A02D02F14062C3F89C4D2048C3F8A02D16
:1024D0000C32C3F89C0DC3F8A02D00BF00BF00BF95
:1024E00000BF00BF0122C3F8942DBFF34F8FBFF38D
:1024F0006F8FC3F8501FBFF34F8FBFF36F8FD3F8A9
:10250000142D5DF8044B42F44032C3F8142D70478B
:102510003F000010250008070900100040F30020CC
:1025200013002000210002071400002025000813DA
:10253000090000101600202027000B131700004090
:10254000180000602F000B07190000701A000080AF
:10255000F0B5B84B1822B84E0120B84F83B0C3F87D
:102560005C62B749C3F86072B64DC3F86462A6F501
:102570003046B54CC3F86862C3F86C52C3F8705269
:10258000C3F87452C3F8785248F20C75DA661A67C9
:102590005A679A67DA67C3F88020C3F88420C3F8C3
:1025A0008820C1F82C03A94AC1F83003C1F83403CC
:1025B000C1F83803C1F83C03C1F85003A169A44B2A
:1025C0000A40A448A4491343A44AA361D4F8843020
:1025D00043F00C03C4F884304FF0FF34036843F039
:1025E0000203036003682B404FF400551A439C4BD1
:1025F000026044608A689B4C13409B4A43F000533E
:102600008360C36823F07803C360036A13402343E5
:102610000362036A1340954A2343954C43628262E6
:10262000C2620022D1F8B83023F03F0343F0010327
:10263000C0F8B830D1F8BC308E4923F03F0343F0E6
:102640000103C0F8BC3040F205630261056604670F
:10265000C0F88030456644670224C0F884300368BF
:1026600023F0020303608161834B8449C46143F812
:10267000042B8B42FBD1774A136843F001031360AC
:10268000136813F00103FBD17A48022140F2F5648C
:10269000906140F29940D16140F26641C2F8004237
:1026A00042F20144C2F810127549C2F82002C2F881
:1026B000301240F235417348C2F83442C2F8401239
:1026C000714CC2F8500242F201207049C2F8541213
:1026D0000121C2F86042C2F864025E48C2F8A0302C
:1026E000C2F8A430C2F8B0104369DA07FCD5012360
:1026F00000244FF4803257494361C0F8A040C0F82D
:10270000A420C0F8B0304B69DB07FCD501230024BE
:102710004FF400304F4A4B61C1F8A040C1F8A4000B
:10272000C1F8B0305369DF07FCD5012300245848B5
:1027300048495361C2F8A040C2F8A400C2F8B030C2
:102740004B69DE07FCD5D1F8003145F60D5221204A
:102750009BB24861934265D100244FF4802201234B
:102760003C48C1F8A040C1F8A420C1F8B03043698A
:10277000DD07FCD501234FF400040021354A4361F5
:10278000C0F8A040C0F8A410C0F8B0305369DC070E
:10279000FCD501234FF400044FF480302D495361E0
:1027A000C2F8A040C2F8A400C2F8B0304B69D80704
:1027B000FCD501234FF400044FF40030254A4B614F
:1027C000C1F8A040C1F8A400C1F8B0305369D907DE
:1027D000FCD501234FF400042D481E495361C2F873
:1027E000A040C2F8A400C2F8B0304B69DA07FCD5AB
:1027F000D1F8003145F60D5221209BB24861934239
:1028000050D008254FF4000422490020224B234ACF
:10281000009015705A1A01232148224400F024FA2E
:1028200003B0F0BD1E4B0022C3E90022C3E902221F
:1028300003B0F0BD00801F40F9B00100F9100100A5
:1028400000841F40F970010000C00F40FFFCFF1F13
:10285000000300A000402A4000802A401200FFFF31
:10286000FF37F7004000008000FFF07CFF000F837F
:1028700063000200F05AF05A00422A4000432A4006
:102880009F041830EB06180A3806180A063201268B
:10289000040003000000007000000070FCF2002043
:1028A00010ED00204FF400044FF48022012308486B
:1028B000C1F8A040C1F8A420C1F8B0304369DB07DB
:1028C000FCD5012310254FF0807443619CE700BFC5
:1028D00000402A40F0B4154A40274FF480314FF4AD
:1028E00080564FF400554FF4404443F242001369C0
:1028F00013F0020F0ED113F4005F0FD013F4805FBA
:102900000ED0002BF3DA13F4803F0BD15B060BD50E
:10291000F0BC7047946151619061E8E75561E6E76A
:102920005661E4E79161E2E75761E0E700800D401E
:102930003F4A03203F49F3EE095AD2F880304FF066
:10294000000C9FED3D6A23F001039FED3C5A30B42B
:10295000C2F88030C2F89000D1F8E010384DCBB208
:10296000384C39482B6007EE903A0B0DC1F30B2120
:10297000F8EEE77A06EE903A07EE101A334BB8EE0F
:10298000C77A2160F8EEE66A314937EEC66A37EE5B
:10299000C55A76EEC76A77EEE57A26EE266AC3ED6B
:1029A000006A25EE265AD2F8803067EEA64AC0EDBE
:1029B000007AC6EE275A274885EE276AC4EEA76A32
:1029C00075EE875AFCEEE55A36EE076A15EE904A28
:1029D000BCEEC66A43EA045376EE877AC2F88030CA
:1029E00016EE103AD2F89041FCEEE77A01EA034184
:1029F000214317EE903AC2F89011C3F30B03D2F8BB
:102A000090110B431449C2F89031D2F8803043F052
:102A10000203C2F88030114B80F840C0C1F8403149
:102A20004FF0E023012230BCC3F80821704700BFFB
:102A300000810D4000441F400000AA420000B44243
:102A400064EF002060EF002068EF00206CEF0020B2
:102A50000000FF0F00E400E000680020D5610100E5
:102A6000314B40F6617210B5C3F8202140F20444A6
:102A700000F006F92D4A2E49D2F880302D4843F057
:102A80000303C2F880302C4BC1F8604102681A423F
:102A900003D1D1F8A8319A071BD0254A4FF0004145
:102AA000244B5963D2F8403143F00203C2F840315D
:102AB000D2F840319B07FBD44FF400304FF0E021B7
:102AC0001C4B4FF00042C1F88C0219209A6300F0B1
:102AD000ABF8184A4FF08040154C002190630A2053
:102AE000164B11604FF49062C4F8A801184600F02C
:102AF000A7F84FF4800203464FF4810040F24311DF
:102B00001860C4F858311A640D4B0E4AC4F84811C5
:102B1000C3F804224FF0E0224FF400310123C2F841
:102B20000C11C4F8403110BD00800D4000C00F40B2
:102B300000002E4000900D40001C1E0000000020F0
:102B400000680020BD64010008B50E4B1B6E9B079A
:102B500000D4FBBE72B60C4B00200C4AC3F84001F7
:102B600003F160430A49A3F55F2311649D46BFF357
:102B70004F8F4FF400130748074ADB6902609B68D8
:102B8000984700BF00441F4000002E4000C00A408C
:102B90000300200000802020000012EB104BA0203A
:102BA000104AD96E41F4403110B4D96640F237640E
:102BB000D96E41F44071D96654649064936C1B06DD
:102BC000FCD4094A40F23761A02351649364936CAA
:102BD00013F08003FBD1054A13705DF8044B704776
:102BE00000C00F4000400C4000800C40FBF2002071
:102BF000F8B500BFF8BC08BC9E4670470000000056
:102C00005FF800F0193E01005FF800F0AD5C0100D4
:102C10005FF800F0F95E01005FF800F0BD470100C9
:102C20005FF800F0C53E01005FF800F0A955010013
:102C30005FF800F0B95201005FF800F0ED8A010082
:102C40005FF800F0459701005FF800F0D1990100AE
:102C50005FF800F0693D01005FF800F0093F0100F6
:102C60005FF800F0F15D01005FF800F0698A010093
:102C70005FF800F0953E01005FF800F0593E01005A
:102C80005FF800F0697401005FF800F0A53E0100F4
:102C90005FF800F0D53D01005FF800F0714E0100D3
:102CA0000501000069510000CD680000798700002F
:102CB00091090100A9090100C1090100D909010018
:102CC000F1090100090A0100210A0100390A010085
:102CD000510A0100690A0100810A0100990A0100F4
:102CE000990C010021100100391001005110010060
:102CF00069100100CD130100E5130100FD1301006F
:102D000031140100611401007914010091140100D3
:102D1000A9140100C114010005220100953F010022
:042D2000754F0100EA
:102D240080C00F40000000031900000010000000E4
:102D3400E8841F4001000000FF000000FF000000C5
:102D44000000000000000000180000001000000057
:102D5400E4841F4001000000FF000000FF000000A9
:102D640000000000000000001F000000C546010034
:102D740070C00F40000C00001100000011000000A2
:102D8400E0841F40020000002C000000120000003C
:102D9400E0841F400100000010000000110000004A
:102DA400DC841F40020000002D000000120000001F
:102DB400DC841F40010000001E000000B946010031
:102DC40070C00F40C000000012000000130000009B
:102DD400D0841F4001000000FF000000FF0000003D
:102DE40000000000000000001300000013000000B9
:102DF400CC841F4001000000FF000000FF00000021
:102E040000000000000000001C000000AD460100AE
:102E14002A035400650065006E00730079002000E9
:102E24004D004900440049007800310036002F006D
:102E340041007500640069006F000000180354002D
:102E4400650065006E007300790064007500690018
:102E54006E006F000403090409023503060100C073
:102E640032080B0002020201000904000001020200
:102E740001000524001001052401010104240206B7
:102E8400052406000107058203100010090401004F
:102E9400020A000000070503024000000705830240
:102EA400400000090402000201030000072401009D
:102EB40001E70106240201010006240202020009BE
:102EC4002403010301020100092403020401010196
:102ED4000006240201050006240202060009240358
:102EE4000107010601000924030208010501000687
:102EF4002402010900062402020A00092403010B2A
:102F0400010A0100092403020C010901000624023C
:102F1400010D00062402020E00092403010F010E14
:102F240001000924030210010D010006240201110D
:102F340000062402021200092403011301120100F5
:102F440009240302140111010006240201150006DC
:102F540024020216000924030117011601000924A2
:102F640003021801150100062402011900062402B7
:102F7400021A00092403011B011A01000924030297
:102F84001C01190100062402011D00062402021E70
:102F940000092403011F011E01000924030220016A
:102FA4001D01000624020121000624020222000958
:102FB4002403012301220100092403022401210125
:102FC4000006240201250006240202260009240327
:102FD4000127012601000924030228012501000616
:102FE4002402012900062402022A00092403012BD9
:102FF400012A0100092403022C01290100062402EC
:10300400012D00062402022E00092403012F012EA3
:1030140001000924030230012D01000624020131BC
:1030240000062402023200092403013301320100A4
:10303400092403023401310100062402013500068B
:103044002402023600092403013701360100092451
:103054000302380135010006240201390006240266
:10306400023A00092403013B013A01000924030246
:103074003C01390100062402013D00062402023EFF
:1030840000092403013F013E010009240302400119
:103094003D01000905040240000000001425011050
:1030A4000105090D1115191D2125292D3135393D2C
:1030B4000905840240000000001425011003070BD9
:1030C4000F13171B1F23272B2F33373B3F080B03EB
:1030D40003010100000904030000010100000A24A7
:1030E4000100013E000204050C2402010206000254
:1030F400030000000924030201010001000C240262
:103104000301010002030000000A24063103010147
:103114000202000924030402060031000904040029
:103124000001020000090404010101020000072457
:1031340001020301000B2402010202100144AC004D
:1031440009058509B40001000007250100000000FD
:10315400090405000001020000090405010201023E
:103164000000072401030301000B240201020210E2
:103174000144AC0009050505B400010086072501DA
:10318400000000000905861103000105000000008D
:1031940009023503060100C032080B0002020201D5
:1031A40000090400000102020100052400100105C9
:1031B40024010101042402060524060001070582F6
:1031C4000310000509040100020A000000070503BA
:1031D4000200020007058302000200090402000243
:1031E400010300000724010001E701062402010194
:1031F4000006240202020009240301030102010063
:103204000924030204010101000624020105000649
:10321400240202060009240301070106010009240F
:103224000302080105010006240201090006240224
:10323400020A00092403010B010A01000924030204
:103244000C01090100062402010D00062402020EED
:1032540000092403010F010E0100092403021001D7
:103264000D010006240201110006240202120009C5
:1032740024030113011201000924030214011101A2
:103284000006240201150006240202160009240384
:103294000117011601000924030218011501000693
:1032A4002402011900062402021A00092403011B46
:1032B400011A0100092403021C0119010006240259
:1032C400011D00062402021E00092403011F011E21
:1032D40001000924030220011D010006240201212A
:1032E4000006240202220009240301230122010012
:1032F40009240302240121010006240201250006F9
:1033040024020226000924030127012601000924BE
:1033140003022801250100062402012900062402D3
:10332400022A00092403012B012A010009240302B3
:103334002C01290100062402012D00062402022E7C
:1033440000092403012F012E010009240302300186
:103354002D01000624020131000624020232000974
:103364002403013301320100092403023401310131
:103374000006240201350006240202360009240353
:103384000137013601000924030238013501000622
:103394002402013900062402023A00092403013BF5
:1033A400013A0100092403023C0139010006240208
:1033B400013D00062402023E00092403013F013EB0
:1033C40001000924030240013D0100090504020033
:1033D40002000000142501100105090D1115191D25
:1033E4002125292D3135393D0905840200020000CB
:1033F400001425011003070B0F13171B1F23272B82
:103404002F33373B3F080B0303010100000904037A
:103414000000010100000A240100013E000204052D
:103424000C24020102060002030000000924030226
:1034340001010001000C2402030101000203000049
:10344400000A2406310301010202000924030402D4
:10345400060031000904040000010200000904040C
:10346400010101020000072401020301000B2402F0
:10347400010202100144AC0009058509B4000400EE
:1034840000072501000000000904050000010200F6
:1034940000090405010201020000072401030301DD
:1034A400000B2402010202100144AC0009050505C9
:1034B400B4000400860725010000000009058611F8
:1034C40004000407000000000A060002EF020140A5
:0434D40001000000F3
:1034D80000000000000000000000000000000000E4
:1034E80000000000000000000000000000000000D4
:1034F800F8B54FF084439D695A6915400DD0254FA2
:1035080001269D6195FAA5F4B4FA84F457F824309D
:1035180006FA04F49847A543F4D11F4B9D695A69EC
:1035280015400DD01D4F01269D6195FAA5F4B4FAFA
:1035380084F457F8243006FA04F49847A543F4D1E4
:10354800174B9D695A6915400DD0164F01269D618C
:1035580095FAA5F4B4FA84F457F8243006FA04F47A
:103568009847A543F4D1104B9D695A6915400DD071
:103578000E4F01269D6195FAA5F4B4FA84F457F824
:10358800243006FA04F49847A543F4D1BFF34F8FCB
:10359800F8BD00BF3864002000400042B864002035
:1035A800008000423865002000C00042B865002055
:1035B8000548064B1B1AD90F01EBA301491002D08D
:1035C800034B03B118477047C06A0020C06A002047
:1035D8000000000008B5054B1BB105490548AFF3CD
:1035E8000080BDE80840FFF7E3BF00BF000000000F
:1035F80044EE0020004C026000207047704700BF76
:10360800704700BF704700BF704700BF704700BFDA
:10361800324A3348A2EB820332492DE9F047324C53
:1036280003F1040E314D082326784FF00109DFF825
:10363800C08004E00133043004310E2B25D012F889
:1036480001CBBCF1020FF5D19E42F3D15EF8227096
:10365800EFB158F827400F68A74231D007F1010CA5
:10366800002CB8BF0134B7EB640F4FEA640A2BDBB8
:10367800D445C1F800C0DDDB0478270105EB04144C
:10368800EF59E468C7F88840D4E7BDE8F0870C68CC
:1036980054B90478270105EB0414EF59E468C7F816
:1036A8008440C1F80090C5E704784FEA041C05EB94
:1036B800041455F80CC0E468CCF888400F60B9E7EA
:1036C8004FF0010C0027CBE70478270105EB041421
:1036D800EF59E468C7F88440CAE700BF985400204F
:1036E8001C5800209CEC002012F3002080100020C1
:1036F8006463002038B5054CA4F178050C3C2046DD
:1037080014F060FFAC42F9D138BD00BF08C60020F4
:10371800054B03F1340210B504460360026113F04F
:10372800DDFF204610BD00BF540C002038B500F165
:103738000805D0F8B4300446284698474FF6FD737C
:10374800984201D9012038BD0346B4F8BA20B4F82C
:10375800B810284612F0F2FE94F89030032BF1D8F6
:10376800DFE803F0140E0802B4F8BA301B1AA4F804
:10377800BA30E7E7B4F8B8301B1AA4F8B830E1E774
:10378800B4F8BA301844A4F8BA00DBE7B4F8B83093
:103798001844A4F8B800D5E7384B1B780F2B00D095
:1037A800704724391529FBD801A353F821F000BF2D
:1037B80057030000D1020000D1020000D10200002E
:1037C800D1020000D1020000D1020000D1020000A5
:1037D800D1020000D1020000D1020000D102000095
:1037E8005D030000D10200006D030000D10200005B
:1037F8007D0300008D030000D10200009D0300003E
:10380800D1020000390300001D4B5B79012BC7D1A1
:103818001C4B1D4A1B7D190102EB03135258DB6830
:10382800C2F88430BCE7194811F0FCBB144B1B7874
:10383800012BB5D1134B144A1B78ECE7104B5B787E
:10384800012BADD10F4B104A1B79E4E70C4B9B7849
:10385800012BA5D10B4B0C4A1B7ADCE7084BDB7814
:10386800012B9DD1074B084A1B7BD4E7044B1B79DE
:10387800012B95D1034B044A1B7CCCE712F30020A3
:10388800985400201C58002080100020BCEC002018
:103898002B4B1B780F2B00D0704730390929FBD8E8
:1038A80001A353F821F000BF1F040000C903000062
:1038B8002F040000C90300003F0400004F0400006B
:1038C800C90300005F040000C903000001040000F0
:1038D8001C4B5B79012BDFD11B4B1C4A1B7D19014B
:1038E80002EB03135258DB68C2F88830D4E7154B53
:1038F8001B78012BD0D1144B144A1B78EFE7114BDE
:103908005B78012BC8D1104B104A1B79E7E70D4BA8
:103918009B78012BC0D10C4B0C4A1B7ADFE7094B73
:10392800DB78012BB8D1084B084A1B7BD7E7054B3E
:103938001B79012BB0D1044B044A1B7CCFE700BF95
:1039480012F30020985400201C58002080100020FA
:103958002DE9F047002A4ED004460D468F18002660
:10396800DFF89C9000F108084FF6FD7A03E001208B
:10397800AF42064420D0236815F8011B1B684B454D
:1039880015D1D4F8B430404698475045EFD803468F
:10399800B4F8BA20B4F8B810404612F0CFFD94F845
:1039A8009030032BE3D8DFE803F01F18110A2046F4
:1039B8009847AF420644DED13046BDE8F087B4F8F8
:1039C800BA301B1A0120A4F8BA30D1E7B4F8B830DD
:1039D8001B1A0120A4F8B830CAE7B4F8BA30184462
:1039E800A4F8BA000120C3E7B4F8B8301844A4F822
:1039F800B8000120BCE716463046BDE8F08700BF96
:103A08005D020000224BD3F8D820D2E90010D36819
:103A18000968006810B41842946801EA04012ED0BD
:103A2800137C03F00303D9B943F008039908013B59
:103A380011740D2B0BD8DFE803F00D071C070A16CD
:103A48000D0D160A071C070D5369013B53615DF8FC
:103A5800044B704753695DF8044B01335361704759
:103A680043F00403E0E753695DF8044B023B5361FC
:103A7800704753695DF8044B023353617047137CF8
:103A880003F003030029D1D043F00403CEE700BFBD
:103A9800B0E40020224BD3F8C020D2E90010D3684C
:103AA8000968006810B41842946801EA04012ED02D
:103AB800137C03F00303D9B943F008039908013BC9
:103AC80011740D2B0BD8DFE803F00D071C070A163D
:103AD8000D0D160A071C070D5369013B53615DF86C
:103AE800044B704753695DF8044B013353617047C9
:103AF80043F00403E0E753695DF8044B023B53616C
:103B0800704753695DF8044B023353617047137C67
:103B180003F003030029D1D043F00403CEE700BF2C
:103B2800B0E40020224BD3F8C420D2E90010D368B7
:103B38000968006810B41842946801EA04012ED09C
:103B4800137C03F00303D9B943F008039908013B38
:103B580011740D2B0BD8DFE803F00D071C070A16AC
:103B68000D0D160A071C070D5369013B53615DF8DB
:103B7800044B704753695DF8044B01335361704738
:103B880043F00403E0E753695DF8044B023B5361DB
:103B9800704753695DF8044B023353617047137CD7
:103BA80003F003030029D1D043F00403CEE700BF9C
:103BB800B0E40020224BD3F8C820D2E90010D36823
:103BC8000968006810B41842946801EA04012ED00C
:103BD800137C03F00303D9B943F008039908013BA8
:103BE80011740D2B0BD8DFE803F00D071C070A161C
:103BF8000D0D160A071C070D5369013B53615DF84B
:103C0800044B704753695DF8044B013353617047A7
:103C180043F00403E0E753695DF8044B023B53614A
:103C2800704753695DF8044B023353617047137C46
:103C380003F003030029D1D043F00403CEE700BF0B
:103C4800B0E40020224BD3F8CC20D2E90010D3688E
:103C58000968006810B41842946801EA04012ED07B
:103C6800137C03F00303D9B943F008039908013B17
:103C780011740D2B0BD8DFE803F00D071C070A168B
:103C88000D0D160A071C070D5369013B53615DF8BA
:103C9800044B704753695DF8044B01335361704717
:103CA80043F00403E0E753695DF8044B023B5361BA
:103CB800704753695DF8044B023353617047137CB6
:103CC80003F003030029D1D043F00403CEE700BF7B
:103CD800B0E40020214B1A68D2E90010D3680968C3
:103CE800006810B41842946801EA04012ED0137CCD
:103CF80003F00303D9B943F008039908013B117491
:103D08000D2B0BD8DFE803F00D071C070A160D0D65
:103D1800160A071C070D5369013B53615DF8044BF4
:103D2800704753695DF8044B01335361704743F0A2
:103D38000403E0E753695DF8044B023B53617047A5
:103D480053695DF8044B023353617047137C03F0E9
:103D580003030029D1D043F00403CEE7B0E40020E8
:103D6800214B5A68D2E90010D3680968006810B47A
:103D78001842946801EA04012ED0137C03F003036F
:103D8800D9B943F008039908013B11740D2B0BD8DE
:103D9800DFE803F00D071C070A160D0D160A071CAD
:103DA800070D5369013B53615DF8044B7047536934
:103DB8005DF8044B01335361704743F00403E0E7B7
:103DC80053695DF8044B023B5361704753695DF8D2
:103DD800044B023353617047137C03F0030300293B
:103DE800D1D043F00403CEE7B0E40020214B9A6819
:103DF800D2E90010D3680968006810B418429468C2
:103E080001EA04012ED0137C03F00303D9B943F06F
:103E180008039908013B11740D2B0BD8DFE803F058
:103E28000D071C070A160D0D160A071C070D536906
:103E3800013B53615DF8044B704753695DF8044BCF
:103E480001335361704743F00403E0E753695DF8B9
:103E5800044B023B5361704753695DF8044B0233CE
:103E680053617047137C03F003030029D1D043F05A
:103E78000403CEE7B0E40020214BDA68D2E9001051
:103E8800D3680968006810B41842946801EA04010C
:103E98002ED0137C03F00303D9B943F00803990823
:103EA800013B11740D2B0BD8DFE803F00D071C073D
:103EB8000A160D0D160A071C070D5369013B5361BD
:103EC8005DF8044B704753695DF8044B0133536147
:103ED800704743F00403E0E753695DF8044B023B85
:103EE8005361704753695DF8044B0233536170475F
:103EF800137C03F003030029D1D043F00403CEE779
:103F0800B0E40020214B1A69D2E90010D36809688F
:103F1800006810B41842946801EA04012ED0137C9A
:103F280003F00303D9B943F008039908013B11745E
:103F38000D2B0BD8DFE803F00D071C070A160D0D33
:103F4800160A071C070D5369013B53615DF8044BC2
:103F5800704753695DF8044B01335361704743F070
:103F68000403E0E753695DF8044B023B5361704773
:103F780053695DF8044B023353617047137C03F0B7
:103F880003030029D1D043F00403CEE7B0E40020B6
:103F9800214B5A69D2E90010D3680968006810B447
:103FA8001842946801EA04012ED0137C03F003033D
:103FB800D9B943F008039908013B11740D2B0BD8AC
:103FC800DFE803F00D071C070A160D0D160A071C7B
:103FD800070D5369013B53615DF8044B7047536902
:103FE8005DF8044B01335361704743F00403E0E785
:103FF80053695DF8044B023B5361704753695DF8A0
:10400800044B023353617047137C03F00303002908
:10401800D1D043F00403CEE7B0E40020214B9A69E5
:10402800D2E90010D3680968006810B4184294688F
:1040380001EA04012ED0137C03F00303D9B943F03D
:1040480008039908013B11740D2B0BD8DFE803F026
:104058000D071C070A160D0D160A071C070D5369D4
:10406800013B53615DF8044B704753695DF8044B9D
:1040780001335361704743F00403E0E753695DF887
:10408800044B023B5361704753695DF8044B02339C
:1040980053617047137C03F003030029D1D043F028
:1040A8000403CEE7B0E40020214BDA69D2E900101E
:1040B800D3680968006810B41842946801EA0401DA
:1040C8002ED0137C03F00303D9B943F008039908F1
:1040D800013B11740D2B0BD8DFE803F00D071C070B
:1040E8000A160D0D160A071C070D5369013B53618B
:1040F8005DF8044B704753695DF8044B0133536115
:10410800704743F00403E0E753695DF8044B023B52
:104118005361704753695DF8044B0233536170472C
:10412800137C03F003030029D1D043F00403CEE746
:10413800B0E40020224BD3F8A020D2E90010D368C5
:104148000968006810B41842946801EA04012ED086
:10415800137C03F00303D9B943F008039908013B22
:1041680011740D2B0BD8DFE803F00D071C070A1696
:104178000D0D160A071C070D5369013B53615DF8C5
:10418800044B704753695DF8044B01335361704722
:1041980043F00403E0E753695DF8044B023B5361C5
:1041A800704753695DF8044B023353617047137CC1
:1041B80003F003030029D1D043F00403CEE700BF86
:1041C800B0E40020224BD3F8A420D2E90010D36831
:1041D8000968006810B41842946801EA04012ED0F6
:1041E800137C03F00303D9B943F008039908013B92
:1041F80011740D2B0BD8DFE803F00D071C070A1606
:104208000D0D160A071C070D5369013B53615DF834
:10421800044B704753695DF8044B01335361704791
:1042280043F00403E0E753695DF8044B023B536134
:10423800704753695DF8044B023353617047137C30
:1042480003F003030029D1D043F00403CEE700BFF5
:10425800B0E40020224BD3F8A820D2E90010D3689C
:104268000968006810B41842946801EA04012ED065
:10427800137C03F00303D9B943F008039908013B01
:1042880011740D2B0BD8DFE803F00D071C070A1675
:104298000D0D160A071C070D5369013B53615DF8A4
:1042A800044B704753695DF8044B01335361704701
:1042B80043F00403E0E753695DF8044B023B5361A4
:1042C800704753695DF8044B023353617047137CA0
:1042D80003F003030029D1D043F00403CEE700BF65
:1042E800B0E40020224BD3F8AC20D2E90010D36808
:1042F8000968006810B41842946801EA04012ED0D5
:10430800137C03F00303D9B943F008039908013B70
:1043180011740D2B0BD8DFE803F00D071C070A16E4
:104328000D0D160A071C070D5369013B53615DF813
:10433800044B704753695DF8044B01335361704770
:1043480043F00403E0E753695DF8044B023B536113
:10435800704753695DF8044B023353617047137C0F
:1043680003F003030029D1D043F00403CEE700BFD4
:10437800B0E40020224BD3F8B020D2E90010D36873
:104388000968006810B41842946801EA04012ED044
:10439800137C03F00303D9B943F008039908013BE0
:1043A80011740D2B0BD8DFE803F00D071C070A1654
:1043B8000D0D160A071C070D5369013B53615DF883
:1043C800044B704753695DF8044B013353617047E0
:1043D80043F00403E0E753695DF8044B023B536183
:1043E800704753695DF8044B023353617047137C7F
:1043F80003F003030029D1D043F00403CEE700BF44
:10440800B0E40020224BD3F8B420D2E90010D368DE
:104418000968006810B41842946801EA04012ED0B3
:10442800137C03F00303D9B943F008039908013B4F
:1044380011740D2B0BD8DFE803F00D071C070A16C3
:104448000D0D160A071C070D5369013B53615DF8F2
:10445800044B704753695DF8044B0133536170474F
:1044680043F00403E0E753695DF8044B023B5361F2
:10447800704753695DF8044B023353617047137CEE
:1044880003F003030029D1D043F00403CEE700BFB3
:10449800B0E40020224BD3F8B820D2E90010D3684A
:1044A8000968006810B41842946801EA04012ED023
:1044B800137C03F00303D9B943F008039908013BBF
:1044C80011740D2B0BD8DFE803F00D071C070A1633
:1044D8000D0D160A071C070D5369013B53615DF862
:1044E800044B704753695DF8044B013353617047BF
:1044F80043F00403E0E753695DF8044B023B536162
:10450800704753695DF8044B023353617047137C5D
:1045180003F003030029D1D043F00403CEE700BF22
:10452800B0E40020224BD3F8BC20D2E90010D368B5
:104538000968006810B41842946801EA04012ED092
:10454800137C03F00303D9B943F008039908013B2E
:1045580011740D2B0BD8DFE803F00D071C070A16A2
:104568000D0D160A071C070D5369013B53615DF8D1
:10457800044B704753695DF8044B0133536170472E
:1045880043F00403E0E753695DF8044B023B5361D1
:10459800704753695DF8044B023353617047137CCD
:1045A80003F003030029D1D043F00403CEE700BF92
:1045B800B0E40020214B1A6ED2E90010D3680968D4
:1045C800006810B41842946801EA04012ED0137CE4
:1045D80003F00303D9B943F008039908013B1174A8
:1045E8000D2B0BD8DFE803F00D071C070A160D0D7D
:1045F800160A071C070D5369013B53615DF8044B0C
:10460800704753695DF8044B01335361704743F0B9
:104618000403E0E753695DF8044B023B53617047BC
:1046280053695DF8044B023353617047137C03F000
:1046380003030029D1D043F00403CEE7B0E40020FF
:10464800214B5A6ED2E90010D3680968006810B48B
:104658001842946801EA04012ED0137C03F0030386
:10466800D9B943F008039908013B11740D2B0BD8F5
:10467800DFE803F00D071C070A160D0D160A071CC4
:10468800070D5369013B53615DF8044B704753694B
:104698005DF8044B01335361704743F00403E0E7CE
:1046A80053695DF8044B023B5361704753695DF8E9
:1046B800044B023353617047137C03F00303002952
:1046C800D1D043F00403CEE7B0E40020214B9A6E2A
:1046D800D2E90010D3680968006810B418429468D9
:1046E80001EA04012ED0137C03F00303D9B943F087
:1046F80008039908013B11740D2B0BD8DFE803F070
:104708000D071C070A160D0D160A071C070D53691D
:10471800013B53615DF8044B704753695DF8044BE6
:1047280001335361704743F00403E0E753695DF8D0
:10473800044B023B5361704753695DF8044B0233E5
:1047480053617047137C03F003030029D1D043F071
:104758000403CEE7B0E40020214BDA6ED2E9001062
:10476800D3680968006810B41842946801EA040123
:104778002ED0137C03F00303D9B943F0080399083A
:10478800013B11740D2B0BD8DFE803F00D071C0754
:104798000A160D0D160A071C070D5369013B5361D4
:1047A8005DF8044B704753695DF8044B013353615E
:1047B800704743F00403E0E753695DF8044B023B9C
:1047C8005361704753695DF8044B02335361704776
:1047D800137C03F003030029D1D043F00403CEE790
:1047E800B0E40020214B1A6FD2E90010D3680968A1
:1047F800006810B41842946801EA04012ED0137CB2
:1048080003F00303D9B943F008039908013B117475
:104818000D2B0BD8DFE803F00D071C070A160D0D4A
:10482800160A071C070D5369013B53615DF8044BD9
:10483800704753695DF8044B01335361704743F087
:104848000403E0E753695DF8044B023B536170478A
:1048580053695DF8044B023353617047137C03F0CE
:1048680003030029D1D043F00403CEE7B0E40020CD
:10487800214B5A6FD2E90010D3680968006810B458
:104888001842946801EA04012ED0137C03F0030354
:10489800D9B943F008039908013B11740D2B0BD8C3
:1048A800DFE803F00D071C070A160D0D160A071C92
:1048B800070D5369013B53615DF8044B7047536919
:1048C8005DF8044B01335361704743F00403E0E79C
:1048D80053695DF8044B023B5361704753695DF8B7
:1048E800044B023353617047137C03F00303002920
:1048F800D1D043F00403CEE7B0E40020214B9A6FF7
:10490800D2E90010D3680968006810B418429468A6
:1049180001EA04012ED0137C03F00303D9B943F054
:1049280008039908013B11740D2B0BD8DFE803F03D
:104938000D071C070A160D0D160A071C070D5369EB
:10494800013B53615DF8044B704753695DF8044BB4
:1049580001335361704743F00403E0E753695DF89E
:10496800044B023B5361704753695DF8044B0233B3
:1049780053617047137C03F003030029D1D043F03F
:104988000403CEE7B0E40020214BDA6FD2E900102F
:10499800D3680968006810B41842946801EA0401F1
:1049A8002ED0137C03F00303D9B943F00803990808
:1049B800013B11740D2B0BD8DFE803F00D071C0722
:1049C8000A160D0D160A071C070D5369013B5361A2
:1049D8005DF8044B704753695DF8044B013353612C
:1049E800704743F00403E0E753695DF8044B023B6A
:1049F8005361704753695DF8044B02335361704744
:104A0800137C03F003030029D1D043F00403CEE75D
:104A1800B0E40020224BD3F88020D2E90010D368FC
:104A28000968006810B41842946801EA04012ED09D
:104A3800137C03F00303D9B943F008039908013B39
:104A480011740D2B0BD8DFE803F00D071C070A16AD
:104A58000D0D160A071C070D5369013B53615DF8DC
:104A6800044B704753695DF8044B01335361704739
:104A780043F00403E0E753695DF8044B023B5361DC
:104A8800704753695DF8044B023353617047137CD8
:104A980003F003030029D1D043F00403CEE700BF9D
:104AA800B0E40020224BD3F88420D2E90010D36868
:104AB8000968006810B41842946801EA04012ED00D
:104AC800137C03F00303D9B943F008039908013BA9
:104AD80011740D2B0BD8DFE803F00D071C070A161D
:104AE8000D0D160A071C070D5369013B53615DF84C
:104AF800044B704753695DF8044B013353617047A9
:104B080043F00403E0E753695DF8044B023B53614B
:104B1800704753695DF8044B023353617047137C47
:104B280003F003030029D1D043F00403CEE700BF0C
:104B3800B0E40020224BD3F88820D2E90010D368D3
:104B48000968006810B41842946801EA04012ED07C
:104B5800137C03F00303D9B943F008039908013B18
:104B680011740D2B0BD8DFE803F00D071C070A168C
:104B78000D0D160A071C070D5369013B53615DF8BB
:104B8800044B704753695DF8044B01335361704718
:104B980043F00403E0E753695DF8044B023B5361BB
:104BA800704753695DF8044B023353617047137CB7
:104BB80003F003030029D1D043F00403CEE700BF7C
:104BC800B0E40020224BD3F88C20D2E90010D3683F
:104BD8000968006810B41842946801EA04012ED0EC
:104BE800137C03F00303D9B943F008039908013B88
:104BF80011740D2B0BD8DFE803F00D071C070A16FC
:104C08000D0D160A071C070D5369013B53615DF82A
:104C1800044B704753695DF8044B01335361704787
:104C280043F00403E0E753695DF8044B023B53612A
:104C3800704753695DF8044B023353617047137C26
:104C480003F003030029D1D043F00403CEE700BFEB
:104C5800B0E40020224BD3F89020D2E90010D368AA
:104C68000968006810B41842946801EA04012ED05B
:104C7800137C03F00303D9B943F008039908013BF7
:104C880011740D2B0BD8DFE803F00D071C070A166B
:104C98000D0D160A071C070D5369013B53615DF89A
:104CA800044B704753695DF8044B013353617047F7
:104CB80043F00403E0E753695DF8044B023B53619A
:104CC800704753695DF8044B023353617047137C96
:104CD80003F003030029D1D043F00403CEE700BF5B
:104CE800B0E40020224BD3F89420D2E90010D36816
:104CF8000968006810B41842946801EA04012ED0CB
:104D0800137C03F00303D9B943F008039908013B66
:104D180011740D2B0BD8DFE803F00D071C070A16DA
:104D28000D0D160A071C070D5369013B53615DF809
:104D3800044B704753695DF8044B01335361704766
:104D480043F00403E0E753695DF8044B023B536109
:104D5800704753695DF8044B023353617047137C05
:104D680003F003030029D1D043F00403CEE700BFCA
:104D7800B0E40020224BD3F89820D2E90010D36881
:104D88000968006810B41842946801EA04012ED03A
:104D9800137C03F00303D9B943F008039908013BD6
:104DA80011740D2B0BD8DFE803F00D071C070A164A
:104DB8000D0D160A071C070D5369013B53615DF879
:104DC800044B704753695DF8044B013353617047D6
:104DD80043F00403E0E753695DF8044B023B536179
:104DE800704753695DF8044B023353617047137C75
:104DF80003F003030029D1D043F00403CEE700BF3A
:104E0800B0E40020224BD3F89C20D2E90010D368EC
:104E18000968006810B41842946801EA04012ED0A9
:104E2800137C03F00303D9B943F008039908013B45
:104E380011740D2B0BD8DFE803F00D071C070A16B9
:104E48000D0D160A071C070D5369013B53615DF8E8
:104E5800044B704753695DF8044B01335361704745
:104E680043F00403E0E753695DF8044B023B5361E8
:104E7800704753695DF8044B023353617047137CE4
:104E880003F003030029D1D043F00403CEE700BFA9
:104E9800B0E40020224BD3F8D020D2E90010D36828
:104EA8000968006810B41842946801EA04012ED019
:104EB800137C03F00303D9B943F008039908013BB5
:104EC80011740D2B0BD8DFE803F00D071C070A1629
:104ED8000D0D160A071C070D5369013B53615DF858
:104EE800044B704753695DF8044B013353617047B5
:104EF80043F00403E0E753695DF8044B023B536158
:104F0800704753695DF8044B023353617047137C53
:104F180003F003030029D1D043F00403CEE700BF18
:104F2800B0E40020224BD3F8D420D2E90010D36893
:104F38000968006810B41842946801EA04012ED088
:104F4800137C03F00303D9B943F008039908013B24
:104F580011740D2B0BD8DFE803F00D071C070A1698
:104F68000D0D160A071C070D5369013B53615DF8C7
:104F7800044B704753695DF8044B01335361704724
:104F880043F00403E0E753695DF8044B023B5361C7
:104F9800704753695DF8044B023353617047137CC3
:104FA80003F003030029D1D043F00403CEE700BF88
:104FB800B0E40020214B1A6AD2E90010D3680968CE
:104FC800006810B41842946801EA04012ED0137CDA
:104FD80003F00303D9B943F008039908013B11749E
:104FE8000D2B0BD8DFE803F00D071C070A160D0D73
:104FF800160A071C070D5369013B53615DF8044B02
:10500800704753695DF8044B01335361704743F0AF
:105018000403E0E753695DF8044B023B53617047B2
:1050280053695DF8044B023353617047137C03F0F6
:1050380003030029D1D043F00403CEE7B0E40020F5
:10504800214B5A6AD2E90010D3680968006810B485
:105058001842946801EA04012ED0137C03F003037C
:10506800D9B943F008039908013B11740D2B0BD8EB
:10507800DFE803F00D071C070A160D0D160A071CBA
:10508800070D5369013B53615DF8044B7047536941
:105098005DF8044B01335361704743F00403E0E7C4
:1050A80053695DF8044B023B5361704753695DF8DF
:1050B800044B023353617047137C03F00303002948
:1050C800D1D043F00403CEE7B0E40020214B9A6A24
:1050D800D2E90010D3680968006810B418429468CF
:1050E80001EA04012ED0137C03F00303D9B943F07D
:1050F80008039908013B11740D2B0BD8DFE803F066
:105108000D071C070A160D0D160A071C070D536913
:10511800013B53615DF8044B704753695DF8044BDC
:1051280001335361704743F00403E0E753695DF8C6
:10513800044B023B5361704753695DF8044B0233DB
:1051480053617047137C03F003030029D1D043F067
:105158000403CEE7B0E40020214BDA6AD2E900105C
:10516800D3680968006810B41842946801EA040119
:105178002ED0137C03F00303D9B943F00803990830
:10518800013B11740D2B0BD8DFE803F00D071C074A
:105198000A160D0D160A071C070D5369013B5361CA
:1051A8005DF8044B704753695DF8044B0133536154
:1051B800704743F00403E0E753695DF8044B023B92
:1051C8005361704753695DF8044B0233536170476C
:1051D800137C03F003030029D1D043F00403CEE786
:1051E800B0E40020214B1A6BD2E90010D36809689B
:1051F800006810B41842946801EA04012ED0137CA8
:1052080003F00303D9B943F008039908013B11746B
:105218000D2B0BD8DFE803F00D071C070A160D0D40
:10522800160A071C070D5369013B53615DF8044BCF
:10523800704753695DF8044B01335361704743F07D
:105248000403E0E753695DF8044B023B5361704780
:1052580053695DF8044B023353617047137C03F0C4
:1052680003030029D1D043F00403CEE7B0E40020C3
:10527800214B5A6BD2E90010D3680968006810B452
:105288001842946801EA04012ED0137C03F003034A
:10529800D9B943F008039908013B11740D2B0BD8B9
:1052A800DFE803F00D071C070A160D0D160A071C88
:1052B800070D5369013B53615DF8044B704753690F
:1052C8005DF8044B01335361704743F00403E0E792
:1052D80053695DF8044B023B5361704753695DF8AD
:1052E800044B023353617047137C03F00303002916
:1052F800D1D043F00403CEE7B0E40020214B9A6BF1
:10530800D2E90010D3680968006810B4184294689C
:1053180001EA04012ED0137C03F00303D9B943F04A
:1053280008039908013B11740D2B0BD8DFE803F033
:105338000D071C070A160D0D160A071C070D5369E1
:10534800013B53615DF8044B704753695DF8044BAA
:1053580001335361704743F00403E0E753695DF894
:10536800044B023B5361704753695DF8044B0233A9
:1053780053617047137C03F003030029D1D043F035
:105388000403CEE7B0E40020214BDA6BD2E9001029
:10539800D3680968006810B41842946801EA0401E7
:1053A8002ED0137C03F00303D9B943F008039908FE
:1053B800013B11740D2B0BD8DFE803F00D071C0718
:1053C8000A160D0D160A071C070D5369013B536198
:1053D8005DF8044B704753695DF8044B0133536122
:1053E800704743F00403E0E753695DF8044B023B60
:1053F8005361704753695DF8044B0233536170473A
:10540800137C03F003030029D1D043F00403CEE753
:10541800B0E40020214B1A6CD2E90010D368096867
:10542800006810B41842946801EA04012ED0137C75
:1054380003F00303D9B943F008039908013B117439
:105448000D2B0BD8DFE803F00D071C070A160D0D0E
:10545800160A071C070D5369013B53615DF8044B9D
:10546800704753695DF8044B01335361704743F04B
:105478000403E0E753695DF8044B023B536170474E
:1054880053695DF8044B023353617047137C03F092
:1054980003030029D1D043F00403CEE7B0E4002091
:1054A800214B5A6CD2E90010D3680968006810B41F
:1054B8001842946801EA04012ED0137C03F0030318
:1054C800D9B943F008039908013B11740D2B0BD887
:1054D800DFE803F00D071C070A160D0D160A071C56
:1054E800070D5369013B53615DF8044B70475369DD
:1054F8005DF8044B01335361704743F00403E0E760
:1055080053695DF8044B023B5361704753695DF87A
:10551800044B023353617047137C03F003030029E3
:10552800D1D043F00403CEE7B0E40020214B9A6CBD
:10553800D2E90010D3680968006810B4184294686A
:1055480001EA04012ED0137C03F00303D9B943F018
:1055580008039908013B11740D2B0BD8DFE803F001
:105568000D071C070A160D0D160A071C070D5369AF
:10557800013B53615DF8044B704753695DF8044B78
:1055880001335361704743F00403E0E753695DF862
:10559800044B023B5361704753695DF8044B023377
:1055A80053617047137C03F003030029D1D043F003
:1055B8000403CEE7B0E40020214BDA6CD2E90010F6
:1055C800D3680968006810B41842946801EA0401B5
:1055D8002ED0137C03F00303D9B943F008039908CC
:1055E800013B11740D2B0BD8DFE803F00D071C07E6
:1055F8000A160D0D160A071C070D5369013B536166
:105608005DF8044B704753695DF8044B01335361EF
:10561800704743F00403E0E753695DF8044B023B2D
:105628005361704753695DF8044B02335361704707
:10563800137C03F003030029D1D043F00403CEE721
:10564800B0E40020214B1A6DD2E90010D368096834
:10565800006810B41842946801EA04012ED0137C43
:1056680003F00303D9B943F008039908013B117407
:105678000D2B0BD8DFE803F00D071C070A160D0DDC
:10568800160A071C070D5369013B53615DF8044B6B
:10569800704753695DF8044B01335361704743F019
:1056A8000403E0E753695DF8044B023B536170471C
:1056B80053695DF8044B023353617047137C03F060
:1056C80003030029D1D043F00403CEE7B0E400205F
:1056D800214B5A6DD2E90010D3680968006810B4EC
:1056E8001842946801EA04012ED0137C03F00303E6
:1056F800D9B943F008039908013B11740D2B0BD855
:10570800DFE803F00D071C070A160D0D160A071C23
:10571800070D5369013B53615DF8044B70475369AA
:105728005DF8044B01335361704743F00403E0E72D
:1057380053695DF8044B023B5361704753695DF848
:10574800044B023353617047137C03F003030029B1
:10575800D1D043F00403CEE7B0E40020214B9A6D8A
:10576800D2E90010D3680968006810B41842946838
:1057780001EA04012ED0137C03F00303D9B943F0E6
:1057880008039908013B11740D2B0BD8DFE803F0CF
:105798000D071C070A160D0D160A071C070D53697D
:1057A800013B53615DF8044B704753695DF8044B46
:1057B80001335361704743F00403E0E753695DF830
:1057C800044B023B5361704753695DF8044B023345
:1057D80053617047137C03F003030029D1D043F0D1
:1057E8000403CEE7B0E40020214BDA6DD2E90010C3
:1057F800D3680968006810B41842946801EA040183
:105808002ED0137C03F00303D9B943F00803990899
:10581800013B11740D2B0BD8DFE803F00D071C07B3
:105828000A160D0D160A071C070D5369013B536133
:105838005DF8044B704753695DF8044B01335361BD
:10584800704743F00403E0E753695DF8044B023BFB
:105858005361704753695DF8044B023353617047D5
:10586800137C03F003030029D1D043F00403CEE7EF
:10587800B0E4002000F59F6200230F494FF0400C70
:1058880010B5026300F5A762016000F5AF614263DD
:1058980000F5B762A0F846C004468163026400625E
:1058A800C0E901335023A0F8483006F0CFFB034B82
:1058B8002046236010BD00BF040D0020940C00207A
:1058C8000022034613494FF4806C10B4124C43F87D
:1058D800284BA0F808C0C0E903230B68C0E90A22D6
:1058E800C0E90C229BB11A465B69002BFBD15061C1
:1058F80000224FF4803309495DF8044B426142604D
:1059080082720160C0E90633C0E908337047086055
:10591800EEE700BFECE20020E00C0020D40C0020F1
:105928000B4610B5362800F29782DFE810F08C029B
:1059380082027902700267025E0255024C0243023B
:105948003A02310228021F02BF01B601AD01A401CB
:105958009B0192018901800177016E0165015C015B
:1059680053014A01410138012F0126011D0113018C
:105978000901FF00F500EB00E100D700CD00C300EE
:10598800B900AF00A5009B00910087007D0073005F
:1059980069005F0055004B0041003700C84C0422E5
:1059A800C8493620C4F8D83013F066FB012010BD72
:1059B800C34C0422C4493520C4F8D43013F05CFB2E
:1059C800012010BDBE4C0422C0493420C4F8D03098
:1059D80013F052FB012010BDB94C0422BC493320FE
:1059E800C4F8CC3013F048FB012010BDB44C04229D
:1059F800B8493220C4F8C83013F03EFB012010BD6E
:105A0800AF4C0422B4493120C4F8C43013F034FB3D
:105A1800012010BDAA4C0422B0493020C4F8C0307F
:105A280013F02AFB012010BDA54C0422AC492F20FD
:105A3800C4F8BC3013F020FB012010BDA04C042298
:105A4800A8492E20C4F8B83013F016FB012010BD69
:105A58009B4C0422A4492D20C4F8B43013F00CFB4D
:105A6800012010BD964C0422A0492C20C4F8B03067
:105A780013F002FB012010BD914C04229C492B20FD
:105A8800C4F8AC3013F0F8FA012010BD8C4C042295
:105A980098492A20C4F8A83013F0EEFA012010BD66
:105AA800874C042294492920C4F8A43013F0E4FA5E
:105AB800012010BD824C042290492820C4F8A0304F
:105AC80013F0DAFA012010BD7D4C04228C492720FE
:105AD800C4F89C3013F0D0FA012010BD784C042291
:105AE80088492620C4F8983013F0C6FA012010BD62
:105AF800734C042284492520C4F8943013F0BCFA6E
:105B0800012010BD6E4C042280492420C4F8903036
:105B180013F0B2FA012010BD694C04227C492320FD
:105B2800C4F88C3013F0A8FA012010BD644C04228C
:105B380078492220C4F8883013F09EFA012010BD5D
:105B48005F4C042274492120C4F8843013F094FA7D
:105B5800012010BD5A4C042270492020C4F880301E
:105B680013F08AFA012010BD554C04226C491F20FD
:105B7800E36713F081FA012010BD514C04226949F2
:105B88001E20A36713F078FA012010BD4C4C0422A4
:105B980065491D20636713F06FFA012010BD484C5A
:105BA800042262491C20236713F066FA012010BD05
:105BB800434C04225E491B20E36613F05DFA012082
:105BC80010BD3F4C04225B491A20A36613F054FA17
:105BD800012010BD3A4C042257491920636613F07E
:105BE8004BFA012010BD364C042254491820236674
:105BF80013F042FA012010BD314C042250491720FD
:105C0800E36513F039FA012010BD2D4C04224D49EB
:105C18001620A36513F030FA012010BD284C042289
:105C280049491520636513F027FA012010BD244C5B
:105C3800042246491420236513F01EFA012010BDE2
:105C48001F4C042242491320E36413F015FA012083
:105C580010BD1B4C04223F491220A36413F00CFA18
:105C6800012010BD164C04223B491120636413F037
:105C780003FA012010BD124C042238491020236475
:105C880013F0FAF9012010BD0D4C042234490F20FD
:105C9800E36313F0F1F9012010BD094C04223149E6
:105CA8000E20A36313F0E8F9012010BD044C042270
:105CB8002D490D20636313F0DFF9012010BD00BFEB
:105CC800B0E4002035050000551A0000C519000091
:105CD80075070000E506000055060000C505000030
:105CE80055100000C50F0000350F0000A50E00007C
:105CF800150E0000850D0000F50C0000650C000075
:105D080035190000A51800001518000085170000B7
:105D1800F516000065160000D515000045150000B1
:105D2800B91400002D140000A11300001513000081
:105D380089120000FD11000071110000E51000003B
:105D4800192300008D2200000122000075210000A7
:105D5800E92000005D200000D11F0000451F000061
:105D6800B91E00002D1E0000A11D00003B4C04229E
:105D78003B490C20236313F07FF9012010BD374CF9
:105D8800042238490B20E36213F076F9012010BD94
:105D9800324C042234490A20A36213F06DF9012021
:105DA80010BD2E4C042231490920636213F064F9B6
:105DB800012010BD294C04222D490820236213F02C
:105DC8005BF9012010BD254C04222A490720E36114
:105DD80013F052F9012010BD204C04222649062058
:105DE800A36113F049F9012010BD1C4C042223497A
:105DF8000520636113F040F9012010BD0422174CFF
:105E08001F491046236113F037F9012010BD134CC8
:105E180004221C490320E36013F02EF9012010BD71
:105E28000E4C042218490220A36013F025F9012022
:105E380010BD04460948042214494360012013F0A8
:105E48001BF9204610BD054C04221149002023608F
:105E580013F012F9012010BD002010BDB0E400209D
:105E6800151D0000891C0000FD1B0000711B0000AF
:105E7800E51A0000D90B00004D0B0000C10A000014
:105E8800350A0000A90900001D090000910800005A
:105E9800050800002DE9F0410F4616460446022188
:105EA800384612F0A3FE0221304612F09FFE224B24
:105EB8003A0122483101DFF88CC053F8028003EB25
:105EC8000712C4F80080D2F80CE003EB0612595808
:105ED8000023C4F808E0D2686361194BE2604568A2
:105EE8001B686160ACFB033C4FF4FA634FEA9C4CBF
:105EF80003FB0CFC43685B1B9C45FBD8D8F80030BF
:105F0800384609681EEA030F14BF012300230A421A
:105F1800214618BF43F002032374FFF701FD03462F
:105F2800214630462376FFF7FBFC227E03462046B7
:105F380013442376BDE8F08180100020001000E0B3
:105F4800C054002083DE1B43F0288C46114610B550
:105F5800029C9DF80CE007D0BEF10F0F03D8EF2884
:105F68000DD8020628D410BDBEF10F0FFBD872461B
:105F780020460CEB0121BDE8104014F0E5BEF728DF
:105F880033D8F62831D000F0FD03F12B37D0F228B2
:105F9800E9D14FEA0C4C4FF2032012060CF4FE0C28
:105FA80002F0FE424CEA0E1C4CEA020CBDE810401E
:105FB8004CEA000014F06EBE013B0A064FEA0C41A1
:105FC80000F0F0001B0202F0FE4201F4FE0103F4AF
:105FD800706343EA0E1313430B4343EA0023BDE8FF
:105FE800104043EA101014F055BE4FEA0E1E4EEA58
:105FF8000020BDE8104040F00F0014F04BBE4FEAFF
:106008000C4101F4FE0141EA002040EA0E10BDE80F
:10601800104040F0020014F03DBE00BF2DE9F047EB
:106028003C4F84B0DFF8048106463B68D8F800206E
:10603800934262DC002BDFF8F8900ADD4C4600251D
:1060480020460C340135214612F024FB3B689D4262
:10605800F6DB03EB4303314609EB830012F01AFB2E
:1060680038680138C8F8000000EB400031460025C8
:1060780009EB800012F00EFB27480FF0FBFC012112
:1060880025480FF059FC2549234810F0E1FA244A25
:10609800202329462048CDE90252CDE900550A229D
:1060A8000FF034FE01211C480FF046FC1D491A4828
:1060B80010F0CEFA3B68AB4214DDDFF874A016246A
:1060C800194EA9465146A6F8BA403046A6F8B890E7
:1060D80012F0FAF901353B680A340AF10C0AAB42AE
:1060E800A4B2EFDC0C480FF0D1FCD8F80030013333
:1060F800C8F8003004B0BDE8F08702EB4202DFF8D0
:106108003090314609EB820012F0C4FAD8F800004A
:10611800AAE700BFC454002064F00020A02C00208F
:10612800200700203C3700205CF00020CCDD002058
:1061380090C500202DE9F0478AB0264E264908244C
:1061480004A8264D12F0E6F931780A2201A8013197
:10615800DFF88CA012F072FA01A904A8DFF8848095
:1061680012F0E0FA014607A8DFF87C9012F0F0F987
:1061780007A8FFF753FF07A812F024FA01A812F0A6
:1061880021FA04A812F01EFA02E001340E2C1DD0E8
:1061980015F8013B022BF8D13378A342F5D10AEB6D
:1061A80084030021A700013413F8200C4F44030195
:1061B80008EB001258F80330D268C3F8882012F0B0
:1061C800D9FC00230E2C47F8203CE1D10AB0BDE8E9
:1061D800F08700BF12F300200C070020985400201D
:1061E8001C580020801000209CEC00202DE9F04174
:1061F800144C154E154D04F10608154F0DE0337873
:106208001A01444507EB031306F10406BA5805F1D1
:106218000405DB68C2F8883011D014F8013B01216D
:10622800002BECD0337828781A0107EB0313BA58FF
:10623800DB68C2F8843012F0D9FC2B78E0E7BDE8BF
:10624800F08100BF98540020345800201C580020CA
:1062580080100020F0B5204C85B006460D4620463B
:1062680002270FF007FC2046012106EB860610F0F6
:1062780061F92046012105EB85050FF05DFB2046FD
:10628800164910F0E5F9164B0F22204603EB86035A
:1062980000260393314639230096CDE901770FF0A4
:1062A80035FD3146204610F045F920460D4910F0DD
:1062B800CFF90D484223302200EB8500402100969B
:1062C80003902046CDE901770FF020FD204605B068
:1062D800BDE8F0400FF0DABB64F000205C3B002022
:1062E800A06600209C14002064660020F0B5204CB5
:1062F80085B006460D46204602270FF0BBFB204618
:10630800012106EB860610F015F92046012105EB60
:1063180085050FF011FB2046164910F099F9164B28
:106328000F22204603EB86030026039331463923C8
:106338000096CDE901770FF0E9FC3146204610F0D0
:10634800F9F820460D4910F083F90D484223302210
:1063580000EB85004021009603902046CDE90177A7
:106368000FF0D4FC204605B0BDE8F0400FF08EBB1E
:1063780064F000205C3B0020EC6200209C140020AC
:106388008463002010B5234C82B020460FF072FBC6
:106398002046012110F0CEF8204601210FF0CCFA5A
:1063A80020461D4910F054F91C4B17222A2120467B
:1063B80010F034F920461A4910F04AF9194B3422E2
:1063C8000B21204610F02AF902230E200422194638
:1063D8000090204610F05AFA042214232046009216
:1063E800032110F053FA20460F4910F031F90F4BF2
:1063F80028220521204610F011F9032220461423F3
:106408000221009210F042FA204602B0BDE8104086
:106418000FF03CBB64F00020E8460020380700205D
:106428000025002040070020D42800205007002025
:1064380038B5044600254FF6FF7303208022A4F8E0
:10644800585084F8700004F1780084F85A50656751
:1064580084F8F850C4E91451C4E900552946C4E940
:106468000255C4E90455C4E90655C4E90855C4E908
:106478000A55C4E90C55C4E90E55C4E91055C4E9D8
:106488001255C4E91855C4E91A3316F0C3FB20465F
:10649800C4F80851A4F80C51C4E9405538BD00BFF0
:1064A80038B5044600254FF6FF7303208022A4F870
:1064B800585084F8700004F1780084F85A506567E1
:1064C80084F8F850C4E91451C4E900552946C4E9D0
:1064D8000255C4E90455C4E90655C4E90855C4E998
:1064E8000A55C4E90C55C4E90E55C4E91055C4E968
:1064F8001255C4E91855C4E91A3316F08BFB204627
:10650800C4F80851A4F80C51C4E9405538BD00BF7F
:1065180038B5436D04460D460022186847F6122127
:106528000368DB6998474FF6FF720C49002384F82B
:106538005850096884F85A3084F85930C4F8001162
:1065480084F8F8306367C4F8FC30C4E91A220322DF
:10655800C4E9183384F8702038BD00BF54F0002017
:1065680038B5436D04460D460022186847F61221D7
:106578000368DB6998474FF6FF720C49002384F8DB
:106588005850096884F85A3084F85930C4F8001112
:1065980084F8F8306367C4F8FC30C4E91A2203228F
:1065A800C4E9183384F8702038BD00BF54F00020C7
:1065B8002DE9F04FB64D83B0B64C40F2EE28B64FF9
:1065C800DFF8A4932E6815F0B1F82378002B00F0BB
:1065D80037813B78DA0740F133812B68D9F80020FE
:1065E8009B1A0E2B40F22C81AC4C01210D20AC4D96
:1065F80004F1180612F0FAFA54F8040B0121C0B29B
:1066080012F0F4FA55F8040B0121C0B212F0EEFAB8
:10661800B442F1D172B60025A24B5D6162B672B682
:10662800A14B5D6162B60A21A04816F079FEDFF839
:106638003C839F4A9F4CC8F81C204FF400422046D8
:106648009FED9D0AC8F820209C4ADFF824B32263F6
:106658009B4ADFF820A322620EF0EEFC9FED990A18
:1066680020460EF013FD984A2946DFF80C93104691
:10667800964FFFF74DFF29465846954EFFF748FFBE
:1066880029465046934CFFF743FF29464846FFF7F3
:106698003FFF29469048FFF73BFF29463846FFF75A
:1066A80037FF29463046FFF733FF29462046FFF7D4
:1066B8002FFF854A884B4FF4FA7082F870500822F1
:1066C80083F87050854B87F8705086F8705084F8BE
:1066D80070501C468BF870508AF8705089F87050CA
:1066E800C3F8842012F0C8F908227D4FC4F8882026
:1066F80003F066FB7B4A7C497C1E7C4807F1230635
:1067080011607B4A7B499FED7C0A11607B4A7C497A
:1067180011607C4A7C49116016F006FE29467B48C8
:10672800FFF71EFF7A489FED740A16F0FDFD294613
:106738007848FFF715FF78489FED6F0A16F0F4FDCB
:1067480029467648FFF70CFF75489FED6B0A16F04F
:10675800EBFD29467348FFF703FF73489FED660A70
:1067680016F0E2FD29467148FFF7FAFE70489FEDE2
:10677800620A16F0D9FD29466E48FFF7F1FE6E4809
:1067880010F07AFC6C480FF009FB29466A48C7F1FB
:10679800010510F07BFC68480FF06CF90121664890
:1067A8000FF0C8FE012164480FF0C6F8634962483B
:1067B8000FF04EFF624B14220A215F480FF02EFFA4
:1067C80060495D480FF044FF5F4B2A2206215A4872
:1067D8000FF024FF38227C2304215748009210F040
:1067E80055F855480FF052F9281912F089FA04F8AB
:1067F800010FB442F8D1FFF7F9FC72B60023294A19
:10680800536162B63B6A72B6274A536162B697ED26
:10681800087A9FED4E6AB8EEC77ADFED4D6AC7EE8B
:10682800067AF4EEE67AF1EE10FA17DC9FED497A73
:10683800F4EEC77AF1EE10FA20D5474B1C460FE06C
:106848002B6822789B1B32B1B3F5FA6F3FF6CCAEBA
:1068580014F06CFFB7E64345FAD9C5E63F4B1C4632
:106868003F494FF47A703F4A8B61946112F004F902
:106878000023C8E9073303B0BDE8F08FB0EE677AAC
:10688800BEEEC87A17EE103AE9D5334CE8E700BFF8
:1068980054F0002010F300200FF30020345800209B
:1068A8001C58002008C6002024C600200000202014
:1068B800B8DF8D02BCEC00200000000013952C000E
:1068C8006C7C01006666C63F00CA0020A0D4002088
:1068D800B0D50020C0D6002090D300200040004250
:1068E800985400205CF10020C902000060C9002013
:1068F80058F10020C10300004E79154B4CF10020DF
:106908004101000078F10020652C0000D0D700205C
:1069180040C6002010CB0020E0C6002020CC00207C
:1069280080C7002030CD002020C8002040CE0020A5
:10693800C0C8002050CF002064F00020F04B002099
:10694800701400203C3700207C1400200000C8424E
:1069580000FEFF4600FEFFC6000001800000FF7F2A
:10696800E0ED0020A8ED002040F100202CF00020F0
:1069780060D0002070D1002080D20020E0292DE9CD
:10698800F0410C4605469DF818C022D80CF1FF319D
:10699800C9B20F291FD820061DD51F466B6D21438C
:1069A8001646186804F0EF0403681B6898476B6D77
:1069B80006F07F01186803681B689847C02C0AD046
:1069C8006B6D07F07F0118680368BDE8F0411B682C
:1069D8001847F72901D8BDE8F0810834DD23E4B26F
:1069E800E340DB07F7D5436DEDE700BFE0292DE96C
:1069F800F0410C4605469DF818C022D80CF1FF312D
:106A0800C9B20F291FD820061DD51F466B6D21431B
:106A18001646186804F0EF0403681B6898476B6D06
:106A280006F07F01186803681B689847C02C0AD0D5
:106A38006B6D07F07F0118680368BDE8F0411B68BB
:106A48001847F72901D8BDE8F0810834DD23E4B2FE
:106A5800E340DB07F7D5436DEDE700BF036810B5EA
:106A680004460BB17430984794F87530803B7F2BFF
:106A780044D8DFE803F0404343434343434343439D
:106A8800434343434343C143434343434343434350
:106A9800434343434343BD43434343434343434344
:106AA800434343434343B143434343434343434340
:106AB800434343434343AD43434343434343434334
:106AC800434343434343A34343434343434343432E
:106AD8004343434343438F43434343434343434332
:106AE800434343434343827E6E66434362435E5A55
:106AF80056524E434A44A368002B70D110BD236DF3
:106B0800002BFBD0BDE810401847E36C002BF9D1EF
:106B1800F4E7A36C002BF5D1F0E7636C002BF1D1FF
:106B2800ECE7E36B002BEDD1E8E7236C002BE9D110
:106B3800E4E7A36B002BE5D1E0E7636B002BE1D121
:106B4800DCE7236B002BD9D094F87600BDE8104021
:106B58001847E26A002AD1D094F8773094F8760082
:106B6800DB0100F07F0003F47E53BDE810401843BA
:106B78001047A36A002BE7D1C0E7636A002BBDD09A
:106B8800B4F8761004F178008029BDE8104028BFD9
:106B980080211847226A002AB0D094F8771094F818
:106BA8007630C90194F8740003F07F0301F47E5134
:106BB8001943BDE81040A1F500511047E369002BC7
:106BC8009CD094F8761094F87400BDE810401847EB
:106BD800A369002BF5D191E76369002B8ED094F857
:106BE800772094F8761094F87400BDE810401847A0
:106BF8002369002BF3D181E7E368002BEFD17DE710
:106C080038B5436D0446186803681B69984700281F
:106C180000F0CA8094F80D31626D23F0010384F806
:106C28000D31106803685B699847C3B2FD2B00F00B
:106C3800BB80656E002D40F0B98094F8592084F827
