:10000000D9C00000FEC00000FCC00000FAC0000023
:10001000F8C00000F6C00000F4C00000F2C000000C
:10002000F0C00000EEC0000089C700000C94170863
:10003000E8C00000E6C00000E4C00000E2C000002C
:10004000E0C00000DEC00000DCC00000DAC000003C
:10005000D8C00000D6C00000D4C00000CEC600004A
:10006000D0C00000FFC4000024C500004FC5000040
:10007000C8C00000C6C00000C4C000001CC300000F
:100080007EC20000C2C30000BCC00000BAC00000B5
:10009000B8C00000B6C00000B4C00000B2C000008C
:1000A000B0C00000AEC00000ACC0000001230223BD
:1000B0000423082380230129022904290829402632
:1000C000802640298029102320234023802F402F81
:1000D000202F102F022F012F10292029402C000142
:1000E00000008F0112000200004C014300030000D9
:1000F000480104010309042E011802030904160132
:10010000160303090408010C0C033100320033000C
:100110003400350000001603550053004200200053
:10012000530065007200690061006C000000180354
:100130005400650065006E0073007900640075006E
:1001400069006E006F000000040309040902430007
:10015000020100C03209040000010202010005246E
:1001600000100105240100010424020605240600F4
:10017000010705820308004009040100020A00008B
:10018000000705030240000007058402400000123A
:1001900001000202000020C0168304710201020364
:1001A000010001C102018036018136003001A00545
:1001B000790B540111241FBECFEFDAE0DEBFCDBFB3
:1001C00011E0A0E0B1E0EEE6F7E102C005900D928B
:1001D000AE33B107D9F722E0AEE3B1E001C01D9222
:1001E000AB37B207E1F710E0C9EDD0E004C02197CA
:1001F000FE010E948C0BC63DD107C9F7DAD40C94DE
:10020000AB0BFECE90E080E00895569A3F98479859
:100210003E9A4FEF64E370E080EF91E0EAD340E074
:1002200056E960E070E081E792E00E94130B60E025
:1002300072E080E090E002D15E9A62E370E080E0DC
:1002400090E01BD65E9862E370E080E090E015D607
:100250005E9A62E370E080E090E00FD65E980895C9
:10026000E4E4F1E0128288EE93E0A0E0B0E0838362
:100270009483A583B68317828CE091E09183808379
:100280000FB6F8948091660290916702A09168027F
:10029000B09169020FBE8093400190934101A093F9
:1002A0004201B093430108958CE091E090934501A1
:1002B00080934401F6C21F93CF93DF9300D0CDB754
:1002C000DEB784E491E0AAD010E0892BC1F084E489
:1002D00091E07BD080933E0190933F01682F80EFA7
:1002E00091E041D380913E018A8341E050E0BE011C
:1002F0006E5F7F4F81E792E00E94130A11E080EF6A
:1003000091E0E1D2892BA9F080EF91E00FD38093A7
:100310003E0190933F01F7D080913E01898341E0F7
:1003200050E0BE016F5F7F4F81E792E00E94130AA9
:1003300011E081E792E0FCD7892B19F181E792E087
:100340000E94D10980933E0190933F01DCD06091DF
:100350003E0180EF91E007D35E9A0FB6F89480914A
:10036000660290916702A0916802B09169020FBE87
:100370008093400190934101A0934201B0934301C7
:1003800002C01111E9CF0FB6F894809166029091E6
:100390006702A0916802B09169020FBE40914001CE
:1003A000509141016091420170914301841B950B72
:1003B000A60BB70B4097A105B10508F05E980F900A
:1003C0000F90DF91CF911F9108958091E601909158
:1003D000E501891769F09F5F903508F090E0E92FFB
:1003E000F0E0EB56FE4F80819093E50190E0089598
:1003F0008FEF9FEF08958091E601E091E5018E1760
:1004000051F0EF5FE03508F0E0E0F0E0EB56FE4F32
:10041000808190E008958FEF9FEF08955091E6015D
:100420004091E501852F90E0242F30E0541718F01B
:10043000821B930B0895805B9F4FFACF9B01AC0109
:10044000213668E136074105510540F410927100EC
:100450001092900081E88093910018C0DC01C901DE
:1004600073E0B695A795979587957A95D1F78136DC
:1004700068E19607A105B105B0F5109271001092E0
:10048000900022E8209391009C01AD013093EF0190
:100490002093EE01A5E2B0E00E94920B22E0969537
:1004A0008795779567952A95D1F77093E8016093C2
:1004B000E7013F98479A469A809190008F77809302
:1004C00090003E9A1092ED011092E6011092E50123
:1004D00010929401109291011092900180E288BBD9
:1004E000809371000895232F342F452F55272136EF
:1004F00088E1380741055105A8F710927100109264
:10050000900084E8A8CF909191019F5F943408F007
:1005100090E0209190012917E1F32FB7F8943091E2
:100520009401332349F0E92FF0E0E45BFE4F808330
:10053000909391012FBF089591E09093940180933F
:1005400093011092920182E088BB809171008260D9
:1005500080937100809190008F7B806880939000E1
:10056000809194009091950040969093990080938B
:100570009800E0CF862FC7DF81E090E008951F92BA
:100580000F920FB60F9211242F933F934F935F93C7
:100590006F937F938F939F93EF93FF932091940199
:1005A0006091930180919800909199004091EE01A3
:1005B0005091EF01309192012A3070F5840F951F10
:1005C000762F7170293009F471E066952F5F371727
:1005D00099F3309190007723E1F0306C30939000E4
:1005E0009093990080939800709392016093930187
:1005F00020939401FF91EF919F918F917F916F9143
:100600005F914F913F912F910F900FBE0F901F90D0
:1006100018953F7B3068E2CF30919101E0919001D5
:100620003E1319C02A3051F42BE020939401840F1B
:10063000951F9093990080939800DCCF10929401BD
:10064000809190008F7380939000809171008D7FD6
:1006500080937100CFCFEF5FE43408F0E0E0E093E7
:100660009001F0E0E45BFE4F3081309393011092F3
:100670009201309190003F7B3068309390002A3097
:1006800071F42091EE013091EF01820F931F90934E
:1006900099008093980081E080939401ABCF809182
:1006A0009400909195004096F2CF80919401811131
:1006B000FCCF0895FACF1F920F920FB60F9211241C
:1006C0002F933F934F935F936F937F938F939F935A
:1006D000AF93BF93EF93FF93809196009091970013
:1006E0004091EB01209191004423F1F12F7B209365
:1006F00091001092EB013091ED0131113CC041119C
:1007000022C02091E7013091E801280F391F309372
:100710009B0020939A0024E028BB20917100246064
:10072000209371002091EE013091EF01820F931F11
:1007300036952795280F391F3093EA012093E90158
:1007400081E08093ED01FF91EF91BF91AF919F9177
:100750008F917F916F915F914F913F912F910F906A
:100760000FBE0F901F90189520642093910020E8F1
:100770002093EB01C0CF4091E9015091EA016091D3
:10078000EE017091EF01DB01A095B0952091EC0195
:10079000E091EB01841B950BA817B90768F126952A
:1007A0002E2B460F571F3F5F861B970B3930A0F348
:1007B0002093EC01809171008B7F80937100809178
:1007C000E6018F5F803508F080E09091E501981791
:1007D00049F0E82FF0E09091EC01EB56FE4F90834A
:1007E0008093E601809191008F7B8093910010921D
:1007F000EB011092ED01A7CF2093EC015093EA0199
:100800004093E9013093ED019ECF1F920F920FB6F6
:100810000F9211242F938F939F93EF93FF938091C7
:1008200071008B7F80937100809191008F7B80930A
:1008300091008091ED012091EB0120589091EC0105
:10084000893020F49695922B8F5FFACF9093EC012C
:100850008091E6018F5F803508F080E02091E5010E
:10086000281739F0E82FF0E0EB56FE4F9083809385
:10087000E6011092ED01809191008F7B80939100B1
:100880001092EB01FF91EF919F918F912F910F901B
:100890000FBE0F901F9018958091E5018093E6019F
:1008A0000895CF93DF93C1E7D0E088818B7F888361
:1008B00088818F7D8883F0DFF8DE88818D7F888353
:1008C000DF91CF9108955091240240912302852F0A
:1008D00090E0242F30E0541718F0821B930B0895FA
:1008E000805C9F4FFACF5091FA014091F901252F7A
:1008F00030E0842F90E0821B930B541710F0879602
:1009000008950197089580912402E09123028E17A3
:1009100051F0EF5FE03408F0E0E0F0E0EB5DFD4F18
:10092000808190E008958FEF9FEF089590912402C9
:1009300080912302981779F0909123029F5F903461
:1009400008F090E0E92FF0E0EB5DFD4F808190939F
:10095000230290E008958FEF9FEF08958091F801B2
:100960008111FCCF08952091C90023FD06C021E02C
:10097000FC01228390E080E00895809100018F3F88
:1009800041F08091F801811104C0E0910001F0E094
:1009900075D19091FA018091F901981304C080916A
:1009A000C80085FD19C08091FA018F5F8832F8F484
:1009B0009091F9019817E1F3E82FF0E0E550FE4F30
:1009C000608391E09093F8018093FA018091C900CF
:1009D00080628093C90008C08FB7F8946093CE00FE
:1009E00091E09093F8018FBF81E090E0089580E05E
:1009F000DFCF1F93CF93DF93EB01142F40930001C0
:100A00004F3F29F0842F29D1E12FF0E03DD1C0FFE5
:100A100024C0C13080E1D80700F582E08093C8008F
:100A20002197D093CD00C093CC008091C90083FD65
:100A300010C010922402109223021092FA01109218
:100A4000F9011092F80186E08093CA0088ED809346
:100A5000C900DF91CF911F9108951092C800D695DB
:100A6000C795DECF1F920F920FB60F9211242F93CE
:100A70008F939F93EF93FF939091CE0080912402E8
:100A80008F5F803408F080E020912302281739F02E
:100A9000E82FF0E0EB5DFD4F908380932402FF91FF
:100AA000EF919F918F912F910F900FBE0F901F90FC
:100AB00018951F920F920FB60F9211248F939F9348
:100AC000EF93FF939091FA018091F90198130EC072
:100AD0008091C9008F7D8093C900FF91EF919F9114
:100AE0008F910F900FBE0F901F9018958091F90174
:100AF0008F5F883208F080E0E82FF0E0E550FE4F8D
:100B000090819093CE008093F901E7CF1F920F92CE
:100B10000FB60F9211248F93EF93FF931092F80169
:100B2000809100018F3F21F0E0910001F0E0ACD016
:100B3000FF91EF918F910F900FBE0F901F9018951E
:100B4000E0EFF1E0128288EE93E0A0E0B0E0838372
:100B50009483A583B68317828EE191E0918380838D
:100B60000895CF92DF92EF92FF920F931F93CF934E
:100B7000DF936C01EB017B01E40EF51E10E000E059
:100B8000CE15DF0561F06991D601ED91FC910190E0
:100B9000F081E02DC6010995080F191FF1CFC8019A
:100BA000DF91CF911F910F91FF90EF90DF90CF9049
:100BB000089524D02ADB7FDBFECF1DBA1092680097
:100BC0001CBC10BE1FBA10927A0010926E001092D8
:100BD0006F0010927100109272001092C900ECEB3D
:100BE000F0E0108214B817B81AB81DB810BA108205
:100BF00015B818B81BB81EB811BA0895F894E1E6F4
:100C0000F0E020E82083108283E084BD85BDEEE61D
:100C1000F0E080818160808381E08093800092E0B9
:100C20009093810080939000909391009093C000E6
:100C300094E09093C1008093C2008093C30010920F
:100C4000C40086E880937A0020937B0010927E0097
:100C500010927D0051D178940895893170F4ECEAB6
:100C6000F0E0880FE80FF11D2591E491F0E09FB7C7
:100C7000F8948181822B81839FBF0895E93150F4DC
:100C8000EE0FE55BF94F0994E93120F4EE0FE358DC
:100C9000F94F09940895289A0895299A08952A9A4F
:100CA00008952B9A08952F9A6AC0589A58C0599A55
:100CB00008955A9A08955B9A0895469A66C0479A8D
:100CC0006AC05E9A08955F9A6CC02C9A08952D9A16
:100CD0004AC02E9A4EC08F9A08958E9A08958D9A82
:100CE00008958C9A0895899A0895889A08955C9A2F
:100CF00008955D9A0895769A0895289808952998F8
:100D000008952A9808952B9808952F9838C05898D8
:100D100026C0599808955A9808955B980895469862
:100D200034C0479838C05E9808955F983AC02C98B0
:100D300008952D9818C02E981CC08F9808958E98ED
:100D400008958D9808958C980895899808958898A5
:100D500008955C9808955D98089576980895E4B58F
:100D6000EF7DE4BD0895E0918000EF77E09380008F
:100D70000895E0918000EF7DE09380000895E09178
:100D80008000E77FE09380000895E0919000EF7786
:100D9000E09390000895E091C000EF77E093C000E9
:100DA0000895E091C200E77FE093C2000895F894AF
:100DB00084B7877F84BF80916000806180936000EA
:100DC0001092600080E29EE40197F1F781E0809349
:100DD000E00080E28093D80080E69AEE0197F1F778
:100DE000ECDE0C94003FFFCFF894E7DE80E69AEE4D
:100DF0000197F1F70C940000FFCF8F938FB78F937B
:100E0000809165028D5F8D37D0F48093650280916B
:100E100066028F5F80936602D8F0809167028F4FE1
:100E200080936702A8F0809168028F4F80936802D8
:100E300078F0809169028F4F8093690209C08D57C5
:100E400080936502809166028E5F8093660228F728
:100E500080916A028C5F80936A0258F080916B02E5
:100E60008F4F80936B0228F080916C028F4F80939C
:100E70006C028F918FBF8F911895CF92DF92EF9276
:100E8000FF926B017C0119D09B01C114D104E104D4
:100E9000F10429F4FF90EF90DF90CF9008950DD0EA
:100EA000621B730B683E734080F381E0C81AD1085F
:100EB000E108F10828513C4FE8CF0FB6F89466B529
:100EC00015B270916A0280916B0290916C020FBE14
:100ED00010FE05C06F3F19F07C5F8F4F9F4F1124AC
:100EE0000024660F001C660F001C70290895809175
:100EF000E80080FFFCCF08958091D80087FF02C0F2
:100F000085FF1BC081E08093D70080EA8093D800E2
:100F100082E189BD09B400FEFDCF80E98093D8004D
:100F20001092E00010927D0210927C0210927B02DF
:100F30001092E1008DE08093E20008951F920F92DD
:100F40000FB60F9211242F933F934F935F936F939C
:100F50007F938F939F93AF93BF93EF93FF93909162
:100F6000E1001092E10093FF11C01092E90081E0CE
:100F70008093EB001092EC0082E28093ED0088E019
:100F80008093F00010927D0210927B0292FF1DC0B0
:100F900080917D028823C9F080917002882359F0E6
:100FA000815080937002811106C084E08093E90033
:100FB0008AE38093E80080916F02882331F08150AA
:100FC00080936F02811101C0F2DE90FF0CC080E1BE
:100FD0008093E20010927D0281E080937C0280EA9F
:100FE0008093D80019BC80917C02882379F094FF0B
:100FF0000DC082E189BD09B400FEFDCF80E9809378
:10100000D8008DE08093E20010927C02FF91EF9176
:10101000BF91AF919F918F917F916F915F914F9110
:101020003F912F910F900FBE0F901F9018951F9218
:101030000F920FB60F921124EF92FF920F931F930E
:101040002F933F934F935F936F937F938F939F93D0
:10105000AF93BF93CF93DF93EF93FF931092E90089
:101060008091E80083FF20C0D091F100C091F10091
:10107000E090F100F090F1000091F1001091F1008A
:101080002091F1003091F10082EF8093E800C630AA
:1010900009F059C0EEEDF0E085919591E816F9065A
:1010A00039F03596C150C1F781E28093EB002BC037
:1010B000859195910817190711F03396F3CF459153
:1010C000559184912F3F310519F010F02FEF30E04A
:1010D000821708F4282F3EEF8091E800982F957032
:1010E000D9F382FD10C0822F213208F080E2982FC0
:1010F000911122C0922F981B892F3093E8009111F3
:1011000019C02032B8F4FF91EF91DF91CF91BF91D8
:10111000AF919F918F917F916F915F914F913F918F
:101120002F911F910F91FF90EF900F900FBE0F9096
:101130001F901895282FD0CFFA0145914093F100C8
:10114000AF019150D5CFC53049F48EEF8093E800C0
:10115000CEDE8E2D80688093E300D5CFC93021F597
:10116000D111A2CFE0927D0210927B021092700208
:101170008EEF8093E80081E0E1EAF1E08093E900FE
:1011800095919093EB00992331F095919093EC0019
:1011900095919093ED008F5F853081F78EE180937C
:1011A000EA001092EA00AFCFC83061F4D03809F0FD
:1011B0007BCF9DDE80917D028093F1008EEF809346
:1011C000E800A1CFC13279F4D13A09F06DCF8FDEBA
:1011D000E1E0F1E080818093F100319681E0E83038
:1011E000F807C1F7EBCFC03209F047C0D13209F0A0
:1011F0005BCF8091E80082FFFCCFE1E0F1E08091DD
:10120000F1008083319691E0E830F907C1F78BEF68
:101210008093E8008EEF8093E800309101014091C7
:101220000201809103012091040190E0B0E0A0E070
:10123000DC0199278827942B832BB22B86389105C4
:10124000A105B10521F48FE080936F025CCF863950
:101250009105A105B10509F056CF84E08093E9001E
:101260009FEF8091EE00837009F4BEDD9093E8005B
:101270008091E80082FDFCCFF4CFC23239F4D13244
:1012800009F012CFE0927B0232DE98CFC33221F414
:10129000D13209F009CFF8CFC11111C028DED23800
:1012A00049F40093E900C091EB00C5FBCC27C0F9DD
:1012B0001092E900C093F1001092F1007FCF8C2FC3
:1012C0008D7F813009F0F0CED23009F0EDCEEF28DD
:1012D00009F0EACE0F778FEF800F863008F0E4CE6A
:1012E0008EEF8093E8000093E900C33009F4DCCE70
:1012F00089E18093EB0081E090E001C0880F0A95BE
:10130000EAF74DCFCF93DF931F92CDB7DEB7698356
:10131000DC01ED91FC910280F381E02D41E050E091
:10132000BE016F5F7F4F09950F90DF91CF910895B8
:10133000FC018FB7F89490917D0291110CC090E060
:101340008FBF2085318537FD03C09F3F09F09F5F28
:10135000892F90E0089593E09093E9009091F20036
:101360009111EECF2091E80022FFE9CF25FDE7CFD4
:101370002BE62093E800E4CFCF93DF93EC01888540
:10138000998597FF09C0E881F9810284F385E02DF2
:10139000CE0109959987888788859985DF91CF91B6
:1013A0000895FC012085318537FD07C04FEF5FEFC1
:1013B00051874087C901992708959FB7F894809174
:1013C0007D02811104C09FBF8FEF9FEF089583E0DE
:1013D0008093E9002BE68091E80085FD05C082FF3F
:1013E000F2CF2093E800F7CF8091F1002091E80040
:1013F00025FD03C02BE62093E8009FBF90E00895F1
:1014000080917D02882361F08FB7F89494E09093E7
:10141000E9009091F2008FBF80E4891B90E008956D
:1014200090E080E00895BF92CF92DF92EF92FF921A
:101430000F931F93CF93DF937C0180917D028111E5
:1014400010C081E0F701828310E000E0C801DF9165
:10145000CF911F910F91FF90EF90DF90CF90BF90B1
:1014600008952FB7F89484E08093E90080916E028C
:10147000882341F08091E80085FD02C02FBFE1CFB5
:1014800010926E0210E000E084E0D82E90E4C92EA5
:10149000A1EFB0E03AE3B32E33E04115510509F472
:1014A000C0C08091E400815F9091E80095FD16C076
:1014B0002FBF9091E400891306C081E080936E02F3
:1014C000F7018283C3CF90917D02911102C081E028
:1014D000F7CF2FB7F894D092E900E6CF8091F200D1
:1014E0009C2D981B9417150611F008F0942FE92FE6
:1014F000F0E04E1B5F0B0E0F1F1FEB01E0E4E91B3A
:10150000E03428F4EE0FFF27E857F54F099480C028
:1015100099919C9399919C9399919C9399919C9367
:1015200099919C9399919C9399919C9399919C9357
:1015300099919C9399919C9399919C9399919C9347
:1015400099919C9399919C9399919C9399919C9337
:1015500099919C9399919C9399919C9399919C9327
:1015600099919C9399919C9399919C9399919C9317
:1015700099919C9399919C9399919C9399919C9307
:1015800099919C9399919C9399919C9399919C93F7
:1015900099919C9399919C9399919C9399919C93E7
:1015A00099919C9399919C9399919C9399919C93D7
:1015B00099919C9399919C9399919C9399919C93C7
:1015C00099919C9399919C9399919C9399919C93B7
:1015D00099919C9399919C9399919C9399919C93A7
:1015E00099919C9399919C9399919C9399919C9397
:1015F00099919C9399919C9399919C9399919C9387
:1016000099919C9399919C9399919C9399919C9376
:10161000BE018091E80085FFB092E800309370022F
:101620003CCF2FBF13CF2FEF3FEFFC013187208737
:1016300063DC0FB6F8948091660290916702A091E6
:101640006802B09169020FBE9C0180917D028823DF
:1016500029F068EC70E080E090E00FCC80917C0293
:10166000882301F10FB6F894409166025091670209
:1016700060916802709169020FBE80917C0288239C
:1016800089F00FB6F8948091660290916702A0915C
:101690006802B09169020FBE841B950B8B3F9105C8
:1016A00060F308950FB6F8948091660290916702F6
:1016B000A0916802B09169020FBE821B930B853C1A
:1016C000994008F4C2CF08958FB7F89490917D02A5
:1016D000992361F090917002992341F094E09093E6
:1016E000E9009AE39093E800109270028FBF08958A
:1016F000EBCFE1E7F2E011861086128288EE93E0EC
:10170000A0E0B0E083839483A583B683178280E34F
:1017100091E0918380830895EE0FFF1F0590F4916F
:10172000E02D099409D0A59F900DB49F900DA49F22
:10173000800D911D11240895A29FB001B39FC00197
:10174000A39F700D811D1124911DB29F700D811DED
:101750001124911D089510E0C9EDD0E003C0FE01F1
:0E176000DBDF2196CA3DD107D1F7F894FFCF09
:10176E00FF00E1000000000800000000BA02B10511
:10177E0002015A030E02E501FB0100000000B30452
:10178E00B1057304AE0463049604830400000000E4
:0E179E008209130A000A780B9809D109BC09C8
:00000001FF
