:10000000EFC0000015C1000013C1000011C10000C5
:100010000FC100000DC100000BC1000009C10000AC
:1000200007C1000005C100000C940E110C9478115A
:10003000FFC00000FDC00000FBC00000F9C00000D0
:10004000F7C00000F5C00000F3C00000F1C00000E0
:10005000EFC00000EDC00000EBC000000C946D107C
:10006000E7C000000C94A00E0C94C70E0C94F40E84
:10007000DFC00000DDC00000DBC000000C94C90C34
:100080000C942D0C0C94730DD3C00000D1C0000053
:10009000CFC00000CDC00000CBC00000C9C0000030
:1000A000C7C00000C5C00000C3C000000123022378
:1000B0000423082380230129022904290829402632
:1000C000802640298029102320234023802F402F81
:1000D000202F102F022F012F10292029402C000142
:1000E0000000BA0112000200002601730022010084
:1000F0009901210021010082010900030000220171
:100100000401030904080118180354006500650080
:100110006E007300790020004D0049004400490042
:1001200000000403090409027300020100C032093F
:100130000400000201030000072401000141000641
:100140002402010100062402020200092403010323
:100150000102010009240302040101010009050450
:10016000024000000000052501010109058302404D
:10017000000000000525010103090401000203003D
:10018000000009211101000122210007058103401F
:1001900000010705020320000206C9FF0904A15C53
:1001A0007508150026FF0095400975810295200904
:1001B00076910295040976B102C012010002000096
:1001C0000040C016850471020001000101C1360122
:1001D000C0260181360180364E0A0E0FFC154C0BED
:1001E00011241FBECFEFDAE0DEBFCDBF11E0A0E0EB
:1001F000B1E0E0E7FCE202C005900D92A833B10740
:10020000D9F724E0A8E3B1E001C01D92AD37B207F1
:10021000E1F710E0CFEED0E004C02197FE010E948C
:100220000D16CC3ED107C9F70E94470F0C942C162F
:10023000E7CE90E080E008950F931F93CF93DF9374
:10024000569A3F9847983E9A4FEF64E370E08CE8E7
:1002500093E00E94670EC8E3D1E0EAA5FBA54FEF4B
:1002600064E370E0808191810E94670E1CA61EA647
:100270001DA61DAA1CAA1BAA1AAA0FEF1FEF1FABCF
:100280000EAB19AF08AF0FB6F894809102049091AD
:100290000304A0910404B09105040FBE8093FA01F9
:1002A0009093FB01A093FC01B093FD011092F70124
:1002B0001CAE1BAE1DAE1EAE1092F9011092F801DD
:1002C0001092720160E072E080E090E00E948C0B7E
:1002D000EAE0F2E014A616A615A615AA14AA13AA17
:1002E00012AA17AB06AB11AF00AF0FB6F89480910E
:1002F000020490910304A0910404B09105040FBE80
:100300008093CC029093CD02A093CE02B093CF0203
:100310001092C90214AE13AE15AE16AE1092CB02F7
:100320001092CA02109244025E9A62E370E080E08A
:1003300090E00E94AD105E9862E370E080E090E093
:100340000E94AD105E9A62E370E080E090E00E944F
:10035000AD105E98DF91CF911F910F910895DC0150
:100360008D919C91DC01ED91FC910190F081E02D4B
:1003700009946D3F40F46A3F10F4683F31F4FC018A
:1003800080819181ECCF6E3FD0F70895EF92FF927C
:100390000F931F93CF93DF93613E20F501500031FF
:1003A00058F567FF29C0D22F142FC62F7C01602F6C
:1003B0006C2BFC0182A593A5D2DF612F6F77F7012B
:1003C00082A593A5CCDFCF7EC03CB1F06D2F6F77B7
:1003D000F70182A593A5DF91CF911F910F91FF9017
:1003E000EF90BDCF683F40F08A96DF91CF911F918B
:1003F0000F91FF90EF90BDCFDF91CF911F910F91A3
:10040000FF90EF900895EF92FF920F931F93CF9379
:10041000DF937C01EA018B01040F151FC017D10780
:1004200031F06991F7018081918199DFF7CFDF91F8
:10043000CF911F910F91FF90EF900895DC018D9166
:100440009C91DC01ED91FC910190F081E02D0994EB
:100450006D3F40F46A3F10F4683F31F4FC01808145
:100460009181ECCF6E3FD0F70895EF92FF920F93FA
:100470001F93CF93DF93613E20F50150003158F573
:1004800067FF29C0D22F142FC62F7C01602F6C2B41
:10049000FC0182A593A5D2DF612F6F77F70182A5BA
:1004A00093A5CCDFCF7EC03CB1F06D2F6F77F70105
:1004B00082A593A5DF91CF911F910F91FF90EF90AF
:1004C000BDCF683F40F08A96DF91CF911F910F9189
:1004D000FF90EF90BDCFDF91CF911F910F91FF90D3
:1004E000EF900895EF92FF920F931F93CF93DF93B6
:1004F0007C01EA018B01040F151FC017D10731F0F1
:100500006991F7018081918199DFF7CFDF91CF91D8
:100510001F910F91FF90EF900895CF93DF93EC011F
:10052000E881F981309711F0CB9609958CAD823F27
:1005300009F49EC090F5803C09F486C090F480399F
:1005400009F454C030F4803809F445C0DF91CF91EC
:100550000895803A09F475C0803BC1F7EA85FB85B0
:100560003CC0803E09F459C058F4803D79F7EE85CF
:10057000FF85309759F36DAD8BADDF91CF91099425
:10058000803F09F464C0813F09F7EC89FD89309709
:10059000E9F28DADDF91CF9109948A3F91F180F41A
:1005A000863F09F477C028F4833F81F6E88DF98D02
:1005B000EECF883FF1F0893F49F6E8A1F9A11BC0D1
:1005C0008C3F29F108F18E3F29F18F3F09F0BECF12
:1005D000E8A5F9A510C0EC81FD81309709F4B6CFEC
:1005E0004EAD6DAD8BADDF91CF910994EE81FF8162
:1005F000F4CFEC8DFD8D309709F4A8CFDF91CF912A
:100600000994EE8DFF8DF7CFEAA1FBA1F4CFECA109
:10061000FDA1F1CFEEA1FFA1EECFE889F9893097D6
:1006200009F494CF6EAD20E8629FB0011124607888
:100630007F738DAD8F77682B70528BADDF91CF912B
:100640000994E885F985C9CFEC85FD8592CFEA89C3
:10065000FB89309709F47ACF6DAD7EAD61387105B5
:1006600010F060E870E0CE01CF96DF91CF91099451
:10067000EE89FF89309709F469CF8EAD20E8829F1B
:10068000C001112480789F732DAD2F77822BDF91CD
:10069000CF910994EA8DFB8DAECF0F931F93CF932B
:1006A000DF93EC019AAD292F217090FF1DC0892F97
:1006B0008E7FD1F0362F6CAD80E8860F8136E0F466
:1006C0000BAD031719F021E0311120E0969592301F
:1006D00049F0933071F0913039F42EAD4DADCE012B
:1006E000C4DE02C02111F9CFDF91CF911F910F918C
:1006F00008952111F9CFF1CFE0E1E60FE031A0F745
:10070000F0E0EB57FC4F0C940D169C03D203BB0397
:10071000AD03740374039503740395037403950385
:1007200095039503740395039503CE018A96DF9193
:10073000CF911F910F918CCEAE01415C5F4F6DAD9B
:100740007EAD6138710510F060E870E0CE018A96E8
:10075000DF91CF911F910F91C5CE1DAD63EF8AA59B
:100760009BA56CDE612F6F778AA59BA5DF91CF914A
:100770001F910F9163CE0EAD80E8089F8001112478
:100780008DAD082B62EF8AA59BA558DE602F6F7791
:100790008AA59BA553DE000F012F001F110B119599
:1007A000602FE1CF6DAD80E1689FB00111246077CB
:1007B0001EAD1F70162B61EF8AA59BA53FDE612F32
:1007C000D3CFCF93DF93EC01E881F981309711F01B
:1007D000CB9609958CAD823F09F49EC090F5803C84
:1007E00009F486C090F4803909F454C030F480389C
:1007F00009F445C0DF91CF910895803A09F475C09E
:10080000803BC1F7EA85FB853CC0803E09F459C0B6
:1008100058F4803D79F7EE85FF85309759F36DAD3B
:100820008BADDF91CF910994803F09F464C0813F83
:1008300009F7EC89FD893097E9F28DADDF91CF9111
:1008400009948A3F91F180F4863F09F477C028F437
:10085000833F81F6E88DF98DEECF883FF1F0893F37
:1008600049F6E8A1F9A11BC08C3F29F108F18E3FA0
:1008700029F18F3F09F0BECFE8A5F9A510C0EC81A2
:10088000FD81309709F4B6CF4EAD6DAD8BADDF91E4
:10089000CF910994EE81FF81F4CFEC8DFD8D3097DF
:1008A00009F4A8CFDF91CF910994EE8DFF8DF7CF9A
:1008B000EAA1FBA1F4CFECA1FDA1F1CFEEA1FFA134
:1008C000EECFE889F989309709F494CF6EAD20E82E
:1008D000629FB001112460787F738DAD8F77682B94
:1008E00070528BADDF91CF910994E885F985C9CF1E
:1008F000EC85FD8592CFEA89FB89309709F47ACFA0
:100900006DAD7EAD6138710510F060E870E0CE012C
:10091000CF96DF91CF910994EE89FF89309709F442
:1009200069CF8EAD20E8829FC001112480789F732B
:100930002DAD2F77822BDF91CF910994EA8DFB8D1E
:10094000AECF0F931F93CF93DF93EC019AAD292F76
:10095000217090FF1DC0892F8E7FD1F0362F6CAD96
:1009600080E8860F8136E0F40BAD031719F021E023
:10097000311120E09695923049F0933071F091302A
:1009800039F42EAD4DADCE0101DD02C02111F9CFFC
:10099000DF91CF911F910F9108952111F9CFF1CFE0
:1009A000E0E1E60FE031A0F7F0E0E752FB4F0C94F6
:1009B0000D16F00426050F050105C804C804E90456
:1009C000C804E904C804E904E904E904C804E90422
:1009D000E904CE018A96DF91CF911F910F91C9CC86
:1009E000AE01415C5F4F6DAD7EAD6138710510F0B9
:1009F00060E870E0CE018A96DF91CF911F910F9150
:100A000002CD1DAD63EF8AA59BA5A9DC612F6F7791
:100A10008AA59BA5DF91CF911F910F91A0CC0EAD20
:100A200080E8089F800111248DAD082B62EF8AA514
:100A30009BA595DC602F6F778AA59BA590DC000FA6
:100A4000012F001F110B1195602FE1CF6DAD80E1DB
:100A5000689FB001112460771EAD1F70162B61EFE7
:100A60008AA59BA57CDC612FD3CF982F9F7E282F52
:100A70002F7C203839F0803E29F081E0903C19F03D
:100A800080E0089581E0089587FF0AC09CE0980FF8
:100A9000923030F08D3F21F0803F18F4807F089530
:100AA00080E00895982F9F7E282F2F7C203839F0E2
:100AB000803E29F081E0903C19F080E0089581E0CB
:100AC000089587FF0AC09CE0980F923030F08D3F68
:100AD00021F0803F18F4807F089580E00895EF9220
:100AE000FF920F931F93CF93DF9310916401113105
:100AF00008F45FC0D0E000913602013108F05FC316
:100B0000E0913402F091350280819181DC01ED9118
:100B1000FC910084F185E02D0995892B09F44FC3E0
:100B20008091D9028E7F8093D902E0913402F091B6
:100B3000350280819181DC01ED91FC910284F38585
:100B4000E02D0995C82F8D3F09F439C380913E02ED
:100B500090913F02009709F067C3C093390210914A
:100B60003702812FAEDF9EDF882361F0C7FD0AC008
:100B700010933902C0933A0281E090E090933F02D3
:100B800080933E02C09139028C2F9BDF813F09F494
:100B9000E0C208F068C2803B49F008F036C28039F4
:100BA00029F0803A19F0803809F036C223E030E0AD
:100BB000D2C2E0916201F091630180819181DC01F8
:100BC000ED91FC910084F185E02D0995892B09F4C4
:100BD00091CF809107028E7F80930702E09162019E
:100BE000F091630180819181DC01ED91FC9102849F
:100BF000F385E02D0995C82F8D3F09F47BCF8091B7
:100C00006C0190916D01009709F000C1C0936701DC
:100C1000D09165018D2F38DF28DF882361F0C7FD73
:100C20000AC0D0936701C093680181E090E090937F
:100C30006D0180936C01C09167018C2F25DF813F8E
:100C400009F4ADC0C8F5803B39F048F4803921F093
:100C5000803A11F0803851F423E030E0A2C0803DAA
:100C600009F49DC0D0F4803C09F499C0809107023A
:100C7000816080930702E0913A01F0913B01309747
:100C800009F0099510926D0110926C0110926B01A0
:100C900010926A01109265012DCF803EE9F2803FEB
:100CA00029F720E830E030936B0120936A0110921D
:100CB00065018093770179C0873F99F308F068C098
:100CC000833F09F46CC040F2863F81F68093740143
:100CD00010927301109275011092760181E0809359
:100CE000F70110926D0110926C0110926B0110923D
:100CF0006A0180917401803939F480917601811103
:100D000003C080E88093740180917401805881361B
:100D100038F480917301181719F0D0E0111104C054
:100D200088E391E0FADBD1E0612F88E391E0B5DC64
:100D3000DD2309F4DFCEC091740110917501F090AC
:100D40007601C03F09F44BC1E0907301C03F08F049
:100D500029C1C7FF15C04FEF4E0D4F708C2F807FFC
:100D6000482B6C2F70E054E0759567955A95E1F724
:100D70000F2D0F77212F2F778AE094E00E949D138B
:100D80000E2D2F2D412F6C2F8AE092E0FFDAB3CE8B
:100D90008D3F08F49BCF8E3F08F098CF67CF22E0BD
:100DA00030E030936B0120936A0120916C01309107
:100DB0006D0140916A0150916B0141505109241716
:100DC0003507E8F080937401CF70CF5FC093730153
:100DD00080916801809375011092760181E090E026
:100DE0009093F9018093F80110926D0110926C01BB
:100DF00010926B0110926A018093F7017ACF2F5FF6
:100E00003F4F30936D0120936C0174CEC7FF0CC02F
:100E1000CD3F08F04CC0C83F08F04CC0C03F09F4BB
:100E200058C0C73F09F455C020916701FC01E85C38
:100E3000FE4F203F19F0273F09F074C0C7AFE09084
:100E40006A01F0906B0197012150310982179307D5
:100E500008F4A6C0D0916701D03F19F0D73F09F040
:100E600063C0C091F60180EF8093F6018093740116
:100E700080E880937501109276011092730180E8EA
:100E800090E09093F9018093F80181E08093F7015D
:100E900088E391E042DB87EF80937701C09378018C
:100EA00082E090E090936D0180936C0123CECE3F61
:100EB00008F4BACFC09374011092750110927601B4
:100EC0001092730181E090E09093F9018093F80112
:100ED00093CF20917701203F19F0273F09F0C6CE2C
:100EE0009C012F5F3F4F885C9E4FFC01C7AF80EF96
:100EF00080937401209375013093760110927301F1
:100F00003093F9012093F80181E08093F70110926A
:100F10006D0110926C0110926B0110926A01109297
:100F20006501E7CEC7A78BCF8D2FAEDDC82F80938D
:100F300074019BDD882349F18D2F8F708F5F809323
:100F40007301809168018093750180916901F3E0DC
:100F5000EF16F10409F080E08093760110926D01A4
:100F600010926C0110926B0110926A0181E08093E3
:100F7000F701C03B39F060F4C03921F0C03A11F0FC
:100F8000C03869F6D0936501B4CE10927301D9CF01
:100F9000C03DC1F3C03EB1F3C03C09F0C0CFF2CFB9
:100FA000019680CFC83F10F4C63F29F400E020E04E
:100FB0004C2F6FE0E1CE8C2F8D7F813F31F400E02C
:100FC000212F2F774C2F62E0D7CEC23F09F0D8CE29
:100FD0000F2D0F77212F2F7742EF63E0CDCE2F2DEE
:100FE00030E0322F2227C901810F911D8C0147E784
:100FF00051E0BC018AE094E00E946A1347E751E0A7
:10100000B80184E392E0FFD976CD803D09F4A1C018
:10101000D0F4803C09F49DC08091D9028160809316
:10102000D902E0910C02F0910D02309709F0099578
:1010300010923F0210923E0210923D0210923C022A
:1010400010923702BCC0803E09F4B0CD803F21F73A
:1010500020E830E030933D0220933C0210923702AA
:10106000809349027CC0873F99F308F06BC0833FAF
:1010700009F46FC008F49ACD863F71F6809346025A
:1010800010924502109247021092480281E080932C
:10109000C90210923F0210923E0210923D0210923D
:1010A0003C0280914602803939F4809148028111D6
:1010B00003C080E8809346028091460280588136C2
:1010C00038F480914502081719F0F12C011105C080
:1010D0008AE092E076DBFF24F394602F8AE092E0CE
:1010E00030DCFF2009F46BC0C0914602D09147026A
:1010F00010914802C03F09F480C1E0904502C03F12
:1011000008F05EC1C7FF15C04FEF4E0D4F708C2F1A
:10111000807F482B6C2F70E024E0759567952A95A9
:10112000E1F7012F0F772D2F2F778AE094E00E94AF
:101130009D130E2D212F4D2F6C2F88E391E095D913
:10114000DF2D3DC08D3F08F499CF8E3F08F096CF3C
:1011500063CF22E030E030933D0220933C022091A7
:101160003E0230913F0240913C0250913D0241507D
:10117000510924173507E8F080934602CF70CF5FFE
:10118000C093450280913A02809347021092480230
:1011900081E090E09093CB028093CA0210923F02CC
:1011A00010923E0210923D0210923C028093C902BE
:1011B00078CF2F5F3F4F30933F0220933E0260E095
:1011C0008AE094E00E94DD13882309F442C1109163
:1011D0000B04D0910C04C0910D04103F09F423C1FD
:1011E000F0900A040F2D2C2F4D2F612F88E391E0F2
:1011F0003CD92C2F4D2F612F8AE092E0C7D85E9A00
:101200000FB6F8948091020490910304A091040415
:10121000B09105040FBE8093DC029093DD02A09391
:10122000DE02B093DF0217C1C7FF0CC0CD3F08F04C
:101230004CC0C83F08F04CC0C03F09F458C0C73F7D
:1012400009F455C020913902FC01E65FFD4F203FB3
:1012500019F0273F09F074C0C7AFE0903C02F0904E
:101260003D029701215031098217930708F4A6C067
:1012700010913902103F19F0173F09F063C0C09177
:10128000C80280EF8093C8028093460280E8809372
:101290004702109248021092450280E890E0909335
:1012A000CB028093CA0281E08093C9028AE092E077
:1012B00088DA87EF80934902C0934A0282E090E087
:1012C00090933F0280933E027ACFCE3F08F4BACF8C
:1012D000C0934602109247021092480210924502B3
:1012E00081E090E09093CB028093CA025FCF20917F
:1012F0004902203F19F0273F09F08ECE9C012F5F55
:101300003F4F865F9D4FFC01C7AF80EF8093460241
:101310002093470230934802109245023093CB024B
:101320002093CA0281E08093C90210923F0210927A
:101330003E0210923D0210923C0210923702B1CE52
:10134000C7A78BCF812FBDDBC82F80934602AADBB6
:10135000882349F1812F8F708F5F809345028091A0
:101360003A028093470280913B02F3E0EF16F104CA
:1013700009F080E08093480210923F0210923E02F2
:1013800010923D0210923C0281E08093C902C03B62
:1013900039F060F4C03921F0C03A11F0C03869F674
:1013A000109337027ECE10924502D9CFC03DC1F3D3
:1013B000C03EB1F3C03C09F0C0CFF2CF019680CF60
:1013C000C83F10F4C63F29F400E020E04C2F6FE046
:1013D000ACCE8C2F8D7F813F31F400E02D2F2F7705
:1013E0004C2F62E0A2CEC23F09F0A3CE012F0F77AF
:1013F0002D2F2F7742EF63E098CE212F30E0322F50
:101400002227C9018D0F911DEC0149E452E0BC0176
:101410008AE094E00E946A1349E452E0BE0182E649
:1014200091E060D88DCE4C2F50E0542F4427DA0144
:10143000AD0FB11DED014EE054E0BD0182E691E03B
:1014400051D84EE054E0BE0184E392E00E940302D2
:10145000D6CED111D4CE0FB6F894809102049091DB
:101460000304A0910404B09105040FBE4091DC0276
:101470005091DD026091DE027091DF02841B950BBA
:10148000A60BB70B4097A105B10508F05E98DF9158
:10149000CF911F910F91FF90EF900895E0EEF2E051
:1014A000128288EE93E0A0E0B0E083839483A5836A
:1014B000B683178285E091E0918380830FB6F8941C
:1014C0008091020490910304A0910404B09105045A
:1014D0000FBE8093DC029093DD02A093DE02B093F6
:1014E000DF02F093DB02E093DA02EAE0F2E011823D
:1014F000108213821282158214821782168211863C
:101500001086138612861586148617861686118A0B
:10151000108A138A128A158A148A178A168A118EDB
:10152000108E138E128E158E148E178E168E11A29B
:1015300010A213A212A215A214A217A216A211A6FB
:1015400010A68AED92E093A782A714A615A616A668
:1015500013AA12AA15AA14AA8FEF9FEF97AB86AB16
:1015600091AF80AF23E02093440213AE14AE15AECA
:1015700016AE1092C90220E8E9E4F2E0DF01322F52
:101580001D923A95E9F71092CC021092CD0210927A
:10159000CE021092CF021092D0021092D10210927D
:1015A000D2021092D3021092D4021092D50210925D
:1015B000D6021092D7021092D8021092D9024CE8AB
:1015C00053E05093090240930802E8E3F1E01182EE
:1015D000108213821282158214821782168211865B
:1015E0001086138612861586148617861686118A2B
:1015F000108A138A128A158A148A178A168A118EFB
:10160000108E138E128E158E148E178E168E11A2BA
:1016100010A213A212A215A214A217A216A211A61A
:1016200010A648E052E053A742A714A615A616A696
:1016300013AA12AA15AA14AA97AB86AB91AF80AFD2
:1016400083E08093720113AE14AE15AE16AE109205
:10165000F701E7E7F1E0DF011D922A95E9F7109223
:10166000FA011092FB011092FC011092FD01109200
:10167000FE011092FF0110920002109201021092DE
:1016800002021092030210920402109205021092BC
:10169000060210920702089585E091E09093E1021E
:1016A0008093E0026CC2809182039091810389173C
:1016B00069F09F5F903508F090E0E92FF0E0EF5C73
:1016C000FC4F80819093810390E008958FEF9FEF0E
:1016D000089580918203E09181038E1751F0EF5FAE
:1016E000E03508F0E0E0F0E0EF5CFC4F808190E056
:1016F00008958FEF9FEF08955091820340918103E9
:10170000852F90E0242F30E0541718F0821B930BA4
:101710000895805B9F4FFACF9B01AC01213668E1B1
:1017200036074105510540F4109271001092900067
:1017300081E88093910018C0DC01C90173E0B6957F
:10174000A795979587957A95D1F7813668E19607A1
:10175000A105B105B0F5109271001092900022E839
:10176000209391009C01AD0130938B0320938A0359
:10177000A5E2B0E00E94131622E096958795779532
:1017800067952A95D1F770938403609383033F98FC
:10179000479A469A809190008F77809390003E9A66
:1017A00010928903109282031092810310923003E9
:1017B00010922D0310922C0380E288BB809371005D
:1017C0000895232F342F452F5527213688E13807D8
:1017D00041055105A8F7109271001092900084E81D
:1017E000A8CF90912D039F5F943408F090E0209152
:1017F0002C032917E1F32FB7F894309130033323EA
:1018000049F0E92FF0E0E851FD4F808390932D03DC
:101810002FBF089591E09093300380932F0310928F
:101820002E0382E088BB80917100826080937100FA
:10183000809190008F7B80688093900080919400CD
:101840009091950040969093990080939800E0CFF6
:10185000862FC7DF81E090E008951F920F920FB6A8
:101860000F9211242F933F934F935F936F937F9326
:101870008F939F93EF93FF932091300360912F03F9
:10188000809198009091990040918A0350918B0328
:1018900030912E032A3070F5840F951F762F7170CA
:1018A000293009F471E066952F5F371799F330916D
:1018B00090007723E1F0306C309390009093990082
:1018C0008093980070932E0360932F03209330032E
:1018D000FF91EF919F918F917F916F915F914F91C8
:1018E0003F912F910F900FBE0F901F9018953F7B47
:1018F0003068E2CF30912D03E0912C033E1319C0E4
:101900002A3051F42BE020933003840F951F9093DD
:10191000990080939800DCCF109230038091900062
:101920008F7380939000809171008D7F8093710000
:10193000CFCFEF5FE43408F0E0E0E0932C03F0E079
:10194000E851FD4F308130932F0310922E033091D8
:1019500090003F7B3068309390002A3071F42091E2
:101960008A0330918B03820F931F90939900809389
:10197000980081E080933003ABCF809194009091E8
:1019800095004096F2CF809130038111FCCF0895ED
:10199000FACF1F920F920FB60F9211242F933F93FD
:1019A0004F935F936F937F938F939F93AF93BF9367
:1019B000EF93FF9380919600909197004091870359
:1019C000209191004423F1F12F7B209391001092FC
:1019D00087033091890331113CC0411122C020910D
:1019E000830330918403280F391F30939B00209389
:1019F0009A0024E028BB209171002460209371009C
:101A000020918A0330918B03820F931F369527957F
:101A1000280F391F309386032093850381E080933C
:101A20008903FF91EF91BF91AF919F918F917F912A
:101A30006F915F914F913F912F910F900FBE0F903B
:101A40001F90189520642093910020E8209387032D
:101A5000C0CF409185035091860360918A037091B5
:101A60008B03DB01A095B09520918803E09187035B
:101A7000841B950BA817B90768F126952E2B460FE6
:101A8000571F3F5F861B970B3930A0F320938803C5
:101A9000809171008B7F80937100809182038F5FB2
:101AA000803508F080E090918103981749F0E82F85
:101AB000F0E090918803EF5CFC4F90838093820369
:101AC000809191008F7B80939100109287031092F8
:101AD0008903A7CF209388035093860340938503FF
:101AE000309389039ECF1F920F920FB60F9211244D
:101AF0002F938F939F93EF93FF93809171008B7F30
:101B000080937100809191008F7B809391008091F0
:101B1000890320918703205890918803893020F40D
:101B20009695922B8F5FFACF9093880380918203D2
:101B30008F5F803508F080E020918103281739F00D
:101B4000E82FF0E0EF5CFC4F9083809382031092CB
:101B50008903809191008F7B80939100109287037D
:101B6000FF91EF919F918F912F910F900FBE0F904A
:101B70001F90189580918103809382030895CF93DD
:101B8000DF93C1E7D0E088818B7F888388818F7D58
:101B90008883F0DFF8DE88818D7F8883DF91CF91A5
:101BA00008955091C0034091BF03852F90E0242FEA
:101BB00030E0541718F0821B930B0895805C9F4F00
:101BC000FACF5091960340919503252F30E0842F52
:101BD00090E0821B930B541710F08796089501979D
:101BE00008958091C003E091BF038E1751F0EF5F1D
:101BF000E03408F0E0E0F0E0EF53FC4F808190E04B
:101C000008958FEF9FEF08959091C0038091BF03D7
:101C1000981779F09091BF039F5F903408F090E09F
:101C2000E92FF0E0EF53FC4F80819093BF0390E0E9
:101C300008958FEF9FEF0895809194038111FCCF59
:101C400008952091C90023FD06C021E0FC012283F4
:101C500090E080E00895809100018F3F41F08091F5
:101C60009403811104C0E0910001F0E077D19091DC
:101C7000960380919503981304C08091C80085FD58
:101C800019C0809196038F5F8832F8F49091950384
:101C90009817E1F3E82FF0E0E956FC4F608391E0FC
:101CA00090939403809396038091C90080628093FF
:101CB000C90008C08FB7F8946093CE0091E090936C
:101CC00094038FBF81E090E0089580E0DFCF1F9301
:101CD000CF93DF93EB01142F409300014F3F29F086
:101CE000842F2BD1E12FF0E03FD1C0FF24C0C130C1
:101CF00080E1D80700F582E08093C8002197D09357
:101D0000CD00C093CC008091C90083FD10C010921B
:101D1000C0031092BF031092960310929503109285
:101D2000940386E08093CA0088ED8093C900DF9118
:101D3000CF911F9108951092C800D695C795DECF18
:101D40001F920F920FB60F9211242F938F939F9390
:101D5000EF93FF939091CE008091C0038F5F80340A
:101D600008F080E02091BF03281739F0E82FF0E059
:101D7000EF53FC4F90838093C003FF91EF919F91AD
:101D80008F912F910F900FBE0F901F9018951F925B
:101D90000F920FB60F9211248F939F93EF93FF939F
:101DA000909196038091950398130EC08091C9007D
:101DB0008F7D8093C900FF91EF919F918F910F903C
:101DC0000FBE0F901F901895809195038F5F8832FA
:101DD00008F080E0E82FF0E0E956FC4F9081909306
:101DE000CE0080939503E7CF1F920F920FB60F920C
:101DF00011248F93EF93FF9310929403809100012D
:101E00008F3F21F0E0910001F0E0AED0FF91EF9123
:101E10008F910F900FBE0F901F901895ECE8F3E094
:101E2000128288EE93E0A0E0B0E083839483A583E0
:101E3000B683178287E191E0918380830895CF92E2
:101E4000DF92EF92FF920F931F93CF93DF936C017A
:101E5000EB017B01E40EF51E10E000E0CE15DF057E
:101E600061F06991D601ED91FC910190F081E02D36
:101E7000C6010995080F191FF1CFC801DF91CF9155
:101E80001F910F91FF90EF90DF90CF90089526D093
:101E90000E941C010E946F05FDCF1DBA10926800C0
:101EA0001CBC10BE1FBA10927A0010926E001092E5
:101EB0006F0010927100109272001092C900ECEB4A
:101EC000F0E0108214B817B81AB81DB810BA108212
:101ED00015B818B81BB81EB811BA0895F894E1E601
:101EE000F0E020E82083108283E084BD85BDEEE62B
:101EF000F0E080818160808381E08093800092E0C7
:101F00009093810080939000909391009093C000F3
:101F100094E09093C1008093C2008093C30010921C
:101F2000C40086E880937A0020937B0010927E00A4
:101F300010927D0051D178940895893170F4ECEAC3
:101F4000F0E0880FE80FF11D2591E491F0E09FB7D4
:101F5000F8948181822B81839FBF0895E93150F4E9
:101F6000EE0FE554F04F0994E93120F4EE0FE35100
:101F7000F04F09940895289A0895299A08952A9A65
:101F800008952B9A08952F9A6AC0589A58C0599A62
:101F900008955A9A08955B9A0895469A66C0479A9A
:101FA0006AC05E9A08955F9A6CC02C9A08952D9A23
:101FB0004AC02E9A4EC08F9A08958E9A08958D9A8F
:101FC00008958C9A0895899A0895889A08955C9A3C
:101FD00008955D9A0895769A089528980895299805
:101FE00008952A9808952B9808952F9838C05898E6
:101FF00026C0599808955A9808955B980895469870
:1020000034C0479838C05E9808955F983AC02C98BD
:1020100008952D9818C02E981CC08F9808958E98FA
:1020200008958D9808958C980895899808958898B2
:1020300008955C9808955D98089576980895E4B59C
:10204000EF7DE4BD0895E0918000EF77E09380009C
:102050000895E0918000EF7DE09380000895E09185
:102060008000E77FE09380000895E0919000EF7793
:10207000E09390000895E091C000EF77E093C000F6
:102080000895E091C200E77FE093C2000895F894BC
:1020900084B7877F84BF80916000806180936000F7
:1020A0001092600080E29EE40197F1F781E0809356
:1020B000E00080E28093D80080E69AEE0197F1F785
:1020C000ECDE0C94003FFFCFF894E7DE80E69AEE5A
:1020D0000197F1F70C940000FFCF8F938FB78F9388
:1020E000809101048D5F8D37D0F48093010480913D
:1020F00002048F5F80930204D8F0809103048F4F15
:1021000080930304A8F0809104048F4F809304040B
:1021100078F0809105048F4F8093050409C08D5796
:1021200080930104809102048E5F8093020428F75B
:10213000809106048C5F8093060458F08091070418
:102140008F4F8093070428F0809108048F4F80936D
:1021500008048F918FBF8F911895CF92DF92EF92E5
:10216000FF926B017C0119D09B01C114D104E104E1
:10217000F10429F4FF90EF90DF90CF9008950DD0F7
:10218000621B730B683E734080F381E0C81AD1086C
:10219000E108F10828513C4FE8CF0FB6F89466B536
:1021A00015B27091060480910704909108040FBE47
:1021B00010FE05C06F3F19F07C5F8F4F9F4F1124B9
:1021C0000024660F001C660F001C70290895809182
:1021D000E80080FFFCCF08958091D80087FF02C0FF
:1021E00085FF1BC081E08093D70080EA8093D800F0
:1021F00082E189BD09B400FEFDCF80E98093D8005B
:102200001092E00010927F0410927E0410927D04E0
:102210001092E1008CE08093E20008951F920F92EB
:102220000FB60F9211248F939F939091E10010921B
:10223000E10093FF0FC01092E90081E08093EB0072
:102240001092EC0082E38093ED0088E08093F00030
:1022500010927F0492FF21C080917F048823E9F0CF
:1022600080917D04882379F0815080937D048111D1
:102270000AC081E08093E9008091E80085FD35C0C7
:102280008AE38093E80083E08093E9008091F20084
:10229000882319F08AE38093E80090FF0CC080E166
:1022A0008093E20010927F0481E080937E0480EAB4
:1022B0008093D80019BC80917E04882379F094FF24
:1022C0000DC082E189BD09B400FEFDCF80E9809395
:1022D000D8008DE08093E20010927E049F918F9150
:1022E0000F900FBE0F901F9018951092F100C4CF61
:1022F0001F920F920FB60F921124EF92FF920F933D
:102300001F932F933F934F935F936F937F938F937D
:102310009F93AF93BF93CF93DF93EF93FF9310926D
:10232000E9008091E80083FF21C0E090F100F09087
:10233000F100C091F100D091F1000091F1001091F5
:10234000F1002091F1003091F10082EF8093E800DC
:1023500086E0F8125AC0EEEDF0E085919591C8172D
:10236000D90741F03596FA94F110F7CF81E28093C6
:10237000EB002BC0859195910817190711F0339642
:10238000F2CF4591559184912F3F310519F010F00E
:102390002FEF30E0821708F4282F3EEF8091E800FD
:1023A000982F9570D9F382FD10C0822F213408F048
:1023B00080E4982F911122C0922F981B892F30937F
:1023C000E800911119C02034B8F4FF91EF91DF912A
:1023D000CF91BF91AF919F918F917F916F915F91BD
:1023E0004F913F912F911F910F91FF90EF900F9080
:1023F0000FBE0F901F901895282FD0CFFA0145914E
:102400004093F100AF019150D5CF85E0F81208C09C
:102410008EEF8093E800DBDEC068C093E300D5CF89
:1024200099E0F91222C0E110D3C0C0937F0410924A
:102430007D048EEF8093E80081E0ECECF1E0809386
:10244000E90095919093EB00992331F09591909349
:10245000EC0095919093ED008F5F853081F78EE1D0
:102460008093EA001092EA00B0CF98E0F9120CC015
:1024700080E8E8127BCFABDE80917F048093F1008F
:102480008EEF8093E800A1CFF11012C0A0DE92E899
:10249000E91209C00093E900F090EB00F5FAFF247F
:1024A000F0F81092E900F092F1001092F100E8CFFC
:1024B0008F2D8D7F813009F080C082E0E8121BC033
:1024C0002097C9F4402F4F778FEF840F863098F410
:1024D0008EEF8093E8004093E90093E0F91609F449
:1024E00045CF89E18093EB0081E090E001C0880F47
:1024F0004A95EAF7B5CF0130110509F05EC081E0D9
:10250000F81222C091EA3EEFE91230CF8091E80044
:10251000982F9570D9F382FD58CF822F213408F07F
:1025200080E4982F91110CC0922F981B892F309323
:10253000E800911103C0203408F447CF282FE6CFDC
:102540001092F1009150EECF89E0F81236C091E27E
:10255000E9120CCFC115D34009F008CF2430310562
:1025600009F004CF8091E80082FFFCCF3091F100A8
:102570002091F1009091F1008091F1004BEF409398
:10258000E8004EEF4093E800393A51F4253409F061
:10259000EDCE923C09F0EACE8B3609F0E7CE77DD3E
:1025A0003B3809F0E3CE253C09F0E0CE9D3109F03F
:1025B000DDCE803709F0DACE87DD99ECF912D6CE80
:1025C00080E4E812D3CE8EEF8093E80000DEF4CFF3
:1025D0000130110509F0CACEBACF80917F0488235B
:1025E00071F08FB7F89492E09093E9009BE6209108
:1025F000E80025FF03C09093E800F9CF8FBF109249
:102600007C040895FC0180917F04882369F19FB7C1
:10261000F89481E08093E9002091E400275E3091F6
:10262000E80035FD0EC09FBF9091E4009217E1F0E5
:1026300090917F049923C1F09FB7F8948093E900AB
:10264000EECF6093F1008091E80085FD09C08AE338
:102650008093E80010927D049FBF81E090E0089590
:1026600084E080937D04F8CF81E0828390E080E075
:1026700008959FB7F89433E03093E9003091E40077
:102680003E5F53E07091E80075FD0EC09FBF9091D2
:10269000E4003917C9F090917F049923A9F09FB7FE
:1026A000F8945093E900EECF8093F1006093F1002D
:1026B0004093F1002093F1008091E80085FD03C074
:1026C0008AE38093E8009FBF089590917F04911161
:1026D000D0CF08950F931F93CF93DF938B01EA011F
:1026E0000430110548F02A814981688184E0EDDFDA
:1026F000239603501109F4CF0330110549F42A81C0
:102700004981688187E0DF91CF911F910F91DDCFE3
:102710000230110529F420E04981688186E0F3CF79
:102720000130110529F420E040E0688185E0EBCF1D
:10273000DF91CF911F910F9108950F93862F642FF2
:10274000422F202F90917F04992311F00F9191CF68
:102750000F910895FF920F931F93CF93DF93EC0196
:10276000F62EFC01E05BFF4F0190F081E02D8C0123
:10277000005C1F4F309761F0D8016D917C916C33F4
:10278000710530F040E004960995F801118210823D
:10279000D8018D919C9111978C33910540F49C0147
:1027A0002F5F3F4F2D933C93C80FD91FFC82DF91C1
:1027B000CF911F910F91FF900895DF92EF92FF92BA
:1027C0000F931F93CF93DF93EC019FB7F894809101
:1027D0007F04811109C09FBFDF91CF911F910F919D
:1027E000FF90EF90DF90089584E08093E9008BE6FE
:1027F0002091E80025FD08C022FF03C08093E80077
:10280000F7CF9FBF80E0E8CF1091F1000091F10079
:10281000F090F100D090F1008091E80085FD03C0B8
:102820008BE68093E8009FBF1F70802F8F70EE248F
:10283000E394E80E88EF810F873008F07CC06623B0
:1028400011F0E612DFCF007F183069F40038D1F6BE
:102850000983FE01EE5BFF4F0190F081E02D4D2DCD
:102860003097B9F419C01930E1F4003959F6DD2078
:1028700029F00983FE01EC5BFF4FEECF80E88983EE
:10288000FE01EE5BFF4F0190F081E02D309721F0CB
:1028900040E06F2D8E2D0995E882FA82DB8281E07F
:1028A0009BCF1A3041F4003A09F0ACCF0983FE0106
:1028B000EA5BFF4FD1CF1B3041F4003B09F0A2CFC0
:1028C0000983FE01E85BFF4FC7CF1C3081F4003C59
:1028D00009F098CF0983FE01E65BFF4F0190F0817C
:1028E000E02D3097C9F26F2D8E2D0995D5CF1D3073
:1028F00041F4003D09F086CF0983FE01E45BFF4F00
:10290000EDCF003E09F07ECF0983FE01E25BFF4F71
:102910000190F081E02D309709F4BECF20E8D29EDF
:10292000B001112460787F738F2D8F77682B7052E0
:102930008E2D0995B1CF8EEF810F823008F0B9C08E
:10294000EFE0E00FEF3008F05DCFF0E0E755FB4E31
:1029500064C1B814C314D71402140214DB14021493
:10296000E5140214F7140A151D1502143115451546
:10297000FE01EC5AFF4F0190F081E02D8F2D309732
:10298000A1F0099512C0FE01EA5AFF4F0190F081B3
:10299000E02D309751F020E8D29EC00111248078BC
:1029A0009F732F2D2F77822B0995098375CFFE01F9
:1029B000E85AFF4FE0CFFE01E65AFF4F0190F08149
:1029C000E02D309791F30995F0CFFE01E45AFF4FC7
:1029D0000190F081E02D3097B1F7FE01E859FF4FEB
:1029E0000190F081E02D88EF309759F6DECFFE019F
:1029F000E25AFF4F0190F081E02D309721F7FE0160
:102A0000E859FF4F0190F081E02D8AEF309709F0EF
:102A1000B8CFCBCFFE01E05AFF4F0190F081E02DFF
:102A2000309789F6FE01E859FF4F0190F081E02DC3
:102A30008BEF309709F0A5CFB8CFFE01EE59FF4FCD
:102A40000190F081E02D309709F0BDCFFE01E859EB
:102A5000FF4F0190F081E02D8CEF309709F091CF7E
:102A6000A4CFFE01EC59FF4F0190F081E02D30978B
:102A700009F0A9CFFE01E859FF4F0190F081E02D48
:102A80008EEF309709F07DCF90CFFE01EA59FF4FCE
:102A90000190F081E02D309709F095CFFE01E859C3
:102AA000FF4F0190F081E02D309709F47ECF8FEF3A
:102AB00068CF143051F4602FCE014CDE6F2DCE0163
:102AC00049DE6D2DCE0146DE9DCE8BEF810F83302A
:102AD00080F5602FCE013EDE153041F06F2DCE0126
:102AE00039DE173019F46D2DCE0134DEFE01E05CC5
:102AF000FF4F608171816A837B831182108280EF36
:102B0000898370960190F081E02D309729F041E0A3
:102B1000CE0104960995C3CEFE01EE5AFF4F0190F7
:102B2000F081E02D309709F4BACECE0104960995D4
:102B3000B6CE1F3009F066CE083F08F001CFFE0187
:102B4000E05CFF4F80819181892B09F45BCE602F7F
:102B5000B9CF9FB7F89480917F04811102C09FBFC5
:102B6000089582E08093E9002BE68091E80085FDDE
:102B700003C09FBF80E008958091F100811103C0E0
:102B80002093E800F2CF2091E80025FDE8CF2BE666
:102B90002093E800E4CF20917C04211105C0D9DF07
:102BA000882329F080937C0481E090E0089590E0F0
:102BB00080E008959C0190917C04992329F0109263
:102BC0007C04892F90E00895C901C3DF8111FACFF9
:102BD0008FEF9FEF08959C0190917C04892F9111B4
:102BE00006C0C901B6DF882321F080937C0490E001
:102BF00008958FEF9FEF0895E4E7F4E0128288EEE6
:102C000093E0A0E0B0E083839483A583B68317822A
:102C100089E291E0918380830895EE0FFF1F059074
:102C2000F491E02D099409D0A59F900DB49F900DCB
:102C3000A49F800D911D11240895A29FB001B39F00
:102C4000C001A39F700D811D1124911DB29F700DB5
:102C5000811D1124911D089510E0CFEED0E003C036
:102C6000FE01DBDF2196C03FD107D1F7F894FFCFFB
:102C7000FF00000000280C1F0F1901C80C7C0B532B
:102C80000B690B00000000210E1F0FE10D1C0ED17F
:102C90000D040EF10D0000000002131F0F1901EDCD
:082CA00012CB15DA15EB15004B
:00000001FF
