:0200000460009A
:100000004643464200000156000000000103030081
:1000100000000000000000000000000000000000E0
:1000200000000000000000000000000000000000D0
:1000300000000000000000000000000000000000C0
:1000400000000000010408000000000000000000A3
:100050000000800000000000000000000000000020
:100060000000000000000000000000000000000090
:100070000000000000000000000000000000000080
:10008000EB04180A063204260000000000000000FD
:10009000050404240000000000000000000000002F
:1000A0000000000000000000000000000000000050
:1000B0000604000000000000000000000000000036
:1000C0000000000000000000000000000000000030
:1000D00020041808000000000000000000000000DC
:1000E0000000000000000000000000000000000010
:1000F0000000000000000000000000000000000000
:10010000D8041808000000000000000000000000F3
:100110000204180804200000000000000000000095
:1001200000000000000000000000000000000000CF
:10013000600400000000000000000000000000005B
:1001400000000000000000000000000000000000AF
:10015000000000000000000000000000000000009F
:10016000000000000000000000000000000000008F
:10017000000000000000000000000000000000007F
:10018000000000000000000000000000000000006F
:10019000000000000000000000000000000000005F
:1001A000000000000000000000000000000000004F
:1001B000000000000000000000000000000000003F
:1001C000000100000010000001000000000000001D
:1001D000000001000000000000000000000000001E
:1001E000000000000000000000000000000000000F
:1001F00000000000000000000000000000000000FF
:10020000FFFFFFFFFFFFFFFFFFFFFFFFFFFFFFFFFE
:10021000FFFFFFFFFFFFFFFFFFFFFFFFFFFFFFFFEE
:10100000D10020434D1600600000000000000000E9
:10101000201000600010006000D802600000000096
:101020000000006000E4020000000000FFFFFFFF7E
:10103000FFFFFFFFFFFFFFFFFFFFFFFFFFFFFFFFC0
:10104000FFFFFFFFFFFFFFFFFFFFFFFFFFFFFFFFB0
:10105000FFFFFFFFFFFFFFFFFFFFFFFFFFFFFFFFA0
:10106000FFFFFFFFFFFFFFFFFFFFFFFFFFFFFFFF90
:10140000814205D051F8043B40F8043B8242F9D8B0
:10141000704700BF044A05494FF0000342F8043BFF
:101420009142FBD8704700BFC08E002020140120DD
:101430002DE98848BFF34F8F00BF00BF00BF00BF3A
:1014400000F0F6FF684B0822C3F8542100BF00BF2C
:1014500000BF00BF00BF00BF00BF00BF00BF00BF94
:1014600000BF00BF00BF00BF00BF00BF5F4A6049B0
:101470006048FFF7C5FF604A60496148FFF7C0FF59
:10148000604CFFF7C7FF4FF470004FF0E0210023DE
:101490005D4AC1F8880D44F823200133B02BFAD1FE
:1014A0005A4B80215A4A03F8011B9342FBD14FF05B
:1014B000E0254D4E4FF08039DFF884B1DFF884A18C
:1014C0004FF0FF31C5F8084D0027C6F80491C6F863
:1014D00000B1C6F8F490C6F8F0A0D5F8243DDFF8C6
:1014E000688143F4E0234B4AC5F8243DD8F81C300A
:1014F00023F07F0343F04003C8F81C30D8F82430B1
:1015000023F07F0343F04003C8F824309166D1668E
:101510001167516700F094FF3F4B4049A363404B74
:10152000E36363236B610323AF612B613D4BC5F81C
:10153000203DD5F8FC3D43F08073C5F8FC3D3A4BA7
:101540001A6842F001021A605B680B6001F0C2F990
:10155000C6F804913548C6F800B1C6F8F490C6F84C
:10156000F0A001F04DFBD8F86C10314B314A41F43A
:101570004051C8F86C101F60C3F80871C3F81871A7
:10158000C3F82871C3F83871936BDB0708D442F6AF
:101590001563294951651365936B43F00103936308
:1015A000244A264C936843F00113936000F0D0FF67
:1015B00001F0F4FA01F034FB01F0BAF900F03AFF5F
:1015C0002368132BFCD901F04BFA2368B3F5967FFF
:1015D000FBD300F033FF00F02FFF01F025FB01F0FB
:1015E0001BFB30BFFDE700BF00800D40181202005A
:1015F000D834006000000000C08E0020F446026075
:1016000000000020008C0020A977010000E400E029
:10161000A0E400E000C00A405D610100A4100120C8
:101620006161010000002020001000E00046C3239B
:101630000040084000400D400000C056A8100120A6
:101640001B1018200C0D111300C00F40054B4FF458
:101650002A01054A05485A641864054A9963954663
:10166000FFF7E6FE00C00A40FFABAAAA0700200071
:10167000008005201BB9124B1B6F9B041ED400F089
:101680003F000F4B22F0604221F0604140F489108E
:101690001867C3F88010C3F890201A6F22F48052A4
:1016A0001A671A6F002AFCDAD3F87011054A0A404B
:1016B000C3F870211A6F22F480321A67704700BF96
:1016C00000800D40FF7F7FFF07EE901ADFED196A63
:1016D00010F4C01FB8EE677A07EE902A00F07F0280
:1016E000F8EE677A87EE270A07EE902AC0F3C14228
:1016F000F8EEE77A30EE270A20EE260A08D1F5EE5A
:10170000007A20EE270A012B0AD0032B0DD0704758
:10171000012AF8D1F6EE007A012B20EE270AF4D147
:10172000F6EE007A20EE270A7047F5EE007A20EEFA
:10173000270A7047001BB74BDFED5D7AB4EEE70A6E
:101740002DE9F043F1EE10FA83B004460E4615463B
:101750000A980CDCDFED577AB4EEE70AF1EE10FAE6
:1017600040F39480B1EE006A4122042703E0B0EE1A
:10177000006A21220227DFED506A4FF0880C1A70B0
:101780004FF00008C6EE807A4C4A9FED4D7A02F188
:10179000010E02F11E01C7EE866A01E01EF801CBC0
:1017A0004FEA1C130CF00F09AEEB020C13FB09F30C
:1017B00007EE903A0CF1FF33F8EEE77A77EEE67A2F
:1017C000F0EEE77AF4EEC77AF1EE10FA02D5B0EE59
:1017D000677A98468E45E1D112F8083020EE060A65
:1017E000DFED386A4FEA1318037003F00F039FED23
:1017F000367A18FB03F807EE908AF8EEE77A60EE87
:10180000277A87EEA60AB4EEC70AF1EE10FA3AD4A8
:10181000DFED2E7AB4EE670AF1EE10FA37FE800A99
:1018200001A807FB08F801F02BFADFED297ADDEDBE
:10183000016A6FF0604220EE270A9FED226AFCEEFB
:10184000E66A07EE908ABCEEC07A16EE903AF8EEA1
:10185000E77A2370F8EE475A2A6086ED007AD5EDD4
:10186000006A2378F8EE666A07EE103A85EEA60A5B
:10187000B8EE477A30EE070A20EE060A80EE270A15
:1018800003B0BDE8F083B0EE470AC9E79FED117AD7
:10189000B2EE006AF3EE007AB4EEC70AF1EE10FA87
:1018A000CBBF422244220827102736FE276A62E770
:1018B000DAF81A4DDAF89A4C4775684E982A0020E3
:1018C0000000807F001BB74BFCA9D84102AB5842F7
:1018D0000000004EDAF81A4C026838B52E4B9A42D6
:1018E00015D02E4B1A6A9D6AC2F3C1429C6AC5F399
:1018F0004225012AC4F3426416D0022A35D0D2B15F
:10190000631C274805FB0333B0FBF3F038BDA3F598
:1019100030231A6B1D6BC2F3C1121C6BC5F3023569
:10192000012AC4F34224E8D1631C1E4805FB03339B
:10193000B0FBF3F038BD1C4AD2F87031106F990D2E
:10194000C3F3C03301F002010B43D2F88010D2F888
:101950009020FFF7B9FEFCEEC07A631C17EE900AE8
:1019600005FB0333B0FBF3F038BD0F4BD3F8A000F9
:10197000D3F8B010D3F8C020D3F870319B0FFFF725
:10198000A3FEFCEEC07A631C17EE900A05FB03333E
:10199000B0FBF3F038BD00BF00C01A4000C00F40DC
:1019A00000389C1C80204B1E00800D40094B0A68AB
:1019B00010B404689C4208BF9A420CBF012000206A
:1019C00005D09C4218BF9A4214BF012000205DF848
:1019D000044B704700C01A40022970B408D1274C4C
:1019E0004FF48835C4F8A8504FF40055C4F8A450FB
:1019F000234C0568A54222D04568C9045B062868C7
:101A000001F4C0116E685202046803F0606302F4CE
:101A1000606224EA060404601A4C266A26F4C01C9C
:101A200041EA0C012162A16A21F00E210B431A4305
:101A3000A2626A680368134370BC03607047406821
:101A40005B021203046803F46063466802F4E04238
:101A50002568C90125EA06050A4E01F4C071256012
:101A6000356B25F4FF452B4313430B433363236846
:101A700042681343236070BC704700BF00800D4074
:101A800000C01A4000C00F4070B53F4C8822DFED07
:101A90003F7A0026611C9FED3E7AC7EE806A04F112
:101AA0001E0C0D4601E015F8012B130902F00F0E74
:101AB0002A1B13FB0EF307EE903A531EF8EEE77A5B
:101AC00077EEE67AF0EEE77AB4EEE77AF1EE10FA26
:101AD00002DDB0EE677A1E466545E4D1DFED2D7A72
:101AE0008822A65D002587EE806ADFED296A01E085
:101AF00011F8012B130902F00F0E0A1B13FB0EF352
:101B000007EE903A531EF8EEE77A77EEC67AF0EEDB
:101B1000E77AF4EEE76AF1EE10FA02DDF0EE676ABA
:101B20001D466145E4D1F4EEC76A635DF1EE10FA3B
:101B300014DB340906F00F0603219FED147A621EB0
:101B4000731E14FB06F4DBB207EE904AD2B2FFF725
:101B500043FFF8EEE77A87EE270A70BD1C0903F011
:101B60000F0501219FED0B7A621E6B1E14FB05F41D
:101B7000DBB207EE904AD2B2FFF72EFFF8EEE77A1B
:101B800087EE270A70BD00BF982A0020C0E1E44D0F
:101B90000000807F0459F24D30B587B00DF10F047D
:101BA0000DF10E0305AA04A9009404460DF10D00E1
:101BB000FFF7C2FD9DF80E209DF80D3010091D495C
:101BC00003F03F0302F00F02A0F10200022AB0FA74
:101BD00080F04FEA501043EAC0430B67049BC1F802
:101BE0008030059BC1F8903020D0042A18D1124BC8
:101BF0001D46C1F878310F4B4FF4005220460021AA
:101C0000C3F874515A679DF80F2002F00F031209B0
:101C1000013B013ADBB2D2B2FFF7DEFE07B030BDC6
:101C20000025044B044AC3F87821E4E74FF400454B
:101C3000F7E700BF00800D400080800010B586B03F
:101C40000DF10F040DF10E0305AA04A9009404463A
:101C50000DF10D00FFF770FD9DF80E209DF80D3081
:101C600010091C4903F07F0302F00F02A0F10200EB
:101C7000022AB0FA80F04FEA501043EAC043C1F89C
:101C8000A030049BC1F8B030059BC1F8C0301ED015
:101C9000042A14BF00214FF040410E4B4FF0404248
:101CA0002046C3F878214FF40052C3F87411022182
:101CB000C3F8A4209DF80F2002F00F031209013B86
:101CC000013ADBB2D2B2FFF787FE06B010BD4FF08B
:101CD0008041E2E700800D40F8B5036A04460D46F6
:101CE000002B00F03881E36E002B00F03E81A369E9
:101CF000013300F01881206A002800F00481636934
:101D0000013303D0E36E002B00F0FD80A17F066855
:101D1000072940F2F980012100F092FFFF28A07707
:101D200000F0F180E17F072940F2F680FF21206A70
:101D300000F0AEFFFF28E07700F0E5800127A37FE9
:101D400007FA00F007FA03F384F8250084F86B30F3
:101D5000206AFFF7C1FD05FA07F307EE900A322269
:101D600007EE103AE37FF8EE676AB8EE477A403341
:101D700046F82320C6EE877A94F82430A27F1B020F
:101D8000E17F120603F4F853203102F0E0621343BE
:101D9000834A1A4346F82120A27F02F5A072F8FE7A
:101DA000677AFCEEE77A17EE903AFF2B28BFFF2305
:101DB00043F4706346F8223042F22222A37F03F5F7
:101DC000907346F82320E37F94F8242007EB8303E5
:101DD000A17F12021B0601F5807102F4F85203F094
:101DE0007C5313436F4A1A4346F8212072B6B760FA
:101DF000336A94F8252023EA0203336262B6217E17
:101E0000206A00F025FF04F11001206A00F000FFB5
:101E1000384600F02DFFE36E002B74D0217F1E6842
:101E2000072900F28F80184600F01AFF00286AD0B8
:101E3000617F072940F2A580226AE36E9A4200F092
:101E4000A780FF21184600F023FFFF2860775AD0B3
:101E5000012700F14003322207FA00F0BD4084F868
:101E6000710046F82320237F94F870201B06617FC1
:101E70001202E06E03F0E063203102F4F8521343E3
:101E8000494A1A4346F82120FFF726FD07EE900A3B
:101E9000227FF8EE676A07EE905A02F5A072217D64
:101EA000B8EE677AE06EC6EE877AF8FE677AFCEEE7
:101EB000E77A17EE903AFF2B28BFFF2343F47063B5
:101EC00046F82230237F394A03F5907346F82320E1
:101ED00094F87030227F1B0202F5807203F4F853ED
:101EE00043F0810346F82230B76000F0B1FE04F100
:101EF0001001E06E00F08CFE72B6326A94F8713018
:101F00001343336262B6F8BD00F0AAFE0028FAD08F
:101F1000E17F07293FF60AAF206A00F075FE00282E
:101F2000F1D0E07F0AE76369013325D0E36E002B2F
:101F3000E9D0206A00287FF4E9AE217F1E680729D6
:101F40007FF671AF0121184600F07AFEFF28207756
:101F50007FF46EAFF8BD00F12401007E00F074FE46
:101F6000E36E2062002B7FF4C2AE04F17001207D8D
:101F700000F06AFEE066BAE6206A00283FF44BAF44
:101F8000C4E6E06E00F040FE0028BCD0607F5FE752
:101F90001846E17F00F050FEE36E014652E700BFB5
:101FA000020003000100C00001008000222404029E
:101FB000036A10B504464BB1E36E03B110BD04F1E2
:101FC0007001207D00F040FEE06610BD00F12401AC
:101FD000007E00F039FE2062EEE700BF016A10B516
:101FE00004462DED028BB0EE408AA9B1C06EF0B967
:101FF00004F17001207D00F027FE216AE0660029CF
:1020000036D0A0B90846B0EE480AFFF73DFDE06EB5
:10201000C0B9BDEC028B10BD00F12401007E00F0C0
:1020200013FE0146E06E21620028E1D051B1FFF7B6
:10203000BDFC78B1216A0029E4D1E06E9FED0E0A63
:102040000028E6D0B0EE480ABDEC028BBDE8104097
:10205000FFF71ABD206AB0EE480AFFF715FDB0EE93
:10206000480AE06EBDEC028BBDE81040FFF70CBDE6
:102070009FED010ACCE700BF00000000016A10B527
:1020800004462DED028BB0EE408AA9B1C06EF0B9C6
:1020900004F17001207D00F0D7FD216AE06600297F
:1020A00036D0A0B90846B0EE480AFFF775FDE06EDD
:1020B000C0B9BDEC028B10BD00F12401007E00F020
:1020C000C3FD0146E06E21620028E1D051B1FFF767
:1020D0006DFC78B1216A0029E4D1E06E9FED0E0A13
:1020E0000028E6D0B0EE480ABDEC028BBDE81040F7
:1020F000FFF752BD206AB0EE480AFFF74DFDB0EE83
:10210000480AE06EBDEC028BBDE81040FFF744BD0D
:102110009FED010ACCE700BF00000000016A10B586
:1021200004462DED028BB0EE408AA9B1C06EF0B925
:1021300004F17001207D00F087FD216AE06600292E
:1021400036D0A0B90846B0EE480AFFF777FDE06E3A
:10215000C0B9BDEC028B10BD00F12401007E00F07F
:1021600073FD0146E06E21620028E1D051B1FFF716
:102170001DFC78B1216A0029E4D1E06E9FED0E0AC2
:102180000028E6D0B0EE480ABDEC028BBDE8104056
:10219000FFF754BD206AB0EE480AFFF74FFDB0EEDE
:1021A000480AE06EBDEC028BBDE81040FFF746BD6B
:1021B0009FED010ACCE700BF0000000043690A4A16
:1021C00003EB011010B4037A084C02EB0313D3E9BC
:1021D00001321460C2681A6003690BB142691A6067
:1021E0005DF8044B704700BF942D002061F801009A
:1021F0004369027E03EB021292F808C08C451CD0A2
:102200001A7AFF2A19D0914210B5044616D01A7EC8
:10221000FF2A06D00121D3E9002312681A4201D116
:10222000217610BD064B0522204603EB0C135B689C
:102230001A60FFF7C3FF2176F3E770470021EAE752
:10224000942D002043690A4A03EB011010B490F862
:102250002830084C02EB0313D3E901321460C26A40
:102260001A60036B0BB1426B1A605DF8044B704748
:10227000942D002061F801004369427E03EB0212B5
:1022800092F828C08C451ED093F82820FF2A1AD037
:10229000914210B5044617D093F83820FF2A06D093
:1022A0000121D3E9002312681A4201D1617610BDE1
:1022B000064B0522204603EB0C135B681A60FFF700
:1022C000C1FF6176F3E770470021EAE7942D002013
:1022D000164942698B6B23F47C0343F4802370B569
:1022E0008B630446124DD2E900130A681A4303694E
:1022F0000A60022200211A610E4A19619A640122C1
:102300005A629D624FF43035DD624FF001159E6CCC
:102310001E6519629D651A61017EFFF74FFF617EA0
:102320002046BDE87040FFF78DBF00BF00C00F40E2
:10233000B80B05053B372819B1F5607FF0B50E469F
:102340008DB028BF4FF460760F46054672B62E4B0F
:1023500000247022186021462C4B2D481C8000F070
:1023600083FCCFB121462A484FF0010C4A0901F005
:102370001F03013150F822400CFA03F38E4243EA66
:10238000040340F82230F1D828460023438001336B
:1023900000F582709E42F9D81E4C257815B162B6C0
:1023A0000DB0F0BD082000F057FC1B4B8022064604
:1023B000009302A90693194B0271056008A80293C5
:1023C00000F06AFC06A9164A304600F05DFC069B48
:1023D00008A8DB689847009B02A8DB689847237829
:1023E000002BDCD10F4B104AC3F858210F49D020E5
:1023F0004FF0E023402281F84600C3F80821012372
:10240000237062B60DB0F0BD24030120AE1301208D
:102410002C030120D2130120B82A00206D5B01009B
:102420001B100100008C0020795B010000E400E03B
:10243000704700BF704700BF704700BF00BF7047C4
:1024400010B44FF0E023002110243148C3F8941D4C
:10245000C3F89C4D1124C3F8A00D2E48C3F89C4D21
:102460001224C3F8A00D2C48C3F89C4D2B4AC3F886
:10247000A00D2B4C42F015022A48C3F89C4DC3F81E
:10248000A00D294C2948C3F89C4DC3F8A00D284C39
:10249000C3F89C2D2748284AC3F8A04DC3F89C0DCB
:1024A000C3F8A02D02F5A022244C0C322448C3F816
:1024B0009C4DC3F8A02D234AC3F89C0D224CC3F8B1
:1024C000A02D02F14062C3F89C4D2048C3F8A02D16
:1024D0000C32C3F89C0DC3F8A02D00BF00BF00BF95
:1024E00000BF00BF0122C3F8942DBFF34F8FBFF38D
:1024F0006F8FC3F8501FBFF34F8FBFF36F8FD3F8A9
:10250000142D5DF8044B42F44032C3F8142D70478B
:102510003F000010250008070900100020140120CA
:1025200013002000210002071400002025000813DA
:10253000090000101600202027000B131700004090
:10254000180000602F000B07190000701A000080AF
:10255000F0B5B84B1822B84E0120B84F83B0C3F87D
:102560005C62B749C3F86072B64DC3F86462A6F501
:102570003046B54CC3F86862C3F86C52C3F8705269
:10258000C3F87452C3F8785248F20C75DA661A67C9
:102590005A679A67DA67C3F88020C3F88420C3F8C3
:1025A0008820C1F82C03A94AC1F83003C1F83403CC
:1025B000C1F83803C1F83C03C1F85003A169A44B2A
:1025C0000A40A448A4491343A44AA361D4F8843020
:1025D00043F00C03C4F884304FF0FF34036843F039
:1025E0000203036003682B404FF400551A439C4BD1
:1025F000026044608A689B4C13409B4A43F000533E
:102600008360C36823F07803C360036A13402343E5
:102610000362036A1340954A2343954C43628262E6
:10262000C2620022D1F8B83023F03F0343F0010327
:10263000C0F8B830D1F8BC308E4923F03F0343F0E6
:102640000103C0F8BC3040F205630261056604670F
:10265000C0F88030456644670224C0F884300368BF
:1026600023F0020303608161834B8449C46143F812
:10267000042B8B42FBD1774A136843F001031360AC
:10268000136813F00103FBD17A48022140F2F5648C
:10269000906140F29940D16140F26641C2F8004237
:1026A00042F20144C2F810127549C2F82002C2F881
:1026B000301240F235417348C2F83442C2F8401239
:1026C000714CC2F8500242F201207049C2F8541213
:1026D0000121C2F86042C2F864025E48C2F8A0302C
:1026E000C2F8A430C2F8B0104369DA07FCD5012360
:1026F00000244FF4803257494361C0F8A040C0F82D
:10270000A420C0F8B0304B69DB07FCD501230024BE
:102710004FF400304F4A4B61C1F8A040C1F8A4000B
:10272000C1F8B0305369DF07FCD5012300245848B5
:1027300048495361C2F8A040C2F8A400C2F8B030C2
:102740004B69DE07FCD5D1F8003145F60D5221204A
:102750009BB24861934265D100244FF4802201234B
:102760003C48C1F8A040C1F8A420C1F8B03043698A
:10277000DD07FCD501234FF400040021354A4361F5
:10278000C0F8A040C0F8A410C0F8B0305369DC070E
:10279000FCD501234FF400044FF480302D495361E0
:1027A000C2F8A040C2F8A400C2F8B0304B69D80704
:1027B000FCD501234FF400044FF40030254A4B614F
:1027C000C1F8A040C1F8A400C1F8B0305369D907DE
:1027D000FCD501234FF400042D481E495361C2F873
:1027E000A040C2F8A400C2F8B0304B69DA07FCD5AB
:1027F000D1F8003145F60D5221209BB24861934239
:1028000050D008254FF4000422490020224B234ACF
:10281000009015705A1A01232148224400F02CFA26
:1028200003B0F0BD1E4B0022C3E90022C3E902221F
:1028300003B0F0BD00801F40F9B00100F9100100A5
:1028400000841F40F970010000C00F40FFFCFF1F13
:10285000000300A000402A4000802A401200FFFF31
:10286000FF37F7004000008000FFF07CFF000F837F
:1028700063000200F05AF05A00422A4000432A4006
:102880009F041830EB06180A3806180A063201268B
:10289000040003000000007000000070E01301203D
:1028A000580D01204FF400044FF480220123084802
:1028B000C1F8A040C1F8A420C1F8B0304369DB07DB
:1028C000FCD5012310254FF0807443619CE700BFC5
:1028D00000402A40F0B4154A40274FF480314FF4AD
:1028E00080564FF400554FF4404443F242001369C0
:1028F00013F0020F0ED113F4005F0FD013F4805FBA
:102900000ED0002BF3DA13F4803F0BD15B060BD50E
:10291000F0BC7047946151619061E8E75561E6E76A
:102920005661E4E79161E2E75761E0E700800D401E
:102930003F4A03203F49F3EE095AD2F880304FF066
:10294000000C9FED3D6A23F001039FED3C5A30B42B
:10295000C2F88030C2F89000D1F8E010384DCBB208
:10296000384C39482B6007EE903A0B0DC1F30B2120
:10297000F8EEE77A06EE903A07EE101A334BB8EE0F
:10298000C77A2160F8EEE66A314937EEC66A37EE5B
:10299000C55A76EEC76A77EEE57A26EE266AC3ED6B
:1029A000006A25EE265AD2F8803067EEA64AC0EDBE
:1029B000007AC6EE275A274885EE276AC4EEA76A32
:1029C00075EE875AFCEEE55A36EE076A15EE904A28
:1029D000BCEEC66A43EA045376EE877AC2F88030CA
:1029E00016EE103AD2F89041FCEEE77A01EA034184
:1029F000214317EE903AC2F89011C3F30B03D2F8BB
:102A000090110B431449C2F89031D2F8803043F052
:102A10000203C2F88030114B80F840C0C1F8403149
:102A20004FF0E023012230BCC3F80821704700BFFB
:102A300000810D4000441F400000AA420000B44243
:102A4000B80F0120B40F0120BC0F0120C00F0120DE
:102A50000000FF0F00E400E0008C002095790100E9
:102A6000314B40F6617210B5C3F8202140F20444A6
:102A700000F0DEF82D4A2E49D2F880302D4843F080
:102A80000303C2F880302C4BC1F8604102681A423F
:102A900003D1D1F8A8319A071BD0254A4FF0004145
:102AA000244B5963D2F8403143F00203C2F840315D
:102AB000D2F840319B07FBD44FF400304FF0E021B7
:102AC0001C4B4FF00042C1F88C0219209A6300F0B1
:102AD000CFF8184A4FF08040154C002190630A202F
:102AE000164B11604FF49062C4F8A801184600F02C
:102AF000BBF84FF4800203464FF4810040F24311CB
:102B00001860C4F858311A640D4B0E4AC4F84811C5
:102B1000C3F804224FF0E0224FF400310123C2F841
:102B20000C11C4F8403110BD00800D4000C00F40B2
:102B300000002E4000900D40001C1E0000000020F0
:102B4000008C00207D7C010008B50E4B1B6E9B079E
:102B500000D4FBBE72B60C4B00200C4AC3F84001F7
:102B600003F160430A49A3F55F2311649D46BFF357
:102B70004F8F4FF400130748074ADB6902609B68D8
:102B8000984700BF00441F4000002E4000C00A408C
:102B90000300200000802020000012EB104BA0203A
:102BA000104AD96E41F4403110B4D96640F237640E
:102BB000D96E41F44071D96654649064936C1B06DD
:102BC000FCD4094A40F23761A02351649364936CAA
:102BD00013F08003FBD1054A13705DF8044B704776
:102BE00000C00F4000400C4000800C40DF1301206B
:102BF000F8B500BFF8BC08BC9E4670470000000056
:102C00005FF800F0F96601005FF800F0E95201009A
:102C10005FF800F02D5301005FF800F0ED70010047
:102C20005FF800F0917601005FF800F011BD01003F
:102C30005FF800F0298C01005FF800F0B952010044
:102C40005FF800F03D5201005FF800F08D51010087
:102C50005FF800F0F95101005FF800F031720100F7
:102C60005FF800F0C95201005FF800F04DBA0100B2
:102C70005FF800F0E96901005FF800F0F9A40100D5
:102C80005FF800F0FDAA01005FF800F09562010016
:102C90005FF800F07D5201005FF800F0E15B010099
:102CA00005010000A9640000F17C00009D9B00006C
:102CB000B51D0100CD1D0100E51D0100FD1D010038
:102CC000151E01002D1E0100451E01005D1E0100A4
:102CD000751E01008D1E0100A51E0100BD1E010014
:102CE000BD200100452401005D2401007524010080
:102CF0008D240100F127010009280100212801008D
:102D000055280100852801009D280100B5280100F3
:102D1000CD280100E528010029360100B953010042
:042D200099630100B2
:102D240080C00F40000000031900000010000000E4
:102D3400E8841F4001000000FF000000FF000000C5
:102D44000000000000000000180000001000000057
:102D5400E4841F4001000000FF000000FF000000A9
:102D640000000000000000001F000000E95A0100FC
:102D740070C00F40000C00001100000011000000A2
:102D8400E0841F40020000002C000000120000003C
:102D9400E0841F400100000010000000110000004A
:102DA400DC841F40020000002D000000120000001F
:102DB400DC841F40010000001E000000DD5A0100F9
:102DC40070C00F40C000000012000000130000009B
:102DD400D0841F4001000000FF000000FF0000003D
:102DE40000000000000000001300000013000000B9
:102DF400CC841F4001000000FF000000FF00000021
:102E040000000000000000001C000000D15A010076
:102E14002A035400650065006E00730079002000E9
:102E24004D004900440049007800310036002F006D
:102E340041007500640069006F000000180354002D
:102E4400650065006E007300790064007500690018
:102E54006E006F000403090409023503060100C073
:102E640032080B0002020201000904000001020200
:102E740001000524001001052401010104240206B7
:102E8400052406000107058203100010090401004F
:102E9400020A000000070503024000000705830240
:102EA400400000090402000201030000072401009D
:102EB40001E70106240201010006240202020009BE
:102EC4002403010301020100092403020401010196
:102ED4000006240201050006240202060009240358
:102EE4000107010601000924030208010501000687
:102EF4002402010900062402020A00092403010B2A
:102F0400010A0100092403020C010901000624023C
:102F1400010D00062402020E00092403010F010E14
:102F240001000924030210010D010006240201110D
:102F340000062402021200092403011301120100F5
:102F440009240302140111010006240201150006DC
:102F540024020216000924030117011601000924A2
:102F640003021801150100062402011900062402B7
:102F7400021A00092403011B011A01000924030297
:102F84001C01190100062402011D00062402021E70
:102F940000092403011F011E01000924030220016A
:102FA4001D01000624020121000624020222000958
:102FB4002403012301220100092403022401210125
:102FC4000006240201250006240202260009240327
:102FD4000127012601000924030228012501000616
:102FE4002402012900062402022A00092403012BD9
:102FF400012A0100092403022C01290100062402EC
:10300400012D00062402022E00092403012F012EA3
:1030140001000924030230012D01000624020131BC
:1030240000062402023200092403013301320100A4
:10303400092403023401310100062402013500068B
:103044002402023600092403013701360100092451
:103054000302380135010006240201390006240266
:10306400023A00092403013B013A01000924030246
:103074003C01390100062402013D00062402023EFF
:1030840000092403013F013E010009240302400119
:103094003D01000905040240000000001425011050
:1030A4000105090D1115191D2125292D3135393D2C
:1030B4000905840240000000001425011003070BD9
:1030C4000F13171B1F23272B2F33373B3F080B03EB
:1030D40003010100000904030000010100000A24A7
:1030E4000100013E000204050C2402010206000254
:1030F400030000000924030201010001000C240262
:103104000301010002030000000A24063103010147
:103114000202000924030402060031000904040029
:103124000001020000090404010101020000072457
:1031340001020301000B2402010202100144AC004D
:1031440009058509B40001000007250100000000FD
:10315400090405000001020000090405010201023E
:103164000000072401030301000B240201020210E2
:103174000144AC0009050505B400010086072501DA
:10318400000000000905861103000105000000008D
:1031940009023503060100C032080B0002020201D5
:1031A40000090400000102020100052400100105C9
:1031B40024010101042402060524060001070582F6
:1031C4000310000509040100020A000000070503BA
:1031D4000200020007058302000200090402000243
:1031E400010300000724010001E701062402010194
:1031F4000006240202020009240301030102010063
:103204000924030204010101000624020105000649
:10321400240202060009240301070106010009240F
:103224000302080105010006240201090006240224
:10323400020A00092403010B010A01000924030204
:103244000C01090100062402010D00062402020EED
:1032540000092403010F010E0100092403021001D7
:103264000D010006240201110006240202120009C5
:1032740024030113011201000924030214011101A2
:103284000006240201150006240202160009240384
:103294000117011601000924030218011501000693
:1032A4002402011900062402021A00092403011B46
:1032B400011A0100092403021C0119010006240259
:1032C400011D00062402021E00092403011F011E21
:1032D40001000924030220011D010006240201212A
:1032E4000006240202220009240301230122010012
:1032F40009240302240121010006240201250006F9
:1033040024020226000924030127012601000924BE
:1033140003022801250100062402012900062402D3
:10332400022A00092403012B012A010009240302B3
:103334002C01290100062402012D00062402022E7C
:1033440000092403012F012E010009240302300186
:103354002D01000624020131000624020232000974
:103364002403013301320100092403023401310131
:103374000006240201350006240202360009240353
:103384000137013601000924030238013501000622
:103394002402013900062402023A00092403013BF5
:1033A400013A0100092403023C0139010006240208
:1033B400013D00062402023E00092403013F013EB0
:1033C40001000924030240013D0100090504020033
:1033D40002000000142501100105090D1115191D25
:1033E4002125292D3135393D0905840200020000CB
:1033F400001425011003070B0F13171B1F23272B82
:103404002F33373B3F080B0303010100000904037A
:103414000000010100000A240100013E000204052D
:103424000C24020102060002030000000924030226
:1034340001010001000C2402030101000203000049
:10344400000A2406310301010202000924030402D4
:10345400060031000904040000010200000904040C
:10346400010101020000072401020301000B2402F0
:10347400010202100144AC0009058509B4000400EE
:1034840000072501000000000904050000010200F6
:1034940000090405010201020000072401030301DD
:1034A400000B2402010202100144AC0009050505C9
:1034B400B4000400860725010000000009058611F8
:1034C40004000407000000000A060002EF020140A5
:0434D40001000000F3
:1034D80000000000000000000000000000000000E4
:1034E80000000000000000000000000000000000D4
:1034F800F8B54FF084439D695A6915400DD0254FA2
:1035080001269D6195FAA5F4B4FA84F457F824309D
:1035180006FA04F49847A543F4D11F4B9D695A69EC
:1035280015400DD01D4F01269D6195FAA5F4B4FAFA
:1035380084F457F8243006FA04F49847A543F4D1E4
:10354800174B9D695A6915400DD0164F01269D618C
:1035580095FAA5F4B4FA84F457F8243006FA04F47A
:103568009847A543F4D1104B9D695A6915400DD071
:103578000E4F01269D6195FAA5F4B4FA84F457F824
:10358800243006FA04F49847A543F4D1BFF34F8FCB
:10359800F8BD00BFB88400200040004238850020F4
:1035A80000800042B885002000C000423886002014
:1035B8000548064B1B1AD90F01EBA301491002D08D
:1035C800034B03B118477047C08E0020C08E0020FF
:1035D8000000000008B5054B1BB105490548AFF3CD
:1035E8000080BDE80840FFF7E3BF00BF000000000F
:1035F800940E012000E4026000207047704700BF6D
:10360800704700BF704700BF704700BF704700BFDA
:1036180038B5054CA4F178050C3C204616F0F2F9B3
:10362800AC42F9D138BD00BF44E600202DE9F0478F
:10363800844F3B780F2B01D0BDE8F087DFF8188264
:1036480006460D4698F82D3083421FD098F82C3046
:10365800B342F1D1A5F130010929EDD801A353F8FE
:1036680021F000BF8502000069010000730200001C
:1036780069010000610200005102000069010000B8
:103688004102000069010000230200006E4B196826
:103698000029DBDDDFF8C4A10022534603E0013234
:1036A80018339142D2D01C78002CF8D05878A84210
:1036B800F5D102EB42030020DFF894910AEBC30135
:1036C800624CDB000AF803008B68510019F82300EC
:1036D8004FEA001E04EB001054F80E30C068C3F81F
:1036E8008800D8F83830032BB0D8DFE803F0888397
:1036F800753C98F80530012B9ED1554B534A1B7DDC
:10370800190102EB03135258DB68C2F8883093E7BB
:1037180098F80430012B8FD14D4B4C4A1B7CEFE7B6
:1037280098F80330012B87D1494B484A1B7BE7E7C0
:1037380098F80230012B7FF47FAF454B434A1B7A40
:10374800DEE798F80130012B7FF476AF404B3F4A13
:103758001B79D5E798F80030012B7FF46DAF3C4B0F
:103768003A4A1B78CCE711449FED3A0A0AEBC10AA2
:10377800DAF8043019F8230017F07CF9DAF8043085
:10378800002119F8230017F00FF9DAF804300121A5
:1037980019F8230016F04AFCDAF80430002119F869
:1037A800230016F007FC3B78DAE9031219F8211018
:1037B80019F82220080104EB01112058C968C0F843
:1037C8008410110104EB02126158D268C1F88420F8
:1037D8000F2B3FF43BAF2FE78B180AEBC3031B6992
:1037E80019F823301A0104EB0313A258DB68C2F856
:1037F80084302BE78B180AEBC303DB68F0E711442E
:103808009FED140A0AEBC10ADAF8043019F823000C
:1038180017F030F9DAF80430002119F8230017F00E
:10382800C3F8DAF80430012119F8230016F0FEFB7A
:10383800DAF80430002119F8230016F0BBFB3B78B6
:10384800C6E700BFF6130120F80C0120942D0020D4
:10385800107700200000000090E5002014130120DC
:10386800324A3348A2EB820332492DE9F047324C01
:1038780003F1040E314D082326784FF00109DFF8D3
:10388800C08004E00133043004310E2B25D012F837
:1038980001CBBCF1020FF5D19E42F3D15EF8227044
:1038A800EFB158F827400F68A74231D007F1010C53
:1038B800002CB8BF0134B7EB640F4FEA640A2BDB66
:1038C800D445C1F800C0DDDB0478270105EB0414FA
:1038D800EF59E468C7F88840D4E7BDE8F0870C687A
:1038E80054B90478270105EB0414EF59E468C7F8C4
:1038F8008440C1F80090C5E704784FEA041C05EB42
:10390800041455F80CC0E468CCF888400F60B9E797
:103918004FF0010C0027CBE70478270105EB0414CE
:10392800EF59E468C7F88440CAE700BF90E5002073
:1039380010770020E00C0120F6130120942D0020C0
:10394800E4830020054B03F1340210B504460360FC
:10395800026115F0D5F8204610BD00BFAC26002046
:1039680038B500F10805D0F8B43004462846984721
:103978004FF6FD73984201D9012038BD0346B4F8CB
:10398800BA20B4F8B810284613F0EAFF94F890303B
:10399800032BF1D8DFE803F0140E0802B4F8BA30AC
:1039A8001B1AA4F8BA30E7E7B4F8B8301B1AA4F821
:1039B800B830E1E7B4F8BA301844A4F8BA00DBE745
:1039C800B4F8B8301844A4F8B800D5E700000000EF
:1039D8003F4B1B780F2B00D070472DE9F0473D4E29
:1039E80096F82D3083422DED068B03D0BDEC068B67
:1039F800BDE8F087384FDFF8ECA03B68CAF8001044
:103A0800002BF3DD354C0025DFF8DC909FED2C9B77
:103A18009FED2D8B03E03B6818349D42E6DA23784E
:103A28000135002BF7D0D6ED097AB2EE084BB36A10
:103A3800B0EE000BB8EEE76BDAED007A09EB830322
:103A4800DFF8A880B8EEE77A89EE065B93ED00AA66
:103A58006378453BB7EEC77A06EE903AB8EECAAB44
:103A6800B8EEE66B86EE043B25EE045B87EE051B9D
:103A780031EE031B19F0ECFF336B64222AEE000BC6
:103A8800D6ED0D6A02FB03F307EE103A6368B8EE51
:103A9800C77B18F82300124BA0EE087BB8EEE60BA4
:103AA80030EE070BB7EEC00B83ED000A16F0E2FF0D
:103AB8006368802118F8230016F076FFABE700BF93
:103AC800000000000000C0400000000000807B40B3
:103AD800F613012090E50020F80C012014130120B2
:103AE800CC0D01204C0F01205883002010770020B6
:103AF8002DE9F047002A4ED004460D468F180026BF
:103B0800DFF89C9000F108084FF6FD7A03E00120E9
:103B1800AF42064420D0236815F8011B1B684B45AB
:103B280015D1D4F8B430404698475045EFD80346ED
:103B3800B4F8BA20B4F8B810404613F011FF94F85E
:103B48009030032BE3D8DFE803F01F18110A204652
:103B58009847AF420644DED13046BDE8F087B4F856
:103B6800BA301B1A0120A4F8BA30D1E7B4F8B8303B
:103B78001B1A0120A4F8B830CAE7B4F8BA301844C0
:103B8800A4F8BA000120C3E7B4F8B8301844A4F880
:103B9800B8000120BCE716463046BDE8F08700BFF4
:103BA80091040000214B1A68D2E90010D368096813
:103BB800006810B41842946801EA04012ED0137CFE
:103BC80003F00303D9B943F008039908013B1174C2
:103BD8000D2B0BD8DFE803F00D071C070A160D0D97
:103BE800160A071C070D5369013B53615DF8044B26
:103BF800704753695DF8044B01335361704743F0D4
:103C08000403E0E753695DF8044B023B53617047D6
:103C180053695DF8044B023353617047137C03F01A
:103C280003030029D1D043F00403CEE7EC040120BC
:103C3800224BD3F8D420D2E90010D3680968006871
:103C480010B41842946801EA04012ED0137C03F0E2
:103C58000303D9B943F008039908013B11740D2BEC
:103C68000BD8DFE803F00D071C070A160D0D160A1E
:103C7800071C070D5369013B53615DF8044B7047FE
:103C880053695DF8044B01335361704743F00403F3
:103C9800E0E753695DF8044B023B53617047536991
:103CA8005DF8044B023353617047137C03F0030340
:103CB8000029D1D043F00403CEE700BFEC04012073
:103CC800224BD3F8D820D2E90010D36809680068DD
:103CD80010B41842946801EA04012ED0137C03F052
:103CE8000303D9B943F008039908013B11740D2B5C
:103CF8000BD8DFE803F00D071C070A160D0D160A8E
:103D0800071C070D5369013B53615DF8044B70476D
:103D180053695DF8044B01335361704743F0040362
:103D2800E0E753695DF8044B023B53617047536900
:103D38005DF8044B023353617047137C03F00303AF
:103D48000029D1D043F00403CEE700BFEC040120E2
:103D5800224BD3F8C420D2E90010D3680968006860
:103D680010B41842946801EA04012ED0137C03F0C1
:103D78000303D9B943F008039908013B11740D2BCB
:103D88000BD8DFE803F00D071C070A160D0D160AFD
:103D9800071C070D5369013B53615DF8044B7047DD
:103DA80053695DF8044B01335361704743F00403D2
:103DB800E0E753695DF8044B023B53617047536970
:103DC8005DF8044B023353617047137C03F003031F
:103DD8000029D1D043F00403CEE700BFEC04012052
:103DE800224BD3F8C820D2E90010D36809680068CC
:103DF80010B41842946801EA04012ED0137C03F031
:103E08000303D9B943F008039908013B11740D2B3A
:103E18000BD8DFE803F00D071C070A160D0D160A6C
:103E2800071C070D5369013B53615DF8044B70474C
:103E380053695DF8044B01335361704743F0040341
:103E4800E0E753695DF8044B023B536170475369DF
:103E58005DF8044B023353617047137C03F003038E
:103E68000029D1D043F00403CEE700BFEC040120C1
:103E7800224BD3F8CC20D2E90010D3680968006837
:103E880010B41842946801EA04012ED0137C03F0A0
:103E98000303D9B943F008039908013B11740D2BAA
:103EA8000BD8DFE803F00D071C070A160D0D160ADC
:103EB800071C070D5369013B53615DF8044B7047BC
:103EC80053695DF8044B01335361704743F00403B1
:103ED800E0E753695DF8044B023B5361704753694F
:103EE8005DF8044B023353617047137C03F00303FE
:103EF8000029D1D043F00403CEE700BFEC04012031
:103F0800224BD3F8D020D2E90010D36809680068A2
:103F180010B41842946801EA04012ED0137C03F00F
:103F28000303D9B943F008039908013B11740D2B19
:103F38000BD8DFE803F00D071C070A160D0D160A4B
:103F4800071C070D5369013B53615DF8044B70472B
:103F580053695DF8044B01335361704743F0040320
:103F6800E0E753695DF8044B023B536170475369BE
:103F78005DF8044B023353617047137C03F003036D
:103F88000029D1D043F00403CEE700BFEC040120A0
:103F9800224BD3F8A420D2E90010D368096800683E
:103FA80010B41842946801EA04012ED0137C03F07F
:103FB8000303D9B943F008039908013B11740D2B89
:103FC8000BD8DFE803F00D071C070A160D0D160ABB
:103FD800071C070D5369013B53615DF8044B70479B
:103FE80053695DF8044B01335361704743F0040390
:103FF800E0E753695DF8044B023B5361704753692E
:104008005DF8044B023353617047137C03F00303DC
:104018000029D1D043F00403CEE700BFEC0401200F
:10402800224BD3F8A820D2E90010D36809680068A9
:1040380010B41842946801EA04012ED0137C03F0EE
:104048000303D9B943F008039908013B11740D2BF8
:104058000BD8DFE803F00D071C070A160D0D160A2A
:10406800071C070D5369013B53615DF8044B70470A
:1040780053695DF8044B01335361704743F00403FF
:10408800E0E753695DF8044B023B5361704753699D
:104098005DF8044B023353617047137C03F003034C
:1040A8000029D1D043F00403CEE700BFEC0401207F
:1040B800224BD3F8AC20D2E90010D3680968006815
:1040C80010B41842946801EA04012ED0137C03F05E
:1040D8000303D9B943F008039908013B11740D2B68
:1040E8000BD8DFE803F00D071C070A160D0D160A9A
:1040F800071C070D5369013B53615DF8044B70477A
:1041080053695DF8044B01335361704743F004036E
:10411800E0E753695DF8044B023B5361704753690C
:104128005DF8044B023353617047137C03F00303BB
:104138000029D1D043F00403CEE700BFEC040120EE
:10414800224BD3F8B020D2E90010D3680968006880
:1041580010B41842946801EA04012ED0137C03F0CD
:104168000303D9B943F008039908013B11740D2BD7
:104178000BD8DFE803F00D071C070A160D0D160A09
:10418800071C070D5369013B53615DF8044B7047E9
:1041980053695DF8044B01335361704743F00403DE
:1041A800E0E753695DF8044B023B5361704753697C
:1041B8005DF8044B023353617047137C03F003032B
:1041C8000029D1D043F00403CEE700BFEC0401205E
:1041D800224BD3F8B420D2E90010D36809680068EC
:1041E80010B41842946801EA04012ED0137C03F03D
:1041F8000303D9B943F008039908013B11740D2B47
:104208000BD8DFE803F00D071C070A160D0D160A78
:10421800071C070D5369013B53615DF8044B704758
:1042280053695DF8044B01335361704743F004034D
:10423800E0E753695DF8044B023B536170475369EB
:104248005DF8044B023353617047137C03F003039A
:104258000029D1D043F00403CEE700BFEC040120CD
:10426800224BD3F8B820D2E90010D3680968006857
:1042780010B41842946801EA04012ED0137C03F0AC
:104288000303D9B943F008039908013B11740D2BB6
:104298000BD8DFE803F00D071C070A160D0D160AE8
:1042A800071C070D5369013B53615DF8044B7047C8
:1042B80053695DF8044B01335361704743F00403BD
:1042C800E0E753695DF8044B023B5361704753695B
:1042D8005DF8044B023353617047137C03F003030A
:1042E8000029D1D043F00403CEE700BFEC0401203D
:1042F800224BD3F8BC20D2E90010D36809680068C3
:1043080010B41842946801EA04012ED0137C03F01B
:104318000303D9B943F008039908013B11740D2B25
:104328000BD8DFE803F00D071C070A160D0D160A57
:10433800071C070D5369013B53615DF8044B704737
:1043480053695DF8044B01335361704743F004032C
:10435800E0E753695DF8044B023B536170475369CA
:104368005DF8044B023353617047137C03F0030379
:104378000029D1D043F00403CEE700BFEC040120AC
:10438800224BD3F8C020D2E90010D368096800682E
:1043980010B41842946801EA04012ED0137C03F08B
:1043A8000303D9B943F008039908013B11740D2B95
:1043B8000BD8DFE803F00D071C070A160D0D160AC7
:1043C800071C070D5369013B53615DF8044B7047A7
:1043D80053695DF8044B01335361704743F004039C
:1043E800E0E753695DF8044B023B5361704753693A
:1043F8005DF8044B023353617047137C03F00303E9
:104408000029D1D043F00403CEE700BFEC0401201B
:10441800214B5A68D2E90010D3680968006810B4C3
:104428001842946801EA04012ED0137C03F00303B8
:10443800D9B943F008039908013B11740D2B0BD827
:10444800DFE803F00D071C070A160D0D160A071CF6
:10445800070D5369013B53615DF8044B704753697D
:104468005DF8044B01335361704743F00403E0E700
:1044780053695DF8044B023B5361704753695DF81B
:10448800044B023353617047137C03F00303002984
:10449800D1D043F00403CEE7EC040120214B9A6805
:1044A800D2E90010D3680968006810B4184294680B
:1044B80001EA04012ED0137C03F00303D9B943F0B9
:1044C80008039908013B11740D2B0BD8DFE803F0A2
:1044D8000D071C070A160D0D160A071C070D536950
:1044E800013B53615DF8044B704753695DF8044B19
:1044F80001335361704743F00403E0E753695DF803
:10450800044B023B5361704753695DF8044B023317
:1045180053617047137C03F003030029D1D043F0A3
:104528000403CEE7EC040120214BDA68D2E900103D
:10453800D3680968006810B41842946801EA040155
:104548002ED0137C03F00303D9B943F0080399086C
:10455800013B11740D2B0BD8DFE803F00D071C0786
:104568000A160D0D160A071C070D5369013B536106
:104578005DF8044B704753695DF8044B0133536190
:10458800704743F00403E0E753695DF8044B023BCE
:104598005361704753695DF8044B023353617047A8
:1045A800137C03F003030029D1D043F00403CEE7C2
:1045B800EC040120214B1A69D2E90010D36809687C
:1045C800006810B41842946801EA04012ED0137CE4
:1045D80003F00303D9B943F008039908013B1174A8
:1045E8000D2B0BD8DFE803F00D071C070A160D0D7D
:1045F800160A071C070D5369013B53615DF8044B0C
:10460800704753695DF8044B01335361704743F0B9
:104618000403E0E753695DF8044B023B53617047BC
:1046280053695DF8044B023353617047137C03F000
:1046380003030029D1D043F00403CEE7EC040120A2
:10464800214B5A69D2E90010D3680968006810B490
:104658001842946801EA04012ED0137C03F0030386
:10466800D9B943F008039908013B11740D2B0BD8F5
:10467800DFE803F00D071C070A160D0D160A071CC4
:10468800070D5369013B53615DF8044B704753694B
:104698005DF8044B01335361704743F00403E0E7CE
:1046A80053695DF8044B023B5361704753695DF8E9
:1046B800044B023353617047137C03F00303002952
:1046C800D1D043F00403CEE7EC040120214B9A69D2
:1046D800D2E90010D3680968006810B418429468D9
:1046E80001EA04012ED0137C03F00303D9B943F087
:1046F80008039908013B11740D2B0BD8DFE803F070
:104708000D071C070A160D0D160A071C070D53691D
:10471800013B53615DF8044B704753695DF8044BE6
:1047280001335361704743F00403E0E753695DF8D0
:10473800044B023B5361704753695DF8044B0233E5
:1047480053617047137C03F003030029D1D043F071
:104758000403CEE7EC040120214BDA69D2E900100A
:10476800D3680968006810B41842946801EA040123
:104778002ED0137C03F00303D9B943F0080399083A
:10478800013B11740D2B0BD8DFE803F00D071C0754
:104798000A160D0D160A071C070D5369013B5361D4
:1047A8005DF8044B704753695DF8044B013353615E
:1047B800704743F00403E0E753695DF8044B023B9C
:1047C8005361704753695DF8044B02335361704776
:1047D800137C03F003030029D1D043F00403CEE790
:1047E800EC040120214B1A6AD2E90010D368096849
:1047F800006810B41842946801EA04012ED0137CB2
:1048080003F00303D9B943F008039908013B117475
:104818000D2B0BD8DFE803F00D071C070A160D0D4A
:10482800160A071C070D5369013B53615DF8044BD9
:10483800704753695DF8044B01335361704743F087
:104848000403E0E753695DF8044B023B536170478A
:1048580053695DF8044B023353617047137C03F0CE
:1048680003030029D1D043F00403CEE7EC04012070
:10487800214B5A6AD2E90010D3680968006810B45D
:104888001842946801EA04012ED0137C03F0030354
:10489800D9B943F008039908013B11740D2B0BD8C3
:1048A800DFE803F00D071C070A160D0D160A071C92
:1048B800070D5369013B53615DF8044B7047536919
:1048C8005DF8044B01335361704743F00403E0E79C
:1048D80053695DF8044B023B5361704753695DF8B7
:1048E800044B023353617047137C03F00303002920
:1048F800D1D043F00403CEE7EC040120214B9A6A9F
:10490800D2E90010D3680968006810B418429468A6
:1049180001EA04012ED0137C03F00303D9B943F054
:1049280008039908013B11740D2B0BD8DFE803F03D
:104938000D071C070A160D0D160A071C070D5369EB
:10494800013B53615DF8044B704753695DF8044BB4
:1049580001335361704743F00403E0E753695DF89E
:10496800044B023B5361704753695DF8044B0233B3
:1049780053617047137C03F003030029D1D043F03F
:104988000403CEE7EC040120214BDA6AD2E90010D7
:10499800D3680968006810B41842946801EA0401F1
:1049A8002ED0137C03F00303D9B943F00803990808
:1049B800013B11740D2B0BD8DFE803F00D071C0722
:1049C8000A160D0D160A071C070D5369013B5361A2
:1049D8005DF8044B704753695DF8044B013353612C
:1049E800704743F00403E0E753695DF8044B023B6A
:1049F8005361704753695DF8044B02335361704744
:104A0800137C03F003030029D1D043F00403CEE75D
:104A1800EC040120214B1A6BD2E90010D368096815
:104A2800006810B41842946801EA04012ED0137C7F
:104A380003F00303D9B943F008039908013B117443
:104A48000D2B0BD8DFE803F00D071C070A160D0D18
:104A5800160A071C070D5369013B53615DF8044BA7
:104A6800704753695DF8044B01335361704743F055
:104A78000403E0E753695DF8044B023B5361704758
:104A880053695DF8044B023353617047137C03F09C
:104A980003030029D1D043F00403CEE7EC0401203E
:104AA800214B5A6BD2E90010D3680968006810B42A
:104AB8001842946801EA04012ED0137C03F0030322
:104AC800D9B943F008039908013B11740D2B0BD891
:104AD800DFE803F00D071C070A160D0D160A071C60
:104AE800070D5369013B53615DF8044B70475369E7
:104AF8005DF8044B01335361704743F00403E0E76A
:104B080053695DF8044B023B5361704753695DF884
:104B1800044B023353617047137C03F003030029ED
:104B2800D1D043F00403CEE7EC040120214B9A6B6B
:104B3800D2E90010D3680968006810B41842946874
:104B480001EA04012ED0137C03F00303D9B943F022
:104B580008039908013B11740D2B0BD8DFE803F00B
:104B68000D071C070A160D0D160A071C070D5369B9
:104B7800013B53615DF8044B704753695DF8044B82
:104B880001335361704743F00403E0E753695DF86C
:104B9800044B023B5361704753695DF8044B023381
:104BA80053617047137C03F003030029D1D043F00D
:104BB8000403CEE7EC040120214BDA6BD2E90010A4
:104BC800D3680968006810B41842946801EA0401BF
:104BD8002ED0137C03F00303D9B943F008039908D6
:104BE800013B11740D2B0BD8DFE803F00D071C07F0
:104BF8000A160D0D160A071C070D5369013B536170
:104C08005DF8044B704753695DF8044B01335361F9
:104C1800704743F00403E0E753695DF8044B023B37
:104C28005361704753695DF8044B02335361704711
:104C3800137C03F003030029D1D043F00403CEE72B
:104C4800EC040120214B1A6CD2E90010D3680968E2
:104C5800006810B41842946801EA04012ED0137C4D
:104C680003F00303D9B943F008039908013B117411
:104C78000D2B0BD8DFE803F00D071C070A160D0DE6
:104C8800160A071C070D5369013B53615DF8044B75
:104C9800704753695DF8044B01335361704743F023
:104CA8000403E0E753695DF8044B023B5361704726
:104CB80053695DF8044B023353617047137C03F06A
:104CC80003030029D1D043F00403CEE7EC0401200C
:104CD800214B5A6CD2E90010D3680968006810B4F7
:104CE8001842946801EA04012ED0137C03F00303F0
:104CF800D9B943F008039908013B11740D2B0BD85F
:104D0800DFE803F00D071C070A160D0D160A071C2D
:104D1800070D5369013B53615DF8044B70475369B4
:104D28005DF8044B01335361704743F00403E0E737
:104D380053695DF8044B023B5361704753695DF852
:104D4800044B023353617047137C03F003030029BB
:104D5800D1D043F00403CEE7EC040120214B9A6C38
:104D6800D2E90010D3680968006810B41842946842
:104D780001EA04012ED0137C03F00303D9B943F0F0
:104D880008039908013B11740D2B0BD8DFE803F0D9
:104D98000D071C070A160D0D160A071C070D536987
:104DA800013B53615DF8044B704753695DF8044B50
:104DB80001335361704743F00403E0E753695DF83A
:104DC800044B023B5361704753695DF8044B02334F
:104DD80053617047137C03F003030029D1D043F0DB
:104DE8000403CEE7EC040120214BDA6CD2E9001071
:104DF800D3680968006810B41842946801EA04018D
:104E08002ED0137C03F00303D9B943F008039908A3
:104E1800013B11740D2B0BD8DFE803F00D071C07BD
:104E28000A160D0D160A071C070D5369013B53613D
:104E38005DF8044B704753695DF8044B01335361C7
:104E4800704743F00403E0E753695DF8044B023B05
:104E58005361704753695DF8044B023353617047DF
:104E6800137C03F003030029D1D043F00403CEE7F9
:104E7800EC040120214B1A6DD2E90010D3680968AF
:104E8800006810B41842946801EA04012ED0137C1B
:104E980003F00303D9B943F008039908013B1174DF
:104EA8000D2B0BD8DFE803F00D071C070A160D0DB4
:104EB800160A071C070D5369013B53615DF8044B43
:104EC800704753695DF8044B01335361704743F0F1
:104ED8000403E0E753695DF8044B023B53617047F4
:104EE80053695DF8044B023353617047137C03F038
:104EF80003030029D1D043F00403CEE7EC040120DA
:104F0800214B5A6DD2E90010D3680968006810B4C3
:104F18001842946801EA04012ED0137C03F00303BD
:104F2800D9B943F008039908013B11740D2B0BD82C
:104F3800DFE803F00D071C070A160D0D160A071CFB
:104F4800070D5369013B53615DF8044B7047536982
:104F58005DF8044B01335361704743F00403E0E705
:104F680053695DF8044B023B5361704753695DF820
:104F7800044B023353617047137C03F00303002989
:104F8800D1D043F00403CEE7EC040120214B9A6D05
:104F9800D2E90010D3680968006810B41842946810
:104FA80001EA04012ED0137C03F00303D9B943F0BE
:104FB80008039908013B11740D2B0BD8DFE803F0A7
:104FC8000D071C070A160D0D160A071C070D536955
:104FD800013B53615DF8044B704753695DF8044B1E
:104FE80001335361704743F00403E0E753695DF808
:104FF800044B023B5361704753695DF8044B02331D
:1050080053617047137C03F003030029D1D043F0A8
:105018000403CEE7EC040120214BDA6DD2E900103D
:10502800D3680968006810B41842946801EA04015A
:105038002ED0137C03F00303D9B943F00803990871
:10504800013B11740D2B0BD8DFE803F00D071C078B
:105058000A160D0D160A071C070D5369013B53610B
:105068005DF8044B704753695DF8044B0133536195
:10507800704743F00403E0E753695DF8044B023BD3
:105088005361704753695DF8044B023353617047AD
:10509800137C03F003030029D1D043F00403CEE7C7
:1050A800EC040120214B1A6ED2E90010D36809687C
:1050B800006810B41842946801EA04012ED0137CE9
:1050C80003F00303D9B943F008039908013B1174AD
:1050D8000D2B0BD8DFE803F00D071C070A160D0D82
:1050E800160A071C070D5369013B53615DF8044B11
:1050F800704753695DF8044B01335361704743F0BF
:105108000403E0E753695DF8044B023B53617047C1
:1051180053695DF8044B023353617047137C03F005
:1051280003030029D1D043F00403CEE7EC040120A7
:10513800214B5A6ED2E90010D3680968006810B490
:105148001842946801EA04012ED0137C03F003038B
:10515800D9B943F008039908013B11740D2B0BD8FA
:10516800DFE803F00D071C070A160D0D160A071CC9
:10517800070D5369013B53615DF8044B7047536950
:105188005DF8044B01335361704743F00403E0E7D3
:1051980053695DF8044B023B5361704753695DF8EE
:1051A800044B023353617047137C03F00303002957
:1051B800D1D043F00403CEE7EC040120214B9A6ED2
:1051C800D2E90010D3680968006810B418429468DE
:1051D80001EA04012ED0137C03F00303D9B943F08C
:1051E80008039908013B11740D2B0BD8DFE803F075
:1051F8000D071C070A160D0D160A071C070D536923
:10520800013B53615DF8044B704753695DF8044BEB
:1052180001335361704743F00403E0E753695DF8D5
:10522800044B023B5361704753695DF8044B0233EA
:1052380053617047137C03F003030029D1D043F076
:105248000403CEE7EC040120214BDA6ED2E900100A
:10525800D3680968006810B41842946801EA040128
:105268002ED0137C03F00303D9B943F0080399083F
:10527800013B11740D2B0BD8DFE803F00D071C0759
:105288000A160D0D160A071C070D5369013B5361D9
:105298005DF8044B704753695DF8044B0133536163
:1052A800704743F00403E0E753695DF8044B023BA1
:1052B8005361704753695DF8044B0233536170477B
:1052C800137C03F003030029D1D043F00403CEE795
:1052D800EC040120214B1A6FD2E90010D368096849
:1052E800006810B41842946801EA04012ED0137CB7
:1052F80003F00303D9B943F008039908013B11747B
:105308000D2B0BD8DFE803F00D071C070A160D0D4F
:10531800160A071C070D5369013B53615DF8044BDE
:10532800704753695DF8044B01335361704743F08C
:105338000403E0E753695DF8044B023B536170478F
:1053480053695DF8044B023353617047137C03F0D3
:1053580003030029D1D043F00403CEE7EC04012075
:10536800214B5A6FD2E90010D3680968006810B45D
:105378001842946801EA04012ED0137C03F0030359
:10538800D9B943F008039908013B11740D2B0BD8C8
:10539800DFE803F00D071C070A160D0D160A071C97
:1053A800070D5369013B53615DF8044B704753691E
:1053B8005DF8044B01335361704743F00403E0E7A1
:1053C80053695DF8044B023B5361704753695DF8BC
:1053D800044B023353617047137C03F00303002925
:1053E800D1D043F00403CEE7EC040120214B9A6F9F
:1053F800D2E90010D3680968006810B418429468AC
:1054080001EA04012ED0137C03F00303D9B943F059
:1054180008039908013B11740D2B0BD8DFE803F042
:105428000D071C070A160D0D160A071C070D5369F0
:10543800013B53615DF8044B704753695DF8044BB9
:1054480001335361704743F00403E0E753695DF8A3
:10545800044B023B5361704753695DF8044B0233B8
:1054680053617047137C03F003030029D1D043F044
:105478000403CEE7EC040120214BDA6FD2E90010D7
:10548800D3680968006810B41842946801EA0401F6
:105498002ED0137C03F00303D9B943F0080399080D
:1054A800013B11740D2B0BD8DFE803F00D071C0727
:1054B8000A160D0D160A071C070D5369013B5361A7
:1054C8005DF8044B704753695DF8044B0133536131
:1054D800704743F00403E0E753695DF8044B023B6F
:1054E8005361704753695DF8044B02335361704749
:1054F800137C03F003030029D1D043F00403CEE763
:10550800EC040120224BD3F88020D2E90010D368A4
:105518000968006810B41842946801EA04012ED0A2
:10552800137C03F00303D9B943F008039908013B3E
:1055380011740D2B0BD8DFE803F00D071C070A16B2
:105548000D0D160A071C070D5369013B53615DF8E1
:10555800044B704753695DF8044B0133536170473E
:1055680043F00403E0E753695DF8044B023B5361E1
:10557800704753695DF8044B023353617047137CDD
:1055880003F003030029D1D043F00403CEE700BFA2
:10559800EC040120224BD3F88420D2E90010D36810
:1055A8000968006810B41842946801EA04012ED012
:1055B800137C03F00303D9B943F008039908013BAE
:1055C80011740D2B0BD8DFE803F00D071C070A1622
:1055D8000D0D160A071C070D5369013B53615DF851
:1055E800044B704753695DF8044B013353617047AE
:1055F80043F00403E0E753695DF8044B023B536151
:10560800704753695DF8044B023353617047137C4C
:1056180003F003030029D1D043F00403CEE700BF11
:10562800EC040120224BD3F88820D2E90010D3687B
:105638000968006810B41842946801EA04012ED081
:10564800137C03F00303D9B943F008039908013B1D
:1056580011740D2B0BD8DFE803F00D071C070A1691
:105668000D0D160A071C070D5369013B53615DF8C0
:10567800044B704753695DF8044B0133536170471D
:1056880043F00403E0E753695DF8044B023B5361C0
:10569800704753695DF8044B023353617047137CBC
:1056A80003F003030029D1D043F00403CEE700BF81
:1056B800EC040120224BD3F88C20D2E90010D368E7
:1056C8000968006810B41842946801EA04012ED0F1
:1056D800137C03F00303D9B943F008039908013B8D
:1056E80011740D2B0BD8DFE803F00D071C070A1601
:1056F8000D0D160A071C070D5369013B53615DF830
:10570800044B704753695DF8044B0133536170478C
:1057180043F00403E0E753695DF8044B023B53612F
:10572800704753695DF8044B023353617047137C2B
:1057380003F003030029D1D043F00403CEE700BFF0
:10574800EC040120224BD3F89020D2E90010D36852
:105758000968006810B41842946801EA04012ED060
:10576800137C03F00303D9B943F008039908013BFC
:1057780011740D2B0BD8DFE803F00D071C070A1670
:105788000D0D160A071C070D5369013B53615DF89F
:10579800044B704753695DF8044B013353617047FC
:1057A80043F00403E0E753695DF8044B023B53619F
:1057B800704753695DF8044B023353617047137C9B
:1057C80003F003030029D1D043F00403CEE700BF60
:1057D800EC040120224BD3F89420D2E90010D368BE
:1057E8000968006810B41842946801EA04012ED0D0
:1057F800137C03F00303D9B943F008039908013B6C
:1058080011740D2B0BD8DFE803F00D071C070A16DF
:105818000D0D160A071C070D5369013B53615DF80E
:10582800044B704753695DF8044B0133536170476B
:1058380043F00403E0E753695DF8044B023B53610E
:10584800704753695DF8044B023353617047137C0A
:1058580003F003030029D1D043F00403CEE700BFCF
:10586800EC040120224BD3F89820D2E90010D36829
:105878000968006810B41842946801EA04012ED03F
:10588800137C03F00303D9B943F008039908013BDB
:1058980011740D2B0BD8DFE803F00D071C070A164F
:1058A8000D0D160A071C070D5369013B53615DF87E
:1058B800044B704753695DF8044B013353617047DB
:1058C80043F00403E0E753695DF8044B023B53617E
:1058D800704753695DF8044B023353617047137C7A
:1058E80003F003030029D1D043F00403CEE700BF3F
:1058F800EC040120224BD3F89C20D2E90010D36895
:105908000968006810B41842946801EA04012ED0AE
:10591800137C03F00303D9B943F008039908013B4A
:1059280011740D2B0BD8DFE803F00D071C070A16BE
:105938000D0D160A071C070D5369013B53615DF8ED
:10594800044B704753695DF8044B0133536170474A
:1059580043F00403E0E753695DF8044B023B5361ED
:10596800704753695DF8044B023353617047137CE9
:1059780003F003030029D1D043F00403CEE700BFAE
:10598800EC040120224BD3F8A020D2E90010D36800
:105998000968006810B41842946801EA04012ED01E
:1059A800137C03F00303D9B943F008039908013BBA
:1059B80011740D2B0BD8DFE803F00D071C070A162E
:1059C8000D0D160A071C070D5369013B53615DF85D
:1059D800044B704753695DF8044B013353617047BA
:1059E80043F00403E0E753695DF8044B023B53615D
:1059F800704753695DF8044B023353617047137C59
:105A080003F003030029D1D043F00403CEE700BF1D
:105A1800EC04012000F59F6200230F494FF0400C71
:105A280010B5026300F5A762016000F5AF6142633B
:105A380000F5B762A0F846C00446816302640062BC
:105A4800C0E901335023A0F8483007F011FD034B9B
:105A58002046236010BD00BF5C270020EC260020F4
:105A68000022034613494FF4806C10B4124C43F8DB
:105A7800284BA0F808C0C0E903230B68C0E90A2234
:105A8800C0E90C229BB11A465B69002BFBD150611F
:105A980000224FF4803309495DF8044B42614260AB
:105AA80082720160C0E90633C0E9083370470860B4
:105AB800EEE700BF28030120382700202C2700200C
:105AC8000B4610B5362800F29782DFE810F08C02FA
:105AD80082027902700267025E0255024C0243029A
:105AE8003A02310228021F02BF01B601AD01A4012A
:105AF8009B0192018901800177016E0165015C01BA
:105B080053014A01410138012F0126011D011301EA
:105B18000901FF00F500EB00E100D700CD00C3004C
:105B2800B900AF00A5009B00910087007D007300BD
:105B380069005F0055004B0041003700C84C042243
:105B4800C8493620C4F8D83014F0B6FC012010BD7E
:105B5800C34C0422C4493520C4F8D43014F0ACFC3A
:105B6800012010BDBE4C0422C0493420C4F8D030F6
:105B780014F0A2FC012010BDB94C0422BC4933200A
:105B8800C4F8CC3014F098FC012010BDB44C0422A9
:105B9800B8493220C4F8C83014F08EFC012010BD7A
:105BA800AF4C0422B4493120C4F8C43014F084FC4A
:105BB800012010BDAA4C0422B0493020C4F8C030DE
:105BC80014F07AFC012010BDA54C0422AC492F200A
:105BD800C4F8BC3014F070FC012010BDA04C0422A5
:105BE800A8492E20C4F8B83014F066FC012010BD76
:105BF8009B4C0422A4492D20C4F8B43014F05CFC5A
:105C0800012010BD964C0422A0492C20C4F8B030C5
:105C180014F052FC012010BD914C04229C492B2009
:105C2800C4F8AC3014F048FC012010BD8C4C0422A0
:105C380098492A20C4F8A83014F03EFC012010BD71
:105C4800874C042294492920C4F8A43014F034FC69
:105C5800012010BD824C042290492820C4F8A030AD
:105C680014F02AFC012010BD7D4C04228C49272009
:105C7800C4F89C3014F020FC012010BD784C04229C
:105C880088492620C4F8983014F016FC012010BD6D
:105C9800734C042284492520C4F8943014F00CFC79
:105CA800012010BD6E4C042280492420C4F8903095
:105CB80014F002FC012010BD694C04227C49232009
:105CC800C4F88C3014F0F8FB012010BD644C042299
:105CD80078492220C4F8883014F0EEFB012010BD6A
:105CE8005F4C042274492120C4F8843014F0E4FB8A
:105CF800012010BD5A4C042270492020C4F880307D
:105D080014F0DAFB012010BD554C04226C491F2009
:105D1800E36714F0D1FB012010BD514C04226949FE
:105D28001E20A36714F0C8FB012010BD4C4C0422B0
:105D380065491D20636714F0BFFB012010BD484C66
:105D4800042262491C20236714F0B6FB012010BD11
:105D5800434C04225E491B20E36614F0ADFB01208E
:105D680010BD3F4C04225B491A20A36614F0A4FB23
:105D7800012010BD3A4C042257491920636614F0DB
:105D88009BFB012010BD364C042254491820236681
:105D980014F092FB012010BD314C04225049172009
:105DA800E36514F089FB012010BD2D4C04224D49F8
:105DB8001620A36514F080FB012010BD284C042296
:105DC80049491520636514F077FB012010BD244C68
:105DD800042246491420236514F06EFB012010BDEF
:105DE8001F4C042242491320E36414F065FB012090
:105DF80010BD1B4C04223F491220A36414F05CFB25
:105E0800012010BD164C04223B491120636414F094
:105E180053FB012010BD124C042238491020236482
:105E280014F04AFB012010BD0D4C042234490F2008
:105E3800E36314F041FB012010BD094C04223149F1
:105E48000E20A36314F038FB012010BD044C04227B
:105E58002D490D20636314F02FFB012010BD00BFF6
:105E6800EC040120F107000061070000310A00007E
:105E7800A10900001109000081080000B10E00000E
:105E8800210E0000910D0000010D0000710C0000B2
:105E9800E10B0000510B0000C10A0000B52400000E
:105EA800252400009523000005230000752200002A
:105EB800E521000055210000C52000003520000024
:105EC800A91F00001D1F0000911E0000051E0000F4
:105ED800791D0000ED1C0000611C0000D51B0000AE
:105EE800491B0000BD1A0000311A0000A519000066
:105EF800191900008D18000001180000751700001E
:105F0800E91600005D160000D11500003B4C042284
:105F18003B490C20236314F0CFFA012010BD374C05
:105F2800042238490B20E36214F0C6FA012010BDA0
:105F3800324C042234490A20A36214F0BDFA01202D
:105F480010BD2E4C042231490920636214F0B4FAC2
:105F5800012010BD294C04222D490820236214F089
:105F6800ABFA012010BD254C04222A490720E36121
:105F780014F0A2FA012010BD204C04222649062064
:105F8800A36114F099FA012010BD1C4C0422234986
:105F98000520636114F090FA012010BD0422174C0B
:105FA8001F491046236114F087FA012010BD134CD5
:105FB80004221C490320E36014F07EFA012010BD7E
:105FC8000E4C042218490220A36014F075FA01202F
:105FD80010BD04460948042214494360012014F006
:105FE8006BFA204610BD054C04221149002023609D
:105FF80014F062FA012010BD002010BDEC0401204D
:1060080045150000B91400002D140000A11300006C
:106018001513000089120000FD1100007111000025
:10602800E510000059100000CD0F0000410F0000DE
:10603800D50600002DE9F0410F4616460446022118
:10604800384613F0F3FF0221304613F0EFFF224BDE
:106058003A0122483101DFF88CC053F8028003EB83
:106068000712C4F80080D2F80CE003EB0612595866
:106078000023C4F808E0D2686361194BE260456800
:106088001B686160ACFB033C4FF4FA634FEA9C4C1D
:1060980003FB0CFC43685B1B9C45FBD8D8F800301D
:1060A800384609681EEA030F14BF012300230A4279
:1060B800214618BF43F002032374FFF701FD03468E
:1060C800214630462376FFF7FBFC227E0346204616
:1060D80013442376BDE8F081942D0020001000E0E1
:1060E800A473002083DE1B43F0288C46114610B5AC
:1060F800029C9DF80CE007D0BEF10F0F03D8EF28E3
:106108000DD8020628D410BDBEF10F0FFBD8724679
:1061180020460CEB0121BDE8104016F005BAF7281F
:1061280033D8F62831D000F0FD03F12B37D0F22810
:10613800E9D14FEA0C4C4FF2032012060CF4FE0C86
:1061480002F0FE424CEA0E1C4CEA020CBDE810407C
:106158004CEA000016F08EB9013B0A064FEA0C41E2
:1061680000F0F0001B0202F0FE4201F4FE0103F40D
:10617800706343EA0E1313430B4343EA0023BDE85D
:10618800104043EA101016F075B94FEA0E1E4EEA99
:106198000020BDE8104040F00F0016F06BB94FEA40
:1061A8000C4101F4FE0141EA002040EA0E10BDE86E
:1061B800104040F0020016F05DB900BF2DE9F0472D
:1061C8003C4F84B0DFF8048106463B68D8F80020CD
:1061D800934262DC002BDFF8F8900ADD4C4600257C
:1061E80020460C340135214613F074FC3B689D426F
:1061F800F6DB03EB4303314609EB830013F06AFC3B
:1062080038680138C8F8000000EB40003146002526
:1062180009EB800013F05EFC274810F03DFE0121D9
:10622800254810F09BFD2549234811F023FC244AFA
:10623800202329462048CDE90252CDE900550A22FB
:1062480010F076FF01211C4810F088FD1D491A48FE
:1062580011F010FC3B68AB4214DDDFF874A0162483
:10626800194EA9465146A6F8BA403046A6F8B89045
:1062780013F03CFB01353B680A340AF10C0AAB42C7
:10628800A4B2EFDC0C4810F013FED8F8003001334C
:10629800C8F8003004B0BDE8F08702EB4202DFF82E
:1062A8003090314609EB820013F014FCD8F8000056
:1062B800AAE700BFA8730020B81001208C4B00206B
:1062C800E820002028560020B010012008FE0020F9
:1062D800CCE500202DE9F0478AB0264E264908244F
:1062E80004A8264D13F036FB31780A2201A80131A3
:1062F800DFF88CA013F0C2FB01A904A8DFF88480A2
:1063080013F030FC014607A8DFF87C9013F040FB3F
:1063180007A8FFF753FF07A813F074FB01A813F0B1
:1063280071FB04A813F06EFB02E001340E2C1DD0A3
:1063380015F8013B022BF8D13378A342F5D10AEBCB
:1063480084030021A700013413F8200C4F440301F3
:1063580008EB001258F80330D268C3F8882013F00D
:1063680029FE00230E2C47F8203CE1D10AB0BDE8F5
:10637800F08700BFF6130120D420002090E500200C
:1063880010770020942D0020E00C01202DE9F04129
:10639800144C154E154D04F10608154F0DE03378D1
:1063A8001A01444507EB031306F10406BA5805F130
:1063B8000405DB68C2F8883011D014F8013B0121CC
:1063C800002BECD0337828781A0107EB0313BA585E
:1063D800DB68C2F8843013F029FE2B78E0E7BDE8CB
:1063E800F08100BF90E5002028770020107700207A
:1063F800942D0020154B1B68012B24D0002B30B4A2
:10640800134D286815DD134C00EB400214F83220B8
:106418007AB1002201E093420BDD0130013290FB9A
:10642800F3F103FB110000EB400114F831100029CF
:10643800F1D1421C40EAE07092FBF3F103FB112218
:106448002A6030BC70470020704700BFF80C01205C
:10645800900E0120141301202DE9F04FDFF8388346
:1064680098F800300F2B2DED028B83B004D003B0C9
:10647800BDEC028BBDE8F08FBF4E05460C4696F882
:106488002D30834236D096F82C30AB42EFD1A4F1B0
:1064980024011529EBD801A353F821F0D1320000CB
:1064A8009F2F00009F2F00009F2F00009F2F0000AC
:1064B8009F2F00009F2F00009F2F00009F2F00009C
:1064C8009F2F00009F2F00009F2F000087320000A1
:1064D8009F2F0000773200009F2F000067320000D6
:1064E800573200009F2F0000473200009F2F000006
:1064F80029320000FFF77EFFDFF8A09200EB40038F
:1065080007464FEA400B19F8332009EBC303002A6A
:106518003FD09B68DFF87CA2984A1AF82330B16B09
:10652800180102EB03131058DB68C0F88830032900
:106538002CD8DFE801F0C5D9BD020BEB07039FEDAE
:10654800900A09EBC303596801931AF8210014F063
:1065580091FA019B59681AF82100002114F024FAD5
:10656800019B864AD3E903131AF821101AF823303D
:10657800080102EB01111058C968C0F8841019010C
:1065880002EB03135258DB68C2F88430012013F081
:1065980093FC002F05DA98F800300F2B3FF473AF07
:1065A80065E7D6ED097AB2EE084B764BB0EE000BF4
:1065B800B8EEE77BB26ADFF8DCA19FED6B5B85EE96
:1065C800076B93ED007AA4F1450305EE103A6E4B84
:1065D800B8EEC77AB8EEC55B03EB82036B4AB7EE39
:1065E800C77A93ED008A85EE043B0BEB070311682D
:1065F80009EBC302516101215470B8EEC88B09F848
:106608003310019226EE046B87EE061B31EE031B56
:1066180017F01EFA6421336B28EE000B019A01FB78
:1066280003F307EE103A53689FED516BB8EEC77B42
:106638001AF82300564BA0EE067BD6ED0D6AB8EE8D
:10664800E60B30EE070BB7EEC00B83ED000A14F033
:1066580011FA019A802153681AF8230014F0A4F95A
:10666800019A9368002B09DD1AF82330434A19016F
:1066780002EB03135258DB68C2F884300BEB0703B4
:1066880009EBC303DB68002B00F392805F4409EB3E
:10669800C7073B69002B7FF77EAF1AF82330374ACC
:1066A800190102EB03135258DB68C2F8883072E70D
:1066B8000BEB070309EBC3031B691AF823305EE7EA
:1066C8000BEB07039FED2E0A09EBC3035A680193EE
:1066D8001AF8220014F0CEF9019B00215B681AF821
:1066E800230014F061F951E70BEB070309EBC3032F
:1066F800DB681AF8233042E77379012B7FF4B7AED1
:10670800244B1E4A1B7D190102EB03135258DB6808
:10671800C2F88430ABE63379012B7FF4A8AE1D4B69
:10672800164A1B7CEFE7F378012B7FF4A0AE194BD8
:10673800124A1B7BE7E7B378012B7FF498AE154B21
:106748000E4A1B7ADFE77378012B7FF490AE114B6A
:106758000A4A1B79D7E73378012B7FF488AE0D4BB3
:10676800064A1B78CFE700BF000000000000C040C9
:106778000000000000807B4090E50020942D002060
:10678800000000004C0F012058830020A8100120B1
:10679800CC0D012010770020F613012014130120DE
:1067A800094803B0BDEC028BBDE8F04F0FF04CBEBA
:1067B8001AF82330054A190102EB03135258DB6813
:1067C800C2F8883062E700BF040D0120942D002034
:1067D800F0B5204C85B006460D462046022710F03D
:1067E8005BFB2046012106EB860611F0B5F8204632
:1067F800012105EB850510F0B1FA2046164911F084
:1068080039F9164B0F22204603EB86030026039323
:10681800314639230096CDE9017710F089FC3146DD
:10682800204611F099F820460D4911F023F90D483A
:106838004223302200EB8500402100960390204639
:10684800CDE9017710F074FC204605B0BDE8F040B2
:1068580010F02EBBB8100120485A0020C087002035
:106868008833002034870020F0B5204C85B00646D8
:106878000D462046022710F00FFB2046012106EBAB
:10688800860611F069F82046012105EB850510F010
:1068980065FA2046164911F0EDF8164B0F222046EE
:1068A80003EB860300260393314639230096CDE98E
:1068B800017710F03DFC3146204611F04DF8204696
:1068C8000D4911F0D7F80D484223302200EB85001E
:1068D8004021009603902046CDE9017710F028FC6E
:1068E800204605B0BDE8F04010F0E2BAB81001202B
:1068F800485A00206C83002088330020048400203C
:106908002DE9F041264C8AB007460025204602268C
:1069180010F0C2FA204601210DF1140811F01CF8FC
:106928002046012110F01AFA20461E4911F0A2F85B
:106938001D4B0F2229462046039300953923CDE9A4
:10694800016610F0F5FB2946204611F005F82046AF
:10695800164911F08FF8164B29221F21204611F0F5
:106968006FF8144B34221321204611F069F82046A1
:10697800114911F07FF83A461049404618F01EF9BF
:10698800422330226421204601960095CDE9026811
:1069980010F0CEFB204610F08BFA0AB0BDE8F0816B
:1069A800B8100120485A0020502100202856002005
:1069B80060210020682100208833002070210020F9
:1069C8002DE9F041264C8AB00746002520460226CC
:1069D80010F062FA204601210DF1140810F0BCFFF6
:1069E8002046012110F0BAF920461E4911F042F85C
:1069F8001D4B0F2229462046039300953923CDE9E4
:106A0800016610F095FB2946204610F0A5FF2046A8
:106A1800164911F02FF8164B29221F21204611F094
:106A28000FF8144B34221321204611F009F82046A0
:106A3800114911F01FF83A461049404618F0BEF8BF
:106A4800422330226421204601960095CDE9026850
:106A580010F06EFB204610F02BFA0AB0BDE8F0816A
:106A6800B8100120485A0020402100202856002054
:106A78006021002068210020883300207021002038
:106A88002DE9F041264C8AB007460025204602260B
:106A980010F002FA204601210DF1140810F05CFFF5
:106AA8002046012110F05AF920461E4910F0E2FF55
:106AB8001D4B0F2229462046039300953923CDE923
:106AC800016610F035FB2946204610F045FF2046A8
:106AD800164910F0CFFF164B29220F21204610F03F
:106AE800AFFF144B34221021204610F0A9FF204696
:106AF800114910F0BFFF3A461049404618F05EF8B9
:106B0800422330225A21204601960095CDE9026899
:106B180010F00EFB204610F0CBF90AB0BDE8F0816A
:106B2800B8100120485A0020402100202856002093
:106B380030210020382100208833002070210020D7
:106B48002DE9F041264C8AB007460025204602264A
:106B580010F0A2F9204601210DF1140810F0FCFEF6
:106B68002046012110F0FAF820461E4910F082FF55
:106B78001D4B0F2229462046039300953923CDE962
:106B8800016610F0D5FA2946204610F0E5FE2046A9
:106B9800164910F06FFF164B29221921204610F0D4
:106BA8004FFF144B34221021204610F049FF204695
:106BB800114910F05FFF3A461049404617F0FEFFB2
:106BC800422330226421204601960095CDE90268CF
:106BD80010F0AEFA204610F06BF90AB0BDE8F0816B
:106BE800B8100120485A00204021002028560020D3
:106BF80074210020302100208833002070210020DB
:106C0800F0B5274C8BB0074600252046022610F029
:106C180043F92046012110F09FFE2046012110F083
:106C28009DF820461F4910F025FF1F4B0F222946CB
:106C38002046039300953923CDE9016610F078FAD0
